:020000040800F2
:1000000000800020BD180008AD160008B5160008D5
:10001000BD160008C5160008CD1600080000000037
:10002000000000000000000000000000D5160008DD
:10003000E316000800000000F1160008FF16000893
:100040000D1900080D1900080D1900080D190008F8
:100050000D1900080D1900080D1900080D190008E8
:100060000D1900080D1900080D1900080D190008D8
:100070000D1900080D1900080D1900080D190008C8
:100080000D1900080D1900080D19000800000000E6
:100090000000000000000000000000000D19000832
:1000A0000D1900080D1900080D1900080D19000898
:1000B0000000000000000000000000000D19000812
:1000C0000D1900080D1900080D1900080D19000878
:1000D0000D190008911100080D190008000000001A
:1000E0000D1900080D1900080000000000000000B4
:1000F0000000000000000000000000000D190008D2
:1001000000000000000000000D19000800000000C1
:1001100000000000000000000D19000800000000B1
:100120000D1900080D1900080D1900080D19000817
:100130000D19000800000000000000000000000091
:1001400000000000000000000000000000000000AF
:100150000D1900080D1900080D1900080D190008E7
:10016000000000000000000000000000000000008F
:10017000000000000000000000000000000000007F
:100180000D1900080D190008000000000000000013
:10019000000000000D190008000000000000000031
:1001A000000000000000000000000000000000004F
:1001B0000000000000000000000000000D19000811
:0801C0000D1900080D190008DB
:1001D00010B5054C237833B9044B13B10448AFF381
:1001E00000800123237010BD8C040020000000005B
:1001F0006093000808B5034B1BB103490348AFF3F4
:10020000008008BD000000009004002060930008FA
:1002100010F8012B11F8013B012A28BF9A42F7D0B0
:10022000D01A70470000000000000000000000002D
:1002300001F0FF01102A2BDB10F0070F08D010F897
:10024000013B013A8B422DD010F0070F42B3F6D19B
:10025000F0B441EA012141EA014122F007047FF0B4
:1002600000070023F0E80256083C85EA010586EA0B
:10027000010685FA47F5A3FA87F586FA47F6A5FA47
:1002800087F68EB9EED1F0BC01F0FF0102F0070253
:1002900032B110F8013B013A83EA010313B1F8D1FE
:1002A0000020704701387047002D06BF35460338DF
:1002B000073815F0010F07D1013015F4807F02BF18
:1002C000013015F4C03F0130F0BC0138704700BF69
:1002D000034613F8012B002AFBD1181A0138704786
:1002E00081F0004102E000BF83F0004330B54FEAE7
:1002F00041044FEA430594EA050F08BF90EA020F54
:100300001FBF54EA000C55EA020C7FEA645C7FEAE6
:10031000655C00F0E2804FEA5454D4EB5555B8BF09
:100320006D420CDD2C4480EA020281EA030382EA7A
:10033000000083EA010180EA020281EA0303362D0C
:1003400088BF30BD11F0004F4FEA01314FF4801CDF
:100350004CEA113102D0404261EB410113F0004FF1
:100360004FEA03334CEA133302D0524263EB4303A8
:1003700094EA050F00F0A780A4F10104D5F1200E46
:100380000DDB02FA0EFC22FA05F2801841F10001A1
:1003900003FA0EF2801843FA05F359410EE0A5F175
:1003A00020050EF1200E012A03FA0EFC28BF4CF0A6
:1003B000020C43FA05F3C01851EBE37101F000455C
:1003C00007D54FF0000EDCF1000C7EEB00006EEB69
:1003D0000101B1F5801F1BD3B1F5001F0CD34908F3
:1003E0005FEA30004FEA3C0C04F101044FEA44524A
:1003F00012F5800F80F09A80BCF1004F08BF5FEAD1
:10040000500C50F1000041EB045141EA050130BDB0
:100410005FEA4C0C404141EB0101013C28BFB1F5C2
:10042000801FE9D291F0000F04BF01460020B1FA0D
:1004300081F308BF2033A3F10B03B3F120020CDAE0
:100440000C3208DD02F1140CC2F10C0201FA0CF0BE
:1004500021FA02F10CE002F11402D8BFC2F1200C23
:1004600001FA02F120FA0CFCDCBF41EA0C019040D9
:10047000E41AA2BF01EB0451294330BD6FEA040422
:100480001F3C1CDA0C340EDC04F11404C4F120020D
:1004900020FA04F001FA02F340EA030021FA04F31F
:1004A00045EA030130BDC4F10C04C4F1200220FA76
:1004B00002F001FA04F340EA0300294630BD21FAB4
:1004C00004F0294630BD94F0000F83F4801306BF7A
:1004D00081F480110134013D4EE77FEA645C18BF6E
:1004E0007FEA655C29D094EA050F08BF90EA020F05
:1004F00005D054EA000C04BF1946104630BD91EAFD
:10050000030F1EBF0021002030BD5FEA545C05D1FF
:100510004000494128BF41F0004130BD14F580043E
:100520003CBF01F5801130BD01F0004545F0FE41B2
:1005300041F470014FF0000030BD7FEA645C1ABFE7
:10054000194610467FEA655C1CBF0B46024650EA1E
:10055000013406BF52EA033591EA030F41F400214A
:1005600030BD00BF90F0000F04BF0021704730B5D0
:100570004FF4806404F132044FF000054FF00001A5
:1005800050E700BF90F0000F04BF0021704730B566
:100590004FF4806404F1320410F0004548BF40423B
:1005A0004FF000013EE700BF42004FEAE2014FEA90
:1005B00031014FEA02701FBF12F07F4393F07F4F6B
:1005C00081F06051704732F07F4208BF704793F06E
:1005D0007F4F04BF41F40021704730B54FF4607481
:1005E00001F0004521F000411CE700BF50EA010284
:1005F00008BF704730B54FF000050AE050EA01022D
:1006000008BF704730B511F0004502D5404261EB9C
:1006100041014FF4806404F132045FEA915C3FF4DD
:10062000D8AE4FF003025FEADC0C18BF03325FEA7A
:10063000DC0C18BF033202EBDC02C2F1200300FA2B
:1006400003FC20FA02F001FA03FE40EA0E0021FA50
:1006500002F11444BDE600BF70B54FF0FF0C4CF43E
:10066000E06C1CEA11541DBF1CEA135594EA0C0FF0
:1006700095EA0C0F00F0DEF82C4481EA030621EA2B
:100680004C5123EA4C5350EA013518BF52EA033566
:1006900041F4801143F4801338D0A0FB02CE4FF018
:1006A0000005E1FB02E506F00042E0FB03E54FF048
:1006B0000006E1FB03569CF0000F18BF4EF0010E40
:1006C000A4F1FF04B6F5007F64F5407404D25FEA3C
:1006D0004E0E6D4146EB060642EAC62141EA5551EF
:1006E0004FEAC52040EA5E504FEACE2EB4F1FD0C31
:1006F00088BFBCF5E06F1ED8BEF1004F08BF5FEAAF
:10070000500E50F1000041EB045170BD06F0004660
:1007100046EA010140EA020081EA0301B4EB5C040D
:10072000C2BFD4EB0C0541EA045170BD41F4801105
:100730004FF0000E013C00F3AB8014F1360FDEBF2A
:10074000002001F0004170BDC4F10004203C35DA06
:100750000C341BDC04F11404C4F1200500FA05F389
:1007600020FA04F001FA05F240EA020001F000422A
:1007700021F0004110EBD37021FA04F642EB0601A0
:100780005EEA430E08BF20EAD37070BDC4F10C04CA
:10079000C4F1200500FA04F320FA05F001FA04F28E
:1007A00040EA020001F0004110EBD37041F100017A
:1007B0005EEA430E08BF20EAD37070BDC4F1200585
:1007C00000FA05F24EEA020E20FA04F301FA05F2ED
:1007D00043EA020321FA04F001F0004121FA04F295
:1007E00020EA020000EBD3705EEA430E08BF20EA65
:1007F000D37070BD94F0000F0FD101F0004640009F
:1008000041EB010111F4801F08BF013CF7D041EA20
:10081000060195F0000F18BF704703F00046520024
:1008200043EB030313F4801F08BF013DF7D043EAF5
:100830000603704794EA0C0F0CEA135518BF95EAAB
:100840000C0F0CD050EA410618BF52EA4306D1D132
:1008500081EA030101F000414FF0000070BD50EA51
:10086000410606BF1046194652EA430619D094EADB
:100870000C0F02D150EA013613D195EA0C0F05D1C5
:1008800052EA03361CBF104619460AD181EA030119
:1008900001F0004141F0FE4141F470014FF00000D1
:1008A00070BD41F0FE4141F4780170BD70B54FF06C
:1008B000FF0C4CF4E06C1CEA11541DBF1CEA1355EC
:1008C00094EA0C0F95EA0C0F00F0A7F8A4EB0504CE
:1008D00081EA030E52EA03354FEA013100F08880C5
:1008E0004FEA03334FF0805545EA131343EA12638E
:1008F0004FEA022245EA111545EA10654FEA002643
:100900000EF000419D4208BF964244F1FD0404F5FB
:10091000407402D25B084FEA3202B61A65EB030557
:100920005B084FEA32024FF480104FF4002CB6EB14
:10093000020E75EB030E22BFB61A754640EA0C0094
:100940005B084FEA3202B6EB020E75EB030E22BFD4
:10095000B61A754640EA5C005B084FEA3202B6EB15
:10096000020E75EB030E22BFB61A754640EA9C00D4
:100970005B084FEA3202B6EB020E75EB030E22BFA4
:10098000B61A754640EADC0055EA060E18D04FEA62
:10099000051545EA16754FEA06164FEAC30343EA02
:1009A00052734FEAC2025FEA1C1CC0D111F4801FCF
:1009B0000BD141EA00014FF000004FF0004CB6E7C8
:1009C00011F4801F04BF01430020B4F1FD0C88BF67
:1009D000BCF5E06F3FF6AFAEB5EB030C04BFB6EB72
:1009E000020C5FEA500C50F1000041EB045170BD65
:1009F0000EF0004E4EEA113114EB5C04C2BFD4EB92
:100A00000C0541EA045170BD41F480114FF0000E15
:100A1000013C90E645EA060E8DE60CEA135594EA91
:100A20000C0F08BF95EA0C0F3FF43BAF94EA0C0F94
:100A30000AD150EA01347FF434AF95EA0C0F7FF409
:100A400025AF104619462CE795EA0C0F06D152EA5D
:100A500003353FF4FDAE1046194622E750EA410641
:100A600018BF52EA43067FF4C5AE50EA41047FF452
:100A70000DAF52EA43057FF4EBAE12E74FF0FF3CB7
:100A800006E000BF4FF0010C02E000BF4FF0010C88
:100A90004DF804CD4FEA410C7FEA6C5C4FEA430C01
:100AA00018BF7FEA6C5C1BD001B050EA410C0CBF50
:100AB00052EA430C91EA030F02BF90EA020F0020B2
:100AC000704710F1000F91EA030F58BF994208BF19
:100AD00090422CBFD8176FEAE37040F001007047D6
:100AE0004FEA410C7FEA6C5C02D150EA013C07D12D
:100AF0004FEA430C7FEA6C5CD6D152EA033CD3D078
:100B00005DF8040B704700BF8446104662468C4671
:100B10001946634600E000BF01B5FFF7B7FF0028A4
:100B200048BF10F1000F01BD4DF808EDFFF7F4FFCD
:100B30000CBF012000205DF808FB00BF4DF808ED58
:100B4000FFF7EAFF34BF012000205DF808FB00BF7B
:100B50004DF808EDFFF7E0FF94BF012000205DF89D
:100B600008FB00BF4DF808EDFFF7CEFF94BF012052
:100B700000205DF808FB00BF4DF808EDFFF7C4FF4B
:100B800034BF012000205DF808FB00BF4FEA410C94
:100B90007FEA6C5C02D150EA013C0AD14FEA430C77
:100BA0007FEA6C5C02D152EA033C02D14FF00000B4
:100BB00070474FF0010070474FEA410212F50012F2
:100BC00015D211D56FF47873B3EB625212D94FEA94
:100BD000C12343F0004343EA505311F0004F23FA7E
:100BE00002F018BF404270474FF00000704750EAD3
:100BF000013005D111F0004008BF6FF00040704790
:100C00004FF00000704700BF53B94AB9002908BF30
:100C100000281CBF4FF0FF314FF0FF3000F06AB9E1
:100C2000ADF1080C6DE904CE00F006F8DDF804E043
:100C3000DDE9022304B070472DE9F047089D0C461A
:100C4000002B4ED194468C458646B2FA82F262D988
:100C50004AB1C2F12003914020FA03F30CFA02FCDE
:100C6000194300FA02FE4FEA1C471FFA8CF6B1FB4B
:100C7000F7F44FEA1E4307FB141143EA014304FB58
:100C800006F199420AD91CEB030304F1FF3080F00E
:100C90001281994240F20F81023C6344591A1FFAB3
:100CA0008EF3B1FBF7F007FB101143EA014300FBA1
:100CB00006F69E420AD91CEB030300F1FF3180F0D7
:100CC000FC809E4240F2F980634402389B1B40EA5C
:100CD000044000211DB1D3400022C5E90032BDE827
:100CE000F0878B4205D90DB1C5E900010021084606
:100CF000F5E7B3FA83F1002946D1A34202D390422B
:100D0000C0F0F080861A64EB03030120002DE6D0CA
:100D1000C5E90063E3E7002A40F09080A1EB0C04F2
:100D20004FEA1C481FFA8CF70121B4FBF8F64FEA92
:100D30001E4308FB164443EA044307FB06F09842AF
:100D400008D91CEB030306F1FF3402D2984200F2EB
:100D5000CD8026461C1A1FFA8EF3B4FBF8F008FB70
:100D6000104443EA044300FB07F79F4208D91CEBF9
:100D7000030300F1FF3402D29F4200F2B08020460C
:100D8000DB1B40EA0640A5E7C1F120068B4022FAB2
:100D900006F71F4320FA06FC04FA01F343EA0C03AA
:100DA000F44000FA01F8380C4FEA1349B4FBF0FEA6
:100DB0001FFA87FC00FB1E4449EA04440EFB0CF9B1
:100DC000A14502FA01F20AD93C190EF1FF3A80F06E
:100DD0008480A14540F28180AEF1020E3C44A4EB38
:100DE00009041FFA83F9B4FBF0F300FB134449EA4A
:100DF000044403FB0CFCA44507D93C1903F1FF3064
:100E000067D2A44565D9023B3C4443EA0E40A0FBAF
:100E10000293A4EB0C049C42CE469C4651D34ED088
:100E200055B1B8EB0E0364EB0C0404FA06F6CB40A4
:100E30001E43CC40C5E90064002150E7C2F1200305
:100E400020FA03F10CFA02FC24FA03F394400C4359
:100E50004FEA1C4800FA02FE1FFA8CF7B3FBF8F0C9
:100E600008FB1031230C43EA014300FB07F19942D0
:100E700008D91CEB030300F1FF362CD299422AD982
:100E8000023863445B1AA4B2B3FBF8F108FB1133D8
:100E900044EA034401FB07F3A34208D91CEB040412
:100EA00001F1FF3613D2A34211D902396444E41A86
:100EB00041EA004139E70446F0E6084606E7C8453E
:100EC000AED2B9EB020E63EB070C0138A8E731464E
:100ED000EDE7034699E73046D4E7D6467FE763441B
:100EE00002384DE70646234608460FE7023E6344B4
:100EF00030E700BF704700BF80B500AF04F031F9A4
:100F000000BF80BD80B500AF40214FF4807004F079
:100F1000F7F900BF80BD000080B500AFFFF7F2FF1A
:100F20000021094804F000FA00220021064804F0DC
:100F3000D7FB4FF4FA6000F05DFD0021024804F099
:100F4000F3F900BF80BD00BFFC04002080B582B073
:100F500002AF144804F094FA2B230193202300934A
:100F6000002300221049114804F066FB0F23009370
:100F7000142320220E490D4804F02AFB0F2300936E
:100F80002D2320220B49094804F022FB00220021D6
:100F9000064804F0A5FB41F2883000F02BFD00BFAD
:100FA000BD4680BDFC9C000800000020FC04002021
:100FB000789300088893000880B582B002AF0F488C
:100FC00004F05EFA0F23009314230A220C490D4803
:100FD00004F0FEFA0F2300932D230A220A49094840
:100FE00004F0F6FA00220021064804F079FB4FF4E1
:100FF000FA6000F0FFFC00BFBD4680BDFC9C00080D
:101000009C930008FC040020A893000880B582B0DF
:1010100002AF164804F034FA0F23009314230A2277
:101020001349144804F0D4FA134804F029FA0F23A2
:1010300000931423782211490E4804F0C9FA0B4892
:1010400004F01EFA0F2300932D230A220C490948AD
:1010500004F0BEFA00220021064804F041FB4FF4E0
:10106000FA6000F0C7FC00BFBD4680BDB8A700080D
:10107000B8930008FC04002008B70008C4930008D7
:10108000CC930008B0B582B002AF1A4804F0F8F96A
:101090000F23009314230A221749184804F098FAE2
:1010A000174B1B681846FFF77FFA04460D46144B92
:1010B0005B681846FFF778FA02460B46CDE9002335
:1010C00022462B460F49104806F01EF80F230093C6
:1010D000142350220C49094804F07AFA0022002116
:1010E000064804F0FDFA4FF4FA6000F083FC00BFFC
:1010F000BD46B0BD80B20008E0930008FC040020AB
:10110000CC250020E8930008F004002080B500AF53
:1011100004F0DAFC00BF80BD80B500AF012004F010
:101120009FFD41F2883000F065FC002004F098FD3E
:1011300041F2883000F05EFC00BF80BD80B500AF9A
:10114000114B124A1A60104B4FF4E1325A600E4BA9
:1011500000229A600C4B0022DA600B4B00221A61CD
:10116000094B0C225A61084B00229A61064B00225F
:10117000DA61054803F032F80346002B01D000F095
:1011800099F900BF80BD00BFA804002000100140F5
:1011900080B500AF04F02CFE024803F077F800BFE2
:1011A00080BD00BFA804002080B58AB000AF07F161
:1011B000140300221A605A609A60DA601A610023F0
:1011C0003B61304B1B6B2F4A43F0040313632D4BE1
:1011D0001B6B03F004033B613B690023FB60294B5D
:1011E0001B6B284A43F080031363264B1B6B03F0F1
:1011F0008003FB60FB680023BB60224B1B6B214A12
:1012000043F0010313631F4B1B6B03F00103BB602F
:10121000BB6800237B601B4B1B6B1A4A43F0020325
:101220001363184B1B6B03F002037B607B68002287
:101230003021154800F01AFF00221021134800F059
:1012400015FF30237B610123BB610023FB61002379
:101250003B6207F1140319460B4800F093FD10237D
:101260007B610123BB610023FB6100233B6207F12B
:1012700014031946054800F085FD00BF2837BD4618
:1012800080BD00BF0038024000080240000002405C
:1012900080B500AF124B134A1A60114B124A5A60C4
:1012A0000F4B00229A600E4B0022DA600C4B4FF479
:1012B00080421A610A4B00225A61094B00229A614E
:1012C000074B0022DA61064B00221A62044800F044
:1012D000E7FE0346002B01D000F0ECF800BF80BD14
:1012E0006025002000540040A086010080B58AB02F
:1012F00000AF786007F1140300221A605A609A6008
:10130000DA601A617B681B68194A93422BD100236B
:101310003B61184B1B6B174A43F002031363154BD9
:101320001B6B03F002033B613B69C0237B6112230B
:10133000BB610023FB6103233B6204237B6207F153
:10134000140319460C4800F01DFD0023FB60094BF7
:101350001B6C084A43F400131364064B1B6C03F424
:101360000013FB60FB6800BF2837BD4680BD00BF8F
:1013700000540040003802400004024080B500AF35
:1013800000F0C6FA00F02AF8FFF70EFF00F098F818
:10139000FFF7B2FDFFF7D2FEFFF77AFFFFF7B6FEC9
:1013A000FFF7BAFDFFF7D2FDFFF7B6FDFFF72EFE00
:1013B000FFF7B2FDFFF700FEFFF7AEFD05F04AF8BC
:1013C00005F006F94FF47A7000F014FBFFF7A4FD66
:1013D000FFF758FEFFF7A0FE00BFF1E780B594B01D
:1013E00000AF07F11C0334220021184605F0EFFE80
:1013F00007F1080300221A605A609A60DA601A61E5
:1014000000237B60294B1B6C284A43F080531364F4
:10141000264B1B6C03F080537B607B6800233B6092
:10142000234B1B68224A43F440431360204B1B6844
:1014300003F440433B603B680223FB610123BB6232
:101440001023FB6202237B630023BB631023FB6337
:101450004FF4A8733B6404237B640423BB6402231E
:10146000FB6407F11C03184602F08CF90346002BBD
:1014700001D000F01FF80F23BB600223FB600023A4
:101480003B614FF480537B610023BB6107F108038C
:101490000221184601F056FF0346002B01D000F050
:1014A00009F800BF5037BD4680BD00BF003802407C
:1014B0000070004080B400AF72B600BF00BFFDE70F
:1014C00080B500AF174B184A1A60164B4FF4827262
:1014D0005A60144B00229A60124B0022DA60114BC2
:1014E00002221A610F4B01225A610E4B4FF4007217
:1014F0009A610C4B1022DA610A4B00221A62094BE6
:1015000000225A62074B00229A62064B0F22DA62CF
:10151000044802F0BBFB0346002B01D0FFF7CAFFD3
:1015200000BF80BDFC2400200030014080B58AB09F
:1015300000AF786007F1140300221A605A609A60C5
:10154000DA601A617B681B68194A93422BD1002329
:101550003B61184B5B6C174A43F480535364154B43
:101560005B6C03F480533B613B690023FB60114BD0
:101570001B6B104A43F0010313630E4B1B6B03F00C
:101580000103FB60FB68A0237B610223BB61002396
:10159000FB6103233B6205237B6207F114031946B9
:1015A000054800F0EFFB00BF2837BD4680BD00BFF7
:1015B00000300140003802400000024080B582B097
:1015C00000AF00237B60104B5B6C0F4A43F48043F9
:1015D00053640D4B5B6C03F480437B607B6800239A
:1015E0003B60094B1B6C084A43F080531364064B65
:1015F0001B6C03F080533B603B68072000F0EEFA61
:1016000000BF0837BD4680BD0038024080B58AB0B3
:1016100000AF786007F1140300221A605A609A60E4
:10162000DA601A617B681B681D4A934234D100233B
:101630003B611C4B5B6C1B4A43F010035364194B1A
:101640005B6C03F010033B613B690023FB60154BAF
:101650001B6B144A43F001031363124B1B6B03F023
:101660000103FB60FB684FF400737B611223BB61D5
:101670000023FB6103233B6207237B6207F1140312
:101680001946094800F07EFB00220021252000F0C9
:10169000B0FA252000F0C9FA00BF2837BD4680BD4A
:1016A00000100140003802400000024080B400AF4A
:1016B00000BFFDE780B400AF00BFFDE780B400AF1E
:1016C00000BFFDE780B400AF00BFFDE780B400AF0E
:1016D00000BFFDE780B400AF00BFBD465DF8047BEE
:1016E000704780B400AF00BFBD465DF8047B704713
:1016F00080B400AF00BFBD465DF8047B704780B585
:1017000000AF00F057F900BF80BD80B400AF0123E7
:101710001846BD465DF8047B704780B582B000AFC7
:101720007860396005F0A6FD034616221A604FF076
:10173000FF3318460837BD4680BD80B582B000AF84
:1017400078604FF0FF317868FFF7E7FF00BFFDE7F3
:1017500080B586B000AFF860B9607A6000237B6125
:101760000AE0AFF300800146BB685A1CBA60CAB2F7
:101770001A707B6901337B617A697B689A42F0DB7E
:101780007B6818461837BD4680BD80B586B000AF6F
:10179000F860B9607A6000237B6109E0BB685A1C7D
:1017A000BA601B781846AFF300807B6901337B6118
:1017B0007A697B689A42F1DB7B6818461837BD4628
:1017C00080BD80B483B000AF78604FF0FF3318461F
:1017D0000C37BD465DF8047B704780B483B000AF22
:1017E000786039603B684FF400525A600023184615
:1017F0000C37BD465DF8047B704780B483B000AF02
:101800007860012318460C37BD465DF8047B7047AD
:1018100080B485B000AFF860B9607A6000231846E4
:101820001437BD465DF8047B7047000080B586B074
:1018300000AF7860144A154BD31A7B617B693B611A
:10184000134B1B68002B02D1114B124A1A60104B2C
:101850001A687B6813443A699A4207D205F00AFD78
:1018600003460C221A604FF0FF3309E0084B1B6857
:10187000FB60074B1A687B681344054A1360FB68DA
:1018800018461837BD4680BD0080002000040000C7
:10189000542500206827002080B400AF064BD3F801
:1018A0008830054A43F47003C2F8883000BFBD4653
:1018B0005DF8047B704700BF00ED00E0DFF834D036
:1018C000FFF7EAFF0C480D490D4A002302E0D45807
:1018D000C4500433C4188C42F9D30A4A0A4C00237A
:1018E00001E013600432A242FBD305F0C9FCFFF70C
:1018F00045FD704700800020000000208C0400207F
:10190000B0BA00088C04002064270020FEE7000025
:1019100080B500AF0E4B1B680D4A43F40073136093
:101920000B4B1B680A4A43F480631360084B1B6827
:10193000074A43F480731360032000F04FF900203E
:1019400000F008F8FFF73AFE0023184680BD00BFFC
:10195000003C024080B582B000AF7860124B1A683C
:10196000124B1B7819464FF47A73B3FBF1F3B2FBB9
:10197000F3F3184600F067F90346002B01D001236A
:101980000EE07B680F2B0AD8002279684FF0FF30F9
:1019900000F02FF9064A7B681360002300E0012362
:1019A00018460837BD4680BDB0020020B8020020AE
:1019B000B402002080B400AF064B1B781A46064BD9
:1019C0001B681344044A136000BFBD465DF8047BE6
:1019D000704700BFB80200205825002080B400AF37
:1019E000034B1B681846BD465DF8047B704700BF7B
:1019F0005825002080B584B000AF7860FFF7EEFF77
:101A0000B8607B68FB60FB68B3F1FF3F05D00A4B11
:101A10001B781A46FB681344FB6000BFFFF7DEFF2C
:101A20000246BB68D31AFA689A42F7D800BF00BFD3
:101A30001037BD4680BD00BFB802002080B485B01D
:101A400000AF78607B6803F00703FB600C4BDB683A
:101A5000BB60BA684FF6FF031340BB60FB681A0215
:101A6000BB68134343F0BF6343F40033BB60044AD5
:101A7000BB68D36000BF1437BD465DF8047B704778
:101A800000ED00E080B400AF044BDB681B0A03F0FC
:101A900007031846BD465DF8047B704700ED00E083
:101AA00080B483B000AF0346FB7197F90730002B79
:101AB0000BDBFB7903F01F02074997F907305B093D
:101AC000012000FA02F241F8232000BF0C37BD4686
:101AD0005DF8047B704700BF00E100E080B483B094
:101AE00000AF03463960FB7197F90730002B0ADB22
:101AF0003B68DAB20C4997F907301201D2B20B44B5
:101B000083F800230AE03B68DAB20849FB7903F066
:101B10000F03043B1201D2B20B441A7600BF0C37FC
:101B2000BD465DF8047B704700E100E000ED00E099
:101B300080B489B000AFF860B9607A60FB6803F0E8
:101B40000703FB61FB69C3F10703042B28BF0423D0
:101B5000BB61FB690433062B02D9FB69033B00E040
:101B600000237B614FF0FF32BB6902FA03F3DA43D3
:101B7000BB681A407B699A404FF0FF317B6901FADC
:101B800003F3D9437B680B40134318462437BD4603
:101B90005DF8047B7047000080B582B000AF7860CC
:101BA0007B68013BB3F1807F01D301230FE00A4A38
:101BB0007B68013B53600F214FF0FF30FFF78EFF32
:101BC000054B00229A60044B07221A600023184636
:101BD0000837BD4680BD00BF10E000E080B582B090
:101BE00000AF78607868FFF729FF00BF0837BD466F
:101BF00080BD80B586B000AF0346B9607A60FB73E4
:101C000000237B61FFF73EFF78617A68B9687869E5
:101C1000FFF78EFF024697F90F3011461846FFF77F
:101C20005DFF00BF1837BD4680BD80B582B000AFF4
:101C30000346FB7197F907301846FFF731FF00BFE5
:101C40000837BD4680BD80B582B000AF7860786847
:101C5000FFF7A2FF034618460837BD4680BD80B592
:101C600084B000AF78607B689B6DFB60FFF7B6FEC9
:101C7000B8607B6893F83530DBB2022B08D07B6804
:101C800080225A657B68002283F83420012352E0C9
:101C90007B681B681A687B681B6822F016021A6052
:101CA0007B681B685A697B681B6822F080025A6156
:101CB0007B681B6C002B03D17B689B6C002B07D0CF
:101CC0007B681B681A687B681B6822F008021A6030
:101CD0007B681B681A687B681B6822F001021A6027
:101CE00013E0FFF77BFE0246BB68D31A052B0CD925
:101CF0007B6820225A657B68032283F835207B6845
:101D0000002283F83420032315E07B681B681B68DE
:101D100003F00103002BE4D17B68DB6D3F229A4086
:101D2000FB689A607B68012283F835207B6800227B
:101D300083F83420002318461037BD4680BD80B498
:101D400083B000AF78607B6893F83530DBB2022B4C
:101D500004D07B6880225A6501230CE07B68052251
:101D600083F835207B681B681A687B681B6822F043
:101D700001021A60002318460C37BD465DF8047B4B
:101D80007047000080B489B000AF786039600023EC
:101D90007B6100233B610023BB610023FB614DE1BC
:101DA0000122FB6902FA03F37B613B681B687A69D5
:101DB00013403B613A697B699A4240F03C813B6841
:101DC0005B6803F00303012B05D03B685B6803F0FD
:101DD0000303022B30D17B689B68BB61FB695B000E
:101DE000032202FA03F3DB43BA691340BB613B6889
:101DF000DA68FB695B0002FA03F3BA691343BB615B
:101E00007B68BA699A607B685B68BB610122FB6989
:101E100002FA03F3DB43BA691340BB613B685B68BA
:101E20001B0903F00102FB6902FA03F3BA691343C9
:101E3000BB617B68BA695A603B685B6803F0030367
:101E4000032B17D07B68DB68BB61FB695B00032257
:101E500002FA03F3DB43BA691340BB613B689A683B
:101E6000FB695B0002FA03F3BA691343BB617B6849
:101E7000BA69DA603B685B6803F00303022B23D185
:101E8000FB69DA087B68083253F82230BB61FB69D2
:101E900003F007039B000F2202FA03F3DB43BA6946
:101EA0001340BB613B681A69FB6903F007039B00A1
:101EB00002FA03F3BA691343BB61FB69DA087B6872
:101EC0000832B96943F822107B681B68BB61FB6963
:101ED0005B00032202FA03F3DB43BA691340BB61E0
:101EE0003B685B6803F00302FB695B0002FA03F3E3
:101EF000BA691343BB617B68BA691A603B685B6867
:101F000003F44033002B00F096800023FB60514B1C
:101F10005B6C504A43F4804353644E4B5B6C03F458
:101F20008043FB60FB684C4AFB699B08023352F814
:101F30002330BB61FB6903F003039B000F2202FA0D
:101F400003F3DB43BA691340BB617B68434A9342A6
:101F50000DD07B68424A934207D07B68414A934246
:101F600001D1022304E0072302E0012300E0002363
:101F7000FA6902F0030292009340BA691343BB610D
:101F80003549FB699B080233BA6941F82320364B77
:101F90009B68BB613B69DB43BA691340BB613B682B
:101FA0005B6803F48013002B03D0BA693B691343C9
:101FB000BB612D4ABB6993602B4BDB68BB613B69FE
:101FC000DB43BA691340BB613B685B6803F40013F1
:101FD000002B03D0BA693B691343BB61224ABB693A
:101FE000D360214B5B68BB613B69DB43BA6913403B
:101FF000BB613B685B6803F40033002B03D0BA6914
:102000003B691343BB61184ABB695360164B1B689D
:10201000BB613B69DB43BA691340BB613B685B68EA
:1020200003F48033002B03D0BA693B691343BB61CF
:102030000D4ABB691360FB690133FB61FB690F2B20
:102040007FF6AEAE00BF00BF2437BD465DF8047B0F
:10205000704700BF003802400038014000000240D5
:102060000004024000080240003C014080B483B0FC
:1020700000AF78600B467B8013467B707B78002B2B
:1020800003D07A887B689A6103E07B881A047B68B6
:102090009A6100BF0C37BD465DF8047B70470000B5
:1020A00080B584B000AF78607B68002B01D101233C
:1020B0002BE17B6893F83D30DBB2002B06D17B68C7
:1020C000002283F83C207868FFF710F97B6824220F
:1020D00083F83D207B681B681A687B681B6822F0C8
:1020E00001021A607B681B681A687B681B6842F4EF
:1020F00000421A607B681B681A687B681B6822F4C0
:1021000000421A6001F016FBF8607B685B68814A48
:10211000934207D8FB68804A934294BF012300236F
:10212000DBB206E0FB687D4A934294BF01230023A3
:10213000DBB2002B01D00123E7E0FB68784AA2FB69
:1021400003239B0CBB607B681B685B6823F03F012B
:102150007B681B68BA680A435A607B681B681B6A05
:1021600023F03F017B685B686A4A934202D8BB68F0
:10217000013309E0BB684FF4967202FB03F3694A2E
:10218000A2FB03239B0901337A6812680B43136295
:102190007B681B68DB6923F44F4222F0FF027B68F7
:1021A0005B685C498B4219D8FB68591E7B685B6889
:1021B0005B00B1FBF3F3591C40F6FC730B40002BA2
:1021C0000AD0FB68591E7B685B685B00B1FBF3F3C8
:1021D0000133C3F30B0351E004234FE07B689B689A
:1021E000002B11D1FB68581E7B6859680B465B00B9
:1021F0000B44B0FBF3F30133C3F30B03002B0CBF11
:1022000001230023DBB212E0FB68581E7B6859688B
:102210000B469B000B4499000B44B0FBF3F30133D6
:10222000C3F30B03002B0CBF01230023DBB2002BF5
:1022300001D0012322E07B689B68002B0ED1FB6854
:10224000581E7B6859680B465B000B44B0FBF3F3E8
:102250000133C3F30B0343F400430FE0FB68581E44
:102260007B6859680B469B000B4499000B44B0FBFC
:10227000F3F30133C3F30B0343F440437968096874
:102280001343CB617B681B681B6823F0C0017B682C
:10229000DA697B681B6A1A437B681B680A431A6009
:1022A0007B681B689B6823F4034323F0FF037A6871
:1022B00011697A68D26811437A6812680B43936097
:1022C0007B681B68DB6823F0FF017B685A697B68C9
:1022D0009B691A437B681B680A43DA607B681B684A
:1022E0001A687B681B6842F001021A607B68002252
:1022F0001A647B68202283F83D207B6800221A63E1
:102300007B68002283F83E20002318461037BD4624
:1023100080BD00BFA08601007F841E00FF083D0035
:1023200083DE1B43D34D621080B588B002AFF860E6
:10233000084611461A4603467B810B463B811346ED
:10234000FB80FFF74BFB7861FB6893F83D30DBB215
:10235000202B40F0D9807B690093192301226D491D
:10236000F86800F0B9FD0346002B01D00223CCE051
:10237000FB6893F83C30012B01D10223C5E0FB68D8
:10238000012283F83C20FB681B681B6803F00103F3
:10239000012B07D0FB681B681A68FB681B6842F0BA
:1023A00001021A60FB681B681A68FB681B6822F44C
:1023B00000621A60FB68212283F83D20FB684022FE
:1023C00083F83E20FB6800221A64FB683A6A5A626E
:1023D000FB68BA8C5A85FB685B8D9AB2FB681A85DC
:1023E000FB684D4ADA62F8883A8979897B690193FA
:1023F000BB6A00930346F86800F0F0FB0346002B2D
:1024000052D0012381E07A69B96AF86800F07EFE53
:102410000346002B0DD0FB681B6C042B07D1FB6817
:102420001B681A68FB681B6842F400721A6001237B
:102430006BE0FB685B6A1A78FB681B681A61FB68D3
:102440005B6A5A1CFB685A62FB681B8D013B9AB29F
:10245000FB681A85FB685B8D9BB2013B9AB2FB68F7
:102460005A85FB681B685B6903F00403042B1BD1CE
:10247000FB681B8D002B17D0FB685B6A1A78FB6822
:102480001B681A61FB685B6A5A1CFB685A62FB682E
:102490001B8D013B9AB2FB681A85FB685B8D9BB272
:1024A000013B9AB2FB685A85FB681B8D002BAAD1B1
:1024B0007A69B96AF86800F071FE0346002B0DD006
:1024C000FB681B6C042B07D1FB681B681A68FB6850
:1024D0001B6842F400721A60012316E0FB681B6857
:1024E0001A68FB681B6842F400721A60FB682022BD
:1024F00083F83D20FB68002283F83E20FB68002221
:1025000083F83C20002300E0022318461837BD461C
:1025100080BD00BF020010000000FFFF80B58CB03E
:1025200002AFF860084611461A4603467B810B4607
:102530003B811346FB80FFF751FA7862FB6893F802
:102540003D30DBB2202B40F014827B6A00931923CC
:1025500001227B49F86800F0BFFC0346002B01D044
:10256000022307E2FB6893F83C30012B01D10223E0
:1025700000E2FB68012283F83C20FB681B681B68B3
:1025800003F00103012B07D0FB681B681A68FB6886
:102590001B6842F001021A60FB681B681A68FB683E
:1025A0001B6822F400621A60FB68222283F83D2037
:1025B000FB68402283F83E20FB6800221A64FB6817
:1025C0003A6B5A62FB68BA8E5A85FB685B8D9AB289
:1025D000FB681A85FB685B4ADA62F8883A89798970
:1025E0007B6A0193BB6B00930346F86800F08CFB99
:1025F0000346002B01D00123BCE1FB681B8D002B9F
:1026000013D100233B62FB681B685B693B62FB687C
:102610001B689B693B623B6AFB681B681A68FB6826
:102620001B6842F400721A6090E1FB681B8D012B5D
:102630001BD1FB681B681A68FB681B6822F4806268
:102640001A600023FB61FB681B685B69FB61FB6828
:102650001B689B69FB61FB69FB681B681A68FB6868
:102660001B6842F400721A6070E1FB681B8D022B3C
:102670001BD1FB681B681A68FB681B6822F4806228
:102680001A60FB681B681A68FB681B6842F40062EA
:102690001A600023BB61FB681B685B69BB61FB6858
:1026A0001B689B69BB61BB6950E100237B61FB68D0
:1026B0001B685B697B61FB681B689B697B617B694D
:1026C00044E1FB681B8D032B00F2F180FB681B8D3E
:1026D000012B23D17A6AB96BF86800F0A7FD034695
:1026E000002B01D0012345E1FB681B681A69FB68D8
:1026F0005B6AD2B21A70FB685B6A5A1CFB685A624A
:10270000FB681B8D013B9AB2FB681A85FB685B8DE9
:102710009BB2013B9AB2FB685A8517E1FB681B8D9F
:10272000022B4ED17B6A0093BB6B00220649F868EE
:1027300000F0D2FB0346002B08D001231AE100BFB2
:10274000020010000000FFFF04000100FB681B688E
:102750001A68FB681B6842F400721A60FB681B6809
:102760001A69FB685B6AD2B21A70FB685B6A5A1C12
:10277000FB685A62FB681B8D013B9AB2FB681A85A5
:10278000FB685B8D9BB2013B9AB2FB685A85FB6884
:102790001B681A69FB685B6AD2B21A70FB685B6AD5
:1027A0005A1CFB685A62FB681B8D013B9AB2FB689E
:1027B0001A85FB685B8D9BB2013B9AB2FB685A8518
:1027C000C4E07B6A0093BB6B00226C49F86800F0A0
:1027D00083FB0346002B01D00123CBE0FB681B6881
:1027E0001A68FB681B6822F480621A60FB681B6829
:1027F0001A69FB685B6AD2B21A70FB685B6A5A1C82
:10280000FB685A62FB681B8D013B9AB2FB681A8514
:10281000FB685B8D9BB2013B9AB2FB685A857B6A71
:102820000093BB6B00225549F86800F055FB034646
:10283000002B01D001239DE0FB681B681A68FB6830
:102840001B6842F400721A60FB681B681A69FB6817
:102850005B6AD2B21A70FB685B6A5A1CFB685A62E8
:10286000FB681B8D013B9AB2FB681A85FB685B8D88
:102870009BB2013B9AB2FB685A85FB681B681A69D8
:10288000FB685B6AD2B21A70FB685B6A5A1CFB6811
:102890005A62FB681B8D013B9AB2FB681A85FB6884
:1028A0005B8D9BB2013B9AB2FB685A854EE07A6A17
:1028B000B96BF86800F0BAFC0346002B01D0012385
:1028C00058E0FB681B681A69FB685B6AD2B21A7031
:1028D000FB685B6A5A1CFB685A62FB681B8D013BF4
:1028E0009AB2FB681A85FB685B8D9BB2013B9AB27A
:1028F000FB685A85FB681B685B6903F00403042BC3
:1029000024D1FB681B8D032B07D1FB681B681A6859
:10291000FB681B6822F480621A60FB681B681A69F6
:10292000FB685B6AD2B21A70FB685B6A5A1CFB6870
:102930005A62FB681B8D013B9AB2FB681A85FB68E3
:102940005B8D9BB2013B9AB2FB685A85FB681B8D7D
:10295000002B7FF4B6AEFB68202283F83D20FB6895
:10296000002283F83E20FB68002283F83C200023ED
:1029700000E0022318462837BD4680BD0400010050
:1029800080B58AB002AFF8607A603B600B467B810D
:10299000FFF724F8F8610023BB61FB6893F83D3032
:1029A000DBB2202B40F01181FB6900931923012237
:1029B0008849F86800F090FA0346002B01D0022302
:1029C00004E1FB6893F83C30012B01D10223FDE0C8
:1029D000FB68012283F83C20FB681B681B6803F03E
:1029E0000103012B07D0FB681B681A68FB681B6892
:1029F00042F001021A60FB681B681A68FB681B68DA
:102A000022F400621A60FB68242283F83D20FB68F0
:102A100000221A64FB68704ADA62FB681B681A6855
:102A2000FB681B6842F480721A60FB6900933B6884
:102A300000224FF00111F86800F04EFA0346002B17
:102A40000DD0FB681B681B6803F48073B3F5807FAF
:102A500003D1FB684FF400721A640323B6E07B894C
:102A6000DBB21A46FB681B6802F0FE021A61FEF731
:102A7000B5FFF861FB681B685B6903F00203022B7A
:102A80000CBF01230023DBB2FB75FB681B685B698D
:102A900003F48063B3F5806F0CBF01230023DBB226
:102AA000BB7525E0FEF79AFF0246FB69D31A3A6828
:102AB0009A4202D33B68002B03D1FB68A02283F823
:102AC0003D20FB681B685B6903F00203022B0CBF0F
:102AD00001230023DBB2FB75FB681B685B6903F411
:102AE0008063B3F5806F0CBF01230023DBB2BB759D
:102AF000FB6893F83D30DBB2A02B05D0FB7D002BAB
:102B000002D1BB7D002BCDD0FB68202283F83D2075
:102B1000FB681B685B6903F00203022B29D1FB6889
:102B20001B681A68FB681B6842F400721A60002375
:102B30003B61FB681B685B693B61FB681B689B69C9
:102B40003B613B69FB690093192301222149F86825
:102B500000F0C2F90346002B01D0012336E0FB68E8
:102B6000202283F83D20FB68002283F83C200023CC
:102B70002CE0FB681B681A68FB681B6842F4007253
:102B80001A60FB681B686FF480625A61FB690093EE
:102B9000192301220F49F86800F09EF90346002B23
:102BA00001D0012312E0BB690133BB61BA697B68C4
:102BB0009A42FFF432AFFB68202283F83D20FB6885
:102BC000002283F83C20012300E00223184620372E
:102BD000BD4680BD020010000000FFFF80B588B038
:102BE00002AFF860084611461A4603467B810B4641
:102BF0003B811346FB80FB681B681A68FB681B68F7
:102C000042F480721A607B6A00933B6A00224FF0A4
:102C10000111F86800F060F90346002B0DD0FB6845
:102C20001B681B6803F48073B3F5807F03D1FB68D6
:102C30004FF400721A6403235FE07B89DBB21A460B
:102C4000FB681B6802F0FE021A617B6A3A6A2D4932
:102C5000F86800F0BBF90346002B01D001234CE0DB
:102C600000237B61FB681B685B697B61FB681B68F9
:102C70009B697B617B697A6A396AF86800F046FA79
:102C80000346002B0DD0FB681B6C042B07D1FB689F
:102C90001B681A68FB681B6842F400721A60012303
:102CA0002BE0FB88012B05D13B89DAB2FB681B685E
:102CB0001A6121E03B891B0A9BB2DAB2FB681B68F0
:102CC0001A617A6A396AF86800F020FA0346002B24
:102CD0000DD0FB681B6C042B07D1FB681B681A68BE
:102CE000FB681B6842F400721A60012305E03B890F
:102CF000DAB2FB681B681A61002318461837BD4614
:102D000080BD00BF0200010080B588B002AFF8604E
:102D1000084611461A4603467B810B463B81134603
:102D2000FB80FB681B681A68FB681B6842F48062C2
:102D30001A60FB681B681A68FB681B6842F48072A3
:102D40001A607B6A00933B6A00224FF00111F86819
:102D500000F0C2F80346002B0DD0FB681B681B680F
:102D600003F48073B3F5807F03D1FB684FF40072E6
:102D70001A640323AAE07B89DBB21A46FB681B684E
:102D800002F0FE021A617B6A3A6A5249F86800F062
:102D90001DF90346002B01D0012397E000237B613E
:102DA000FB681B685B697B61FB681B689B697B61D7
:102DB0007B697A6A396AF86800F0A8F90346002B43
:102DC0000DD0FB681B6C042B07D1FB681B681A68CD
:102DD000FB681B6842F400721A60012376E0FB88EE
:102DE000012B05D13B89DAB2FB681B681A6121E02F
:102DF0003B891B0A9BB2DAB2FB681B681A617A6ACC
:102E0000396AF86800F082F90346002B0DD0FB68A0
:102E10001B6C042B07D1FB681B681A68FB681B68D6
:102E200042F400721A60012350E03B89DAB2FB6879
:102E30001B681A617A6A396AF86800F067F9034614
:102E4000002B0DD0FB681B6C042B07D1FB681B68A3
:102E50001A68FB681B6842F400721A60012335E0AF
:102E6000FB681B681A68FB681B6842F480721A6072
:102E70007B6A00933B6A00224FF00111F86800F072
:102E80002BF80346002B0DD0FB681B681B6803F46E
:102E90008073B3F5807F03D1FB684FF400721A642E
:102EA000032313E07B89DBB243F00103DAB2FB6852
:102EB0001B681A617B6A3A6A0649F86800F086F86E
:102EC0000346002B01D0012300E0002318461837E9
:102ED000BD4680BD0200010080B584B000AFF8603F
:102EE000B9603B601346FB7148E03B68B3F1FF3FBC
:102EF00044D0FEF773FD0246BB69D31A3A689A4282
:102F000002D33B68002B39D1BB681B0CDBB2012B11
:102F10000DD1FB681B685B69DA43BB6813409BB249
:102F2000002B0CBF01230023DBB21A460CE0FB6828
:102F30001B689B69DA43BB6813409BB2002B0CBF34
:102F400001230023DBB21A46FB799A4216D1FB68B3
:102F500000221A63FB68202283F83D20FB680022D0
:102F600083F83E20FB681B6C43F02002FB681A6468
:102F7000FB68002283F83C20012323E0BB681B0C84
:102F8000DBB2012B0DD1FB681B685B69DA43BB68C0
:102F900013409BB2002B0CBF01230023DBB21A4667
:102FA0000CE0FB681B689B69DA43BB6813409BB26B
:102FB000002B0CBF01230023DBB21A46FB799A4297
:102FC00093D0002318461037BD4680BD80B584B02D
:102FD00000AFF860B9607A603B6071E0FB681B6825
:102FE0005B6903F48063B3F5806F23D1FB681B68D2
:102FF0001A68FB681B6842F400721A60FB681B6861
:103000006FF480625A61FB6800221A63FB68202219
:1030100083F83D20FB68002283F83E20FB681B6C90
:1030200043F00402FB681A64FB68002283F83C202A
:10303000012367E07B68B3F1FF3F41D0FEF7CEFC90
:1030400002463B68D31A7A689A4202D37B68002B07
:1030500036D1BB681B0CDBB2012B0CD1FB681B68A3
:103060005B69DA43BB6813409BB2002B14BF01239A
:103070000023DBB20BE0FB681B689B69DA43BB688B
:1030800013409BB2002B14BF01230023DBB2002BA3
:1030900016D0FB6800221A63FB68202283F83D20CB
:1030A000FB68002283F83E20FB681B6C43F0200283
:1030B000FB681A64FB68002283F83C20012321E0AE
:1030C000BB681B0CDBB2012B0CD1FB681B685B6976
:1030D000DA43BB6813409BB2002B14BF01230023CB
:1030E000DBB20BE0FB681B689B69DA43BB681340EB
:1030F0009BB2002B14BF01230023DBB2002B7FF413
:103100006DAF002318461037BD4680BD80B584B032
:1031100000AFF860B9607A6034E0F86800F0E3F876
:103120000346002B01D0012334E0BB68B3F1FF3F1D
:1031300028D0FEF753FC02467B68D31ABA689A423D
:1031400002D3BB68002B1DD1FB681B685B6903F0D1
:103150008003802B16D0FB6800221A63FB682022B4
:1031600083F83D20FB68002283F83E20FB681B6C3F
:1031700043F02002FB681A64FB68002283F83C20BD
:10318000012307E0FB681B685B6903F08003802B69
:10319000C3D1002318461037BD4680BD80B584B02A
:1031A00000AFF860B9607A6034E0F86800F09BF82E
:1031B0000346002B01D0012334E0BB68B3F1FF3F8D
:1031C00028D0FEF70BFC02467B68D31ABA689A42F5
:1031D00002D3BB68002B1DD1FB681B685B6903F041
:1031E0000403042B16D0FB6800221A63FB6820221C
:1031F00083F83D20FB68002283F83E20FB681B6CAF
:1032000043F02002FB681A64FB68002283F83C202C
:10321000012307E0FB681B685B6903F00403042BD0
:10322000C3D1002318461037BD4680BD80B584B099
:1032300000AFF860B9607A6049E0FB681B685B69C1
:1032400003F01003102B19D1FB681B686FF01002FC
:103250005A61FB6800221A63FB68202283F83D2034
:10326000FB68002283F83E20FB681A6CFB681A6436
:10327000FB68002283F83C20012330E0FEF7AEFB20
:1032800002467B68D31ABA689A4202D3BB68002B05
:103290001DD1FB681B685B6903F04003402B16D00F
:1032A000FB6800221A63FB68202283F83D20FB683C
:1032B000002283F83E20FB681B6C43F02002FB6871
:1032C0001A64FB68002283F83C20012307E0FB68B6
:1032D0001B685B6903F04003402BAED10023184606
:1032E0001037BD4680BD80B483B000AF78607B6886
:1032F0001B685B6903F48063B3F5806F1BD17B6847
:103300001B686FF480625A617B6800221A637B68D5
:10331000202283F83D207B68002283F83E207B68D2
:103320001B6C43F004027B681A647B68002283F8FC
:103330003C20012300E0002318460C37BD465DF811
:10334000047B704780B584B000AF786039607B68DB
:10335000002B01D10123CCE0684B1B6803F007036D
:103360003A689A420CD9654B3A68D2B21A70634BEC
:103370001B6803F007033A689A4201D00123B8E0C2
:103380007B681B6803F00203002B20D07B681B685E
:1033900003F00403002B05D0594B9B68584A43F4B3
:1033A000E05393607B681B6803F00803002B05D093
:1033B000534B9B68524A43F460439360504B9B6865
:1033C00023F0F0027B689B684D4913438B607B6858
:1033D0001B6803F00103002B44D07B685B68012B62
:1033E00007D1474B1B6803F40033002B19D101238D
:1033F0007FE07B685B68022B03D07B685B68032BF4
:1034000007D13F4B1B6803F00073002B09D1012348
:103410006FE03B4B1B6803F00203002B01D101233B
:1034200067E0374B9B6823F003027B685B68344995
:1034300013438B60FEF7D2FAF8600AE0FEF7CEFA8B
:103440000246FB68D31A41F28832934201D9032322
:103450004FE02B4B9B6803F00C027B685B689B0082
:103460009A42EBD1254B1B6803F007033A689A4256
:103470000CD2224B3A68D2B21A70204B1B6803F070
:1034800007033A689A4201D0012332E07B681B6847
:1034900003F00403002B08D0194B9B6823F4E0527F
:1034A0007B68DB68164913438B607B681B6803F0FD
:1034B0000803002B09D0124B9B6823F460427B6801
:1034C0001B69DB000E4913438B6000F021F80246B4
:1034D0000B4B9B681B0903F00F030A49CB5C22FAD4
:1034E00003F3094A1360094B1B681846FEF732FACA
:1034F000002318461037BD4680BD00BF003C024087
:103500000038024018B70008B0020020B4020020C2
:103510002DE9B04F94B000AF00237B640023FB641F
:1035200000233B640023BB64794B9B6803F00C03CE
:10353000082B0DD0082B00F2E180002B02D0042BC9
:1035400003D0DBE0734BBB64DBE0734BBB64D8E0C0
:103550006F4B5B6803F03F037B646D4B5B6803F468
:103560008003002B63D06A4B5B689B090022BB631E
:10357000FA63BB6BC3F308033B6300237B63D7E9A8
:103580000C4522462B464FF000004FF00001590138
:1035900041EAD261500102460B462146511A396177
:1035A000294663EB01037B614FF000024FF00003FB
:1035B000D7E904AB59468B01514643EA9163514622
:1035C0008A015146B2EB0108594663EB01094FF0FD
:1035D00000024FF000034FEAC90343EA58734FEA71
:1035E000C80290469946234618EB0303BB602B465E
:1035F00049EB0303FB604FF000024FF00003D7E9F3
:10360000024529464B02214643EAD15321464A024C
:10361000104619467B6C0022BB62FA62D7E90A2386
:10362000FDF7F2FA02460B461346FB6458E0384BAE
:103630005B689B09002218461146C0F308033B62F1
:1036400000237B62D7E9088942464B464FF00000D1
:103650004FF00001590141EAD261500102460B4688
:103660004146B2EB010A494663EB010B4FF0000201
:103670004FF000034FEA8B1343EA9A634FEA8A1232
:10368000B2EB0A0463EB0B054FF000024FF00003AE
:10369000EB0043EA5473E20014461D464346E31828
:1036A0003B604B4645EB03037B604FF000024FF05D
:1036B0000003D7E9004529468B02214643EA91538E
:1036C00021468A02104619467B6C0022BB61FA61D2
:1036D000D7E90623FDF798FA02460B461346FB642A
:1036E0000B4B5B681B0C03F0030301335B003B6473
:1036F000FA6C3B6CB2FBF3F3BB6402E0054BBB64BA
:1037000000BFBB6C18465037BD46BDE8B08F00BF48
:10371000003802400024F40000127A0080B400AFA8
:10372000034B1B681846BD465DF8047B704700BF1D
:10373000B002002080B500AFFFF7F0FF0246054B56
:103740009B689B0A03F007030349CB5C22FA03F34F
:10375000184680BD0038024028B7000880B500AF89
:10376000FFF7DCFF0246054B9B685B0B03F007038A
:103770000349CB5C22FA03F3184680BD00380240AF
:1037800028B7000880B586B000AF78607B68002B52
:1037900001D1012373E27B681B6803F00103002B56
:1037A00075D0884B9B6803F00C03042B0CD0854B21
:1037B0009B6803F00C03082B12D1824B5B6803F467
:1037C0008003B3F5800F0BD17E4B1B6803F40033ED
:1037D000002B5BD07B685B68002B57D101234EE246
:1037E0007B685B68B3F5803F06D1764B1B68754AF2
:1037F00043F4803313601DE07B685B68B3F5A02F52
:103800000CD1704B1B686F4A43F4802313606D4BDF
:103810001B686C4A43F4803313600BE0694B1B68F0
:10382000684A23F480331360664B1B68654A23F4AF
:10383000802313607B685B68002B13D0FEF7CEF803
:10384000386108E0FEF7CAF802463B69D31A642BD8
:1038500001D9032313E25B4B1B6803F40033002BF5
:10386000F0D014E0FEF7BAF8386108E0FEF7B6F8D9
:1038700002463B69D31A642B01D90323FFE1514B64
:103880001B6803F40033002BF0D100E000BF7B681D
:103890001B6803F00203002B63D04A4B9B6803F0C4
:1038A0000C03002B0BD0474B9B6803F00C03082B39
:1038B0001CD1444B5B6803F48003002B16D1414BB1
:1038C0001B6803F00203002B05D07B68DB68012B2B
:1038D00001D00123D3E13B4B1B6823F0F8027B6846
:1038E0001B69DB00374913430B603AE07B68DB68F8
:1038F000002B20D0344B01221A60FEF76FF838619C
:1039000008E0FEF76BF802463B69D31A022B01D997
:103910000323B4E12B4B1B6803F00203002BF0D010
:10392000284B1B6823F0F8027B681B69DB002549E4
:1039300013430B6015E0244B00221A60FEF74EF88B
:10394000386108E0FEF74AF802463B69D31A022BB9
:1039500001D9032393E11B4B1B6803F00203002BE7
:10396000F0D17B681B6803F00803002B36D07B681E
:103970005B69002B16D0154B01221A60FEF72EF85A
:10398000386108E0FEF72AF802463B69D31A022B99
:1039900001D9032373E10B4B5B6F03F00203002B90
:1039A000F0D01BE0094B00221A60FEF717F83861CF
:1039B0000EE0FEF713F802463B69D31A022B07D933
:1039C00003235CE10038024000004742800E47427A
:1039D0008A4B5B6F03F00203002BEAD17B681B6804
:1039E00003F00403002B00F097800023FB75834B4A
:1039F0001B6C03F08053002B0FD10023BB607F4B67
:103A00001B6C7E4A43F0805313647C4B1B6C03F0A9
:103A10008053BB60BB680123FB75794B1B6803F4C3
:103A20008073002B18D1764B1B68754A43F4807362
:103A30001360FDF7D3FF386108E0FDF7CFFF0246C2
:103A40003B69D31A022B01D9032318E16C4B1B6885
:103A500003F48073002BF0D07B689B68012B06D1A8
:103A6000664B1B6F654A43F0010313671CE07B68DC
:103A70009B68052B0CD1614B1B6F604A43F004031C
:103A800013675E4B1B6F5D4A43F0010313670BE046
:103A90005A4B1B6F594A23F001031367574B1B6F97
:103AA000564A23F0040313677B689B68002B15D0EC
:103AB000FDF794FF38610AE0FDF790FF02463B698D
:103AC000D31A41F28832934201D90323D7E04B4BFA
:103AD0001B6F03F00203002BEED014E0FDF77EFF16
:103AE00038610AE0FDF77AFF02463B69D31A41F2DA
:103AF0008832934201D90323C1E0404B1B6F03F08E
:103B00000203002BEED1FB7D012B05D13B4B1B6C3F
:103B10003A4A23F0805313647B689B69002B00F0C2
:103B2000AD80364B9B6803F00C03082B60D07B689C
:103B30009B69022B45D1334B00221A60FDF74EFFE3
:103B4000386108E0FDF74AFF02463B69D31A022BB1
:103B500001D9032393E0294B1B6803F00073002B6A
:103B6000F0D17B68DA697B681B6A1A437B685B6A01
:103B70009B011A437B689B6A5B08013B1B041A4349
:103B80007B68DB6A1B061A437B681B6B1B071B49A0
:103B900013434B601B4B01221A60FDF71FFF386176
:103BA00008E0FDF71BFF02463B69D31A022B01D93F
:103BB000032364E0114B1B6803F00073002BF0D06B
:103BC0005CE0104B00221A60FDF708FF386108E046
:103BD000FDF704FF02463B69D31A022B01D90323E8
:103BE0004DE0064B1B6803F00073002BF0D145E05D
:103BF0007B689B69012B07D1012340E0003802401C
:103C000000700040600047421F4B5B68FB607B68B0
:103C10009B69012B30D0FB6803F480027B68DB6971
:103C20009A4229D1FB6803F03F027B681B6A9A42E3
:103C300022D1FA6847F6C07313407A68526A92013B
:103C4000934219D1FB6803F440327B689B6A5B089E
:103C5000013B1B049A420FD1FB6803F070627B6842
:103C6000DB6A1B069A4207D1FB6803F0E0427B68DF
:103C70001B6B1B079A4201D0012300E0002318466A
:103C80001837BD4680BD00BF0038024080B582B005
:103C900000AF78607B68002B01D101237BE07B685B
:103CA0005B6A002B08D17B685B68B3F5827F09D023
:103CB0007B680022DA6105E07B6800221A617B687C
:103CC00000225A617B6800229A627B6893F8513027
:103CD000DBB2002B06D17B68002283F85020786885
:103CE000FDF724FC7B68022283F851207B681B6867
:103CF0001A687B681B6822F040021A607B685B6868
:103D000003F482727B689B6803F404431A437B6864
:103D1000DB6803F400631A437B681B6903F002034A
:103D20001A437B685B6903F001031A437B689B6954
:103D300003F400731A437B68DB6903F038031A430A
:103D40007B681B6A03F0800342EA03017B689B6A7D
:103D500003F400527B681B680A431A607B689B6906
:103D60001B0C03F004017B685B6A03F010027B68A4
:103D70001B680A435A607B681B68DA697B681B68AA
:103D800022F40062DA617B6800225A657B680122B6
:103D900083F85120002318460837BD4680BD80B502
:103DA00088B000AFF860B9603B601346FB80002329
:103DB000FB77FB6893F85030012B01D102232DE1F2
:103DC000FB68012283F85020FDF708FEB861FB88EC
:103DD000FB82FB6893F85130DBB2012B02D0022347
:103DE000FB7716E1BB68002B02D0FB88002B02D1C9
:103DF0000123FB770DE1FB68032283F85120FB6868
:103E000000225A65FB68BA681A63FB68FA889A86CA
:103E1000FB68FA88DA86FB6800229A63FB68002256
:103E20009A87FB680022DA87FB6800225A64FB68E5
:103E300000221A64FB689B68B3F5004F0FD1FB6842
:103E40001B681A68FB681B6822F040021A60FB6856
:103E50001B681A68FB681B6842F480421A60FB68A2
:103E60001B681B6803F04003402B07D0FB681B68EE
:103E70001A68FB681B6842F040021A60FB68DB6846
:103E8000B3F5006F4FD1FB685B68002B02D0FB8A53
:103E9000012B42D1FB681B6B1A88FB681B68DA6038
:103EA000FB681B6B9A1CFB681A63FB68DB8E9BB27A
:103EB000013B9AB2FB68DA862FE0FB681B689B68BF
:103EC00003F00203022B12D1FB681B6B1A88FB68FC
:103ED0001B68DA60FB681B6B9A1CFB681A63FB6843
:103EE000DB8E9BB2013B9AB2FB68DA8615E0FDF7E8
:103EF00075FD0246BB69D31A3A689A4203D83B68FB
:103F0000B3F1FF3F02D13B68002B06D10323FB77BF
:103F1000FB68012283F851207BE0FB68DB8E9BB2BB
:103F2000002BCAD150E0FB685B68002B02D0FB8AF3
:103F3000012B44D1FB681A6BFB681B680C331278A9
:103F40001A70FB681B6B5A1CFB681A63FB68DB8EDC
:103F50009BB2013B9AB2FB68DA8630E0FB681B68D3
:103F60009B6803F00203022B13D1FB681A6BFB68FA
:103F70001B680C3312781A70FB681B6B5A1CFB68A9
:103F80001A63FB68DB8E9BB2013B9AB2FB68DA8650
:103F900015E0FDF723FD0246BB69D31A3A689A4241
:103FA00003D83B68B3F1FF3F02D13B68002B06D139
:103FB0000323FB77FB68012283F8512029E0FB688B
:103FC000DB8E9BB2002BC9D1BA693968F86800F062
:103FD000B1F80346002B02D0FB6820225A65FB682B
:103FE0009B68002B0AD100233B61FB681B68DB68E0
:103FF0003B61FB681B689B683B613B69FB685B6DD1
:10400000002B02D00123FB7703E0FB68012283F839
:104010005120FB68002283F85020FB7F1846203790
:10402000BD4680BD80B588B000AFF860B9603B6028
:104030001346FB71FDF7D2FC0246BB6A9B1A3A6835
:104040001344FB61FDF7CAFCB861394B1B685B0187
:104050001B0DFA6902FB03F37B6154E03B68B3F18B
:10406000FF3F50D0FDF7BAFC0246BB69D31AFA698C
:104070009A4202D9FB69002B3DD1FB681B685A6844
:10408000FB681B6822F0E0025A60FB685B68B3F5CE
:10409000827F11D1FB689B68B3F5004F04D0FB68A9
:1040A0009B68B3F5806F07D1FB681B681A68FB68D3
:1040B0001B6822F040021A60FB689B6AB3F5005F40
:1040C0000FD1FB681B681A68FB681B6822F400525A
:1040D0001A60FB681B681A68FB681B6842F4005290
:1040E0001A60FB68012283F85120FB68002283F8E4
:1040F0005020032317E07B69002B01D10023FB61D3
:104100007B69013B7B61FB681B689A68BB68134055
:10411000BA689A420CBF01230023DBB21A46FB792E
:104120009A429BD1002318462037BD4680BD00BF70
:10413000B002002080B588B002AFF860B9607A6044
:104140007B680093BB6801220221F868FFF76AFFD1
:104150000346002B07D0FB685B6D43F02002FB6831
:104160005A65032332E01B4B1B681B4AA2FB032347
:104170005B0D4FF47A7202FB03F37B61FB685B68B3
:10418000B3F5827F12D17B680093BB680022802147
:10419000F868FFF747FF0346002B16D0FB685B6DFE
:1041A00043F02002FB685A6503230FE07B69002B74
:1041B0000AD07B69013B7B61FB681B689B6803F04D
:1041C0008003802BF2D000E000BF00231846183790
:1041D000BD4680BDB0020020819F5E1680B582B0D2
:1041E00000AF78607B68002B01D101234AE07B6837
:1041F00093F84130DBB2002B06D17B68002283F8B4
:1042000040207868FDF702FA7B68242283F8412079
:104210007B681B68DA687B681B6822F40052DA60EE
:10422000786800F08DFC7B681B681A697B681B68E6
:1042300022F490421A617B681B685A697B681B688C
:1042400022F022025A617B681B685A697B681B68EE
:1042500042F008025A617B681B68DA687B681B6859
:1042600042F40052DA607B6800225A647B682022A4
:1042700083F841207B68202283F842207B6800225B
:104280005A63002318460837BD4680BD80B5BAB0D2
:1042900000AF78607B681B681B68C7F8E4307B68F8
:1042A0001B68DB68C7F8E0307B681B685B69C7F890
:1042B000DC300023C7F8D8300023C7F8D430D7F853
:1042C000E43003F00F03C7F8D830D7F8D830002B0C
:1042D0000FD1D7F8E43003F02003002B09D0D7F832
:1042E000E03003F02003002B03D0786800F069FB76
:1042F0005BE2D7F8D830002B00F0DE80D7F8DC3056
:1043000003F00103002B06D1D7F8E03003F49073DB
:10431000002B00F0D180D7F8E43003F00103002B2C
:104320000BD0D7F8E03003F48073002B05D07B6806
:104330005B6C43F001027B685A64D7F8E43003F009
:104340000403002B0BD0D7F8DC3003F00103002B63
:1043500005D07B685B6C43F002027B685A64D7F837
:10436000E43003F00203002B0BD0D7F8DC3003F06D
:104370000103002B05D07B685B6C43F004027B6873
:104380005A64D7F8E43003F00803002B11D0D7F8B3
:10439000E03003F02003002B05D1D7F8DC3003F028
:1043A0000103002B05D07B685B6C43F008027B683F
:1043B0005A647B685B6C002B00F0F281D7F8E43024
:1043C00003F02003002B08D0D7F8E03003F02003DF
:1043D000002B02D0786800F0F4FA7B681B685B69F8
:1043E00003F04003402B0CBF01230023DBB2C7F8CE
:1043F000D4307B685B6C03F00803002B03D1D7F843
:10440000D430002B4FD0786800F0FCF97B681B6833
:104410005B6903F04003402B41D17B681B68143378
:10442000C7F89C30D7F89C3053E8003FC7F8983065
:10443000D7F8983023F04003C7F8D0307B681B686A
:104440001433D7F8D020C7F8A820C7F8A430D7F87D
:10445000A410D7F8A82041E80023C7F8A030D7F867
:10446000A030002BD9D17B68DB6B002B13D07B688D
:10447000DB6B7E4A1A657B68DB6B1846FDF75FFCD9
:104480000346002B16D07B68DB6B1B6D7A68D26B02
:10449000104698470EE0786800F09EF90AE07868C8
:1044A00000F09AF906E0786800F096F97B6800223F
:1044B0005A6475E100BF73E17B681B6B012B40F010
:1044C0004F81D7F8E43003F01003002B00F048814F
:1044D000D7F8E03003F01003002B00F041810023F7
:1044E000BB607B681B681B68BB607B681B685B6884
:1044F000BB60BB687B681B685B6903F04003402BB3
:1045000040F0B6807B68DB6B1B685B68A7F8BE3049
:10451000B7F8BE30002B00F045817B689B8DB7F863
:10452000BE209A4280F03E817B68B7F8BE20DA85D3
:104530007B68DB6BDB69B3F5807F00F088807B688C
:104540001B680C33C7F88830D7F8883053E8003F31
:10455000C7F88430D7F8843023F48073C7F8B830B4
:104560007B681B680C33D7F8B820C7F89420C7F8CD
:104570009030D7F89010D7F8942041E80023C7F87E
:104580008C30D7F88C30002BD9D17B681B68143362
:104590007B677B6F53E8003F3B673B6F23F0010372
:1045A000C7F8B4307B681B681433D7F8B420C7F859
:1045B0008020FB67F96FD7F8802041E80023BB67B4
:1045C000BB6F002BE1D17B681B6814333B663B6EED
:1045D00053E8003FFB65FB6D23F04003C7F8B030A4
:1045E0007B681B681433D7F8B020FA66BB66B96ED7
:1045F000FA6E41E800237B667B6E002BE3D17B687B
:10460000202283F842207B6800221A637B681B68A3
:104610000C33FB64FB6C53E8003FBB64BB6C23F0C2
:104620001003C7F8AC307B681B680C33D7F8AC209C
:10463000BA657B65796DBA6D41E800233B653B6DDA
:10464000002BE3D17B68DB6B1846FDF708FB7B682A
:1046500002225A637B689A8D7B68DB8D9BB2D31AEA
:104660009BB21946786800F0C1F89BE0CB4800087F
:104670007B689A8D7B68DB8D9BB2D31AA7F8CE300E
:104680007B68DB8D9BB2002B00F08E80B7F8CE30BC
:10469000002B00F089807B681B680C33BB63BB6B0D
:1046A00053E8003F7B637B6B23F49073C7F8C830FB
:1046B0007B681B680C33D7F8C8207A643B64396C7C
:1046C0007A6C41E80023FB63FB6B002BE3D17B6832
:1046D0001B6814337B627B6A53E8003F3B623B6A92
:1046E00023F00103C7F8C4307B681B681433D7F884
:1046F000C4203A63FB62F96A3A6B41E80023BB626B
:10470000BB6A002BE3D17B68202283F842207B68C0
:1047100000221A637B681B680C333B613B6953E8DA
:10472000003FFB60FB6823F01003C7F8C0307B68D4
:104730001B680C33D7F8C020FA61BB61B969FA690C
:1047400041E800237B617B69002BE3D17B68022277
:104750005A63B7F8CE301946786800F047F823E07E
:10476000D7F8E43003F08003002B09D0D7F8E0300D
:1047700003F08003002B03D0786800F0BAF814E04F
:10478000D7F8E43003F04003002B0ED0D7F8E03028
:1047900003F04003002B08D0786800F0FAF804E03A
:1047A00000BF02E000BF00E000BFE837BD4680BDAB
:1047B00080B483B000AF786000BF0C37BD465DF8B1
:1047C000047B704780B483B000AF786000BF0C37C3
:1047D000BD465DF8047B704780B483B000AF78605D
:1047E00000BF0C37BD465DF8047B704780B483B0D2
:1047F00000AF78600B467B8000BF0C37BD465DF88C
:10480000047B704780B495B000AF78607B681B680C
:104810000C337B637B6B53E8003F3B633B6B23F4C0
:104820009073FB647B681B680C33FA6C3A64FB631F
:10483000F96B3A6C41E80023BB63BB6B002BE5D1FD
:104840007B681B6814333B623B6A53E8003FFB61A3
:10485000FB6923F00103BB647B681B681433BA6CEB
:10486000FA62BB62B96AFA6A41E800237B627B6A3A
:10487000002BE5D17B681B6B012B19D17B681B6872
:104880000C33FB60FB6853E8003FBB60BB6823F060
:1048900010037B647B681B680C337A6CBA617B61A4
:1048A0007969BA6941E800233B613B69002BE5D196
:1048B0007B68202283F842207B6800221A6300BFB5
:1048C0005437BD465DF8047B704780B584B000AFB7
:1048D00078607B689B6BFB60FB680022DA85FB6875
:1048E0000022DA84F868FFF777FF00BF1037BD4673
:1048F00080BD80B485B000AF78607B6893F84130AC
:10490000DBB2212B3ED17B689B68B3F5805F14D16D
:104910007B681B69002B10D17B681B6AFB60FB68FE
:104920001B881A467B681B68C2F308025A607B68C2
:104930001B6A9A1C7B681A6208E07B681B6A591C18
:104940007A6811621A787B681B685A607B68DB8C16
:104950009BB2013B9BB27A681946D184002B0FD1E0
:104960007B681B68DA687B681B6822F08002DA606B
:104970007B681B68DA687B681B6842F04002DA607B
:10498000002300E0022318461437BD465DF8047B7F
:10499000704780B582B000AF78607B681B68DA68CA
:1049A0007B681B6822F04002DA607B68202283F873
:1049B00041207868FFF7FCFE002318460837BD4603
:1049C00080BD80B58CB000AF78607B6893F84230D2
:1049D000DBB2222B40F0AE807B689B68B3F5805F32
:1049E00017D17B681B69002B13D10023FB627B6806
:1049F0009B6ABB627B681B685B689BB2C3F308035E
:104A00009AB2BB6A1A807B689B6A9A1C7B689A621E
:104A100026E07B689B6AFB620023BB627B689B6825
:104A2000B3F5805F07D07B689B68002B0AD17B6859
:104A30001B69002B06D17B681B685B68DAB2FB6AD6
:104A40001A7008E07B681B685B68DBB203F07F03C9
:104A5000DAB2FB6A1A707B689B6A5A1C7B689A629E
:104A60007B68DB8D9BB2013B9BB27A681946D1858E
:104A7000002B5DD17B681B68DA687B681B6822F0BD
:104A80002002DA607B681B68DA687B681B6822F4A6
:104A90008072DA607B681B685A697B681B6822F049
:104AA00001025A617B68202283F842207B68002241
:104AB0005A637B681B6B012B35D17B6800221A631C
:104AC0007B681B680C337B617B6953E8003F3B616B
:104AD0003B6923F010037B627B681B680C337A6AA6
:104AE0003A62FB61F9693A6A41E80023BB61BB693C
:104AF000002BE5D17B681B681B6803F01003102BAB
:104B00000AD10023FB607B681B681B68FB607B6825
:104B10001B685B68FB60FB687B689B8D1946786847
:104B2000FFF764FE02E07868FFF74CFE002302E026
:104B3000002300E0022318463037BD4680BD000048
:104B40002DE9B04FC0B000AFC7F8F400D7F8F4308B
:104B50001B681B6923F44050D7F8F430D968D7F8A4
:104B6000F4301A6840EA01031361D7F8F4309A6808
:104B7000D7F8F4301B691A43D7F8F4305B691A434D
:104B8000D7F8F430DB691343C7F8F830D7F8F430BE
:104B90001B68DB6823F4164121F00C01D7F8F430D0
:104BA0001A68D7F8F8300B43D360D7F8F4301B6895
:104BB0005B6923F44070D7F8F4309969D7F8F43082
:104BC0001A6840EA01035361D7F8F4301A688F4B32
:104BD0009A4205D0D7F8F4301A688D4B9A4204D126
:104BE000FEF7BCFDC7F8FC0003E0FEF7A3FDC7F825
:104BF000FC00D7F8F430DB69B3F5004F40F00C81CE
:104C0000D7F8FC300022C7F8E830C7F8EC20D7E925
:104C10003A4522462B469118B9655B41FB65D7E9B9
:104C20001623214612EB0108294643EB01094FF0F8
:104C300000024FF000034FEAC90343EA58734FEAFA
:104C4000C80290469946234618EB0303C7F8E030A4
:104C50002B4649EB0303C7F8E430D7F8F4305B6820
:104C60000022C7F8D830C7F8DC20D7E936120B4647
:104C7000DB183B65134642EB03037B65D7E914233E
:104C8000D7E93801FBF7C0FF02460B46614BA3FB97
:104C900002235B091C01D7F8FC300022C7F8D03092
:104CA000C7F8D420D7E9348942464B469118B964F5
:104CB0005B41FB64D7E91223414612EB010A4946E6
:104CC00043EB010B4FF000024FF000034FEACB0320
:104CD00043EA5A734FEACA0292469B4643461AEB8E
:104CE0000303C7F8C8304B464BEB0303C7F8CC307F
:104CF000D7F8F4305B680022C7F8C030C7F8C4208A
:104D0000D7E930120B46DB183B64134642EB030332
:104D10007B64D7E91023D7E93201FBF775FF024620
:104D20000B4611463B4BA3FB01235B09642202FBAC
:104D300003F3CB1ADB0003F13202364BA3FB022351
:104D40005B095B0003F4F8731C44D7F8FC300022C5
:104D5000C7F8B830C7F8BC20D7E92E8942464B4681
:104D60009118B9635B41FB63D7E90E2341465118A3
:104D7000396349464B417B634FF000024FF000031B
:104D8000D7E90CAB5946CB00514643EA5173514623
:104D9000CA0010461946034642469B18C7F8B03071
:104DA0004B460A4642EB0303C7F8B430D7F8F43059
:104DB0005B680022C7F8A830C7F8AC20D7E92A12F0
:104DC0000B46DB18BB62134642EB0303FB62D7E9D9
:104DD0000A23D7E92C01FBF717FF02460B460D4BC0
:104DE000A3FB02135B09642101FB03F3D31ADB006D
:104DF0003233084AA2FB03235B0903F00702D7F80A
:104E0000F4301B6822449A6006E100BF00100140A4
:104E1000001401401F85EB51D7F8FC300022C7F881
:104E2000A030C7F8A420D7E9288942464B469118FC
:104E300039625B417B62D7E90823414654184946F1
:104E400043EB01054FF000024FF00003EB0043EA93
:104E50005473E20014461D464346E318C7F89830E1
:104E60004B4645EB0303C7F89C30D7F8F4305B683A
:104E70000022C7F89030C7F894204FF000024FF09E
:104E80000003D7E9244529468B00214643EA917364
:104E900021468A00D7E92601FBF7B6FE02460B46FB
:104EA000604BA3FB02235B091C01D7F8FC300022F6
:104EB000C7F88830C7F88C20D7E9228942464B468C
:104EC0009118B9615B41FB61D7E90623414651184E
:104ED000396149464B417B614FF000024FF00003BE
:104EE000D7E904AB5946CB00514643EA51735146CA
:104EF000CA0010461946034642469B18C7F8803040
:104F00004B460A4642EB0303C7F88430D7F8F43027
:104F10005B680022BB67FA674FF000024FF00003A6
:104F2000D7E91E8949468B00414643EA91734146C1
:104F30008A00D7E92001FBF767FE02460B461146BF
:104F4000384BA3FB01235B09642202FB03F3CB1A5A
:104F50001B013233334AA2FB03235B0903F0F00346
:104F60001C44D7F8FC3000223B677A67D7E91C89DC
:104F700042464B469118B9605B41FB60D7E902237A
:104F800041465118396049464B417B604FF0000261
:104F90004FF00003D7E900AB5946CB00514643EA36
:104FA00051735146CA0010461946034642469B18A3
:104FB000BB664B460A4642EB0303FB66D7F8F43068
:104FC0005B6800223B667A664FF000024FF00003F8
:104FD000D7E9188949468B00414643EA9173414617
:104FE0008A00D7E91A01FBF70FFE02460B460D4B6C
:104FF000A3FB02135B09642101FB03F3D31A1B011A
:105000003233084AA2FB03235B0903F00F02D7F8EF
:10501000F4301B6822449A6000BF07F58077BD46D4
:10502000BDE8B08F1F85EB5180B500AF0022102185
:105030000248FDF71BF800BF80BD00BF0000024022
:1050400080B500AF012210210248FDF70FF800BF24
:1050500080BD00BF0000024080B500AF00221021DB
:105060000248FDF703F800BF80BD00BF0008024002
:1050700080B500AF012210210248FCF7F7FF00BF06
:1050800080BD00BF0008024080B500AF0022202193
:105090000248FCF7EBFF00BF80BD00BF00080240E4
:1050A00080B500AF012220210248FCF7DFFF00BFDE
:1050B00080BD00BF0008024080B582B000AF03464B
:1050C000FB71F91D0A2301220348FEF768FE00BFA9
:1050D0000837BD4680BD00BFFC24002080B582B0EB
:1050E00000AF786039603B689AB2642379680348FE
:1050F000FEF755FE00BF0837BD4680BDFC240020EA
:1051000080B582B000AF78607868FCF773FC00BFB0
:105110000837BD4680BD80B582B000AF0346FB7145
:10512000FFF782FFFFF798FFFB791846FFF7C4FFF0
:10513000FFF786FF00BF0837BD4680BD80B582B04F
:1051400000AF0346FB71FFF76FFFFFF791FFFB799D
:105150001846FFF7B1FFFFF773FF00BF0837BD46E2
:1051600080BD80B500AFFFF78FFF0120FFF7C8FFBC
:10517000FFF796FF3220FFF7C3FFFD20FFF7CBFFBD
:105180001220FFF7DBFFAE20FFF7C5FFB320FFF7CC
:10519000C2FF9120FFF7D2FFCA20FFF7BCFF3F20DC
:1051A000FFF7CCFFA220FFF7B6FF0020FFF7C6FFF6
:1051B000A120FFF7B0FF0020FFF7C0FFA020FFF7FE
:1051C000AAFF1420FFF7BAFF1120FFF7B7FFB520A1
:1051D000FFF7A1FF0020FFF7B1FFAB20FFF79BFF18
:1051E0000120FFF7ABFFB420FFF795FFA020FFF7EA
:1051F000A5FFFD20FFF7A2FFC120FFF78CFFFF20D6
:10520000FFF79CFFC720FFF786FF0F20FFF796FFF1
:10521000B920FFF780FFB120FFF77DFFE220FFF705
:105220008DFFD120FFF777FF8220FFF787FF202037
:10523000FFF784FFBB20FFF76EFF1F20FFF77EFF05
:10524000B620FFF768FF0820FFF778FFBE20FFF7C2
:1052500062FF0720FFF772FFA620FFF75CFFA9207F
:10526000FFF759FF0A20FFF74BFFAF20FFF753FF6F
:105270003220FFF745FF00BF80BD90B583B000AF7F
:105280000446084611461A462346FB710346BB7185
:105290000B467B7113463B711520FFF73CFFFB79F2
:1052A0001C33DBB21846FFF749FFBB791C33DBB276
:1052B0001846FFF743FF7520FFF72DFF7B7918464F
:1052C000FFF73CFF3B791846FFF738FF00BF0C376C
:1052D000BD4690BD80B582B000AF786039605C207B
:1052E000FFF719FFFFF7A0FEFFF7C2FE39687868E5
:1052F000FFF7F4FEFFF7A4FE00BF0837BD4680BDF0
:1053000080B483B000AF03460A46FB801346BB80DF
:10531000044ABB88138000BF0C37BD465DF8047B90
:10532000704700BFBA02002080B485B000AF78603B
:105330000B46FB70FB781B015AB297F903301343FD
:105340005BB2FB720E4B1B881A460E4B1B8802FB8E
:1053500003F3DA0F13445B10FB6004E07B685A1C14
:105360007A60FA7A1A70FB685A1EFA60002BF5D13F
:1053700000BF00BF1437BD465DF8047B704700BF17
:10538000BA020020BC02002080B485B000AFF860F3
:10539000084611461A4603467B810B463B8113465D
:1053A000FB71354B1B887A899A425FD2334B1B883D
:1053B0003A899A425AD23B892F4A128803FB02F259
:1053C0007B891344002B03F00103B8BF5B42012B20
:1053D00025D13B89284A128803FB02F27B891344BA
:1053E000DA0F13445B101A46FB6813441B785BB258
:1053F00023F00F035AB297F90730134359B23B8990
:105400001D4A128803FB02F27B891344DA0F13440E
:105410005B101A46FB681344CAB21A7027E03B8936
:10542000154A128803FB02F27B891344DA0F1344F6
:105430005B101A46FB6813441B785BB203F00F0342
:105440005AB2FB791B015BB2134359B23B890A4A3A
:10545000128803FB02F27B891344DA0F13445B10BA
:105460001A46FB681344CAB21A7000E000BF143732
:10547000BD465DF8047B7047BC020020BA020020E4
:1054800080B483B000AF7860044A7B68136000BFCB
:105490000C37BD465DF8047B704700BF5C250020DB
:1054A00080B58AB000AFF860084611461A46034638
:1054B000FB720B463B811346FB80444B1B68002B61
:1054C0007FD0424B1B681B89DBB2FA7AD31AFB727E
:1054D0003E4B1B685A68FB7ADB001344FB613B4B75
:1054E0001B681B68BB61FB691B88FB84FB699B789D
:1054F000FB75FB69DB78BB75FB695B797B75FB69C9
:105500009B793B75002387F82530002387F82430EA
:10551000002387F82330002387F82230002387F800
:10552000233048E0002387F822303AE097F825300E
:105530005A1C87F8252003F00703002B08D1FB8CA9
:105540005A1CFA841A46BB6913441B7887F8243026
:1055500097F92430002B1ADA97F915309AB23B8963
:1055600013449AB297F822309BB2134499B297F938
:1055700014309AB2FB8813449AB297F823309BB246
:1055800013449AB297F83030F868FFF7FDFE97F8A9
:1055900024305B0087F8243097F82230013387F8F5
:1055A000223097F82220FB7D9A42BFD397F8233010
:1055B000013387F8233097F82320BB7D9A42B1D37B
:1055C00000E000BF2837BD4680BD00BF5C2500203D
:1055D00080B586B002AFF860B96011461A460B4636
:1055E000FB801346BB801BE0BB681978B888FA883B
:1055F0003B7E00930346F868FFF752FF0D4B1B6894
:105600005A68BB681B7803F10053203BDB0013444E
:105610001B791A46FB881344FB80BB680133BB60CF
:10562000BB681B78002BDFD100BF00BF1037BD4621
:1056300080BD00BF5C25002080B588B000AFF86059
:10564000B96011461A460B46FB801346BB80002307
:10565000FB830023BB830023FB75BB887B8334E083
:10566000FB883B8328E0BB8BDBB203F00103FB75B7
:10567000FB7D002B0ED1FB8BBA6813441B781B09F2
:10568000DBB27A8B398BF868FFF77EFEBB8B013378
:10569000BB830EE0FB8BBA6813441B787A8B398B83
:1056A000F868FFF771FEBB8B0133BB83FB8B0133C3
:1056B000FB833B8B01333B833A8BF9883B8D0B4457
:1056C0009A42D0DB7B8B01337B837A8BB988BB8D8D
:1056D0000B449A42C4DB00BF00BF2037BD4680BDEB
:1056E00080B582B000AF78600B467B8013463B806C
:1056F0007F2300223F210020FFF7BFFD3B88DB0115
:105700001A467B8813447A6813444FF400511846B4
:10571000FFF7E0FD00BF0837BD4680BD80B483B011
:1057200000AF0346FB710B46BB7113467B71FB79DF
:10573000072B01D8BB7900E07B7918460C37BD46B2
:105740005DF8047B704780B483B000AF0346FB7103
:10575000FB7903F00703DBB218460C37BD465DF852
:10576000047B704780B58AB004AFF8600B467A605E
:10577000FB72FB681868FB689988FB7A9AB24FF055
:10578000FF330293012301937B6800930123FCF70D
:10579000C5FE0346FB75FB7D18461837BD4680BD28
:1057A00080B588B004AF78600B46FB701346BB70C1
:1057B0007B6818687B689988FB789AB24FF0FF3352
:1057C000029301230193BB1C00930123FCF7ACFD62
:1057D0000346FB73FB7B18461037BD4680BD80B582
:1057E00084B000AF7860084611461A460346FB7045
:1057F0000B46BB7013467B703A7E7978FB7818466F
:10580000FFF78CFF0346FB73FB781846FFF79BFFFF
:105810000346BB7307F10D02FB7B19467868FFF75F
:10582000A1FFBB78002B09D0BB7B012202FA03F356
:10583000DAB27B7B1343DBB27B730AE0BB7B0122D2
:1058400002FA03F3DBB2DB43DAB27B7B1340DBB259
:105850007B737A7BFB7B19467868FFF7A1FF0346D1
:1058600018461037BD4680BD80B586B000AFF860E1
:10587000B9601346FB80FB68BA681A60FB885B005E
:105880009AB2FB689A80FB6899884FF4FA731422E5
:10589000B868FDF775F80346BB75BB7D002B01D0DA
:1058A000BB7D1AE060237B750023FB7511E0FB7D57
:1058B0000A33DBB27A7D1946F868FFF771FF0346B9
:1058C000BB75BB7D002B01D0BB7D06E0FB7D0133AA
:1058D000FB75FB7D012BEAD9002318461837BD461E
:1058E00080BD80B584B000AF7860084611461A4686
:1058F0000346FB700B46BB7013467B70BB78002BD6
:1059000002D0BB78012B01D1FF2200E00022FB78FE
:1059100019467868FFF744FF0346FB73FB7B002BB7
:1059200001D0FB7B28E0FB780C33D9B2BB78012B8C
:1059300001D1FF2300E000231A467868FFF730FF0B
:105940000346FB73FB7B002B01D0FB7B14E0FB7851
:105950000233D9B27B78002B01D0FF2300E0002373
:105960001A467868FFF71CFF0346FB73FB7B002B8E
:1059700001D0FB7B00E0002318461037BD4680BDF8
:1059800080B586B002AF7860084611461A460346D5
:10599000FB700B46BB7013467B70BB78002B02D0AC
:1059A000BB78012B01D1012300E00023DAB2F978A2
:1059B0000123009300237868FFF711FF0346FB7370
:1059C000FB7B002B01D0FB7B2AE07B78012B0CBFFB
:1059D00001230023DBB21A46F97803230093022344
:1059E0007868FFF7FCFE0346FB73FB7B002B01D0BE
:1059F000FB7B15E0BB78012B0CBF01230023DBB23E
:105A00001A46F9780D2300930C237868FFF7E7FE18
:105A10000346FB73FB7B002B01D0FB7B00E00023E4
:105A200018461037BD4680BD80B584B000AF7860A1
:105A30000B46FB701346BB70FB781846FFF783FEDE
:105A40000346FB73FB78152214211846FFF766FE08
:105A50000346BB7307F10C02BB7B19467868FFF75E
:105A600081FE03467B737B7B002B01D07B7B26E092
:105A7000BB78002B09D0FB7B012202FA03F3DAB2D8
:105A80003B7B1343DBB23B730AE0FB7B012202FA50
:105A900003F3DBB2DB43DAB23B7B1340DBB23B7395
:105AA000FB78132212211846FFF738FE0346BB731A
:105AB0003A7BBB7B19467868FFF772FE03461846AF
:105AC0001037BD4680BD000080B500AF27221849C1
:105AD0001848FFF7C9FE0023022200211548FFF7EE
