:020000040800F2
:1000000000800020E9160008D9140008E114000857
:10001000E9140008F1140008F914000800000000B9
:1000200000000000000000000000000001150008B2
:100030000F150008000000001D1500082B15000812
:100040003917000839170008391700083917000850
:100050003917000839170008391700083917000840
:100060003917000839170008391700083917000830
:100070003917000839170008391700083917000820
:100080003917000839170008391700080000000068
:100090000000000000000000000000003917000808
:1000A00039170008391700083917000839170008F0
:1000B00000000000000000000000000039170008E8
:1000C00039170008391700083917000839170008D0
:1000D00039170008C1100008391700080000000097
:1000E0003917000839170008000000000000000060
:1000F00000000000000000000000000039170008A8
:100100000000000000000000391700080000000097
:100110000000000000000000391700080000000087
:10012000391700083917000839170008391700086F
:100130003917000800000000000000000000000067
:1001400000000000000000000000000000000000AF
:10015000391700083917000839170008391700083F
:10016000000000000000000000000000000000008F
:10017000000000000000000000000000000000007F
:1001800039170008391700080000000000000000BF
:100190000000000039170008000000000000000007
:1001A000000000000000000000000000000000004F
:1001B00000000000000000000000000039170008E7
:0801C000391700083917000887
:1001D00010B5054C237833B9044B13B10448AFF381
:1001E00000800123237010BDDC010020000000000E
:1001F0009078000808B5034B1BB103490348AFF3DF
:10020000008008BD00000000E00100209078000898
:1002100010F8012B11F8013B012A28BF9A42F7D0B0
:10022000D01A70470000000000000000000000002D
:1002300001F0FF01102A2BDB10F0070F08D010F897
:10024000013B013A8B422DD010F0070F42B3F6D19B
:10025000F0B441EA012141EA014122F007047FF0B4
:1002600000070023F0E80256083C85EA010586EA0B
:10027000010685FA47F5A3FA87F586FA47F6A5FA47
:1002800087F68EB9EED1F0BC01F0FF0102F0070253
:1002900032B110F8013B013A83EA010313B1F8D1FE
:1002A0000020704701387047002D06BF35460338DF
:1002B000073815F0010F07D1013015F4807F02BF18
:1002C000013015F4C03F0130F0BC0138704700BF69
:1002D000034613F8012B002AFBD1181A0138704786
:1002E00081F0004102E000BF83F0004330B54FEAE7
:1002F00041044FEA430594EA050F08BF90EA020F54
:100300001FBF54EA000C55EA020C7FEA645C7FEAE6
:10031000655C00F0E2804FEA5454D4EB5555B8BF09
:100320006D420CDD2C4480EA020281EA030382EA7A
:10033000000083EA010180EA020281EA0303362D0C
:1003400088BF30BD11F0004F4FEA01314FF4801CDF
:100350004CEA113102D0404261EB410113F0004FF1
:100360004FEA03334CEA133302D0524263EB4303A8
:1003700094EA050F00F0A780A4F10104D5F1200E46
:100380000DDB02FA0EFC22FA05F2801841F10001A1
:1003900003FA0EF2801843FA05F359410EE0A5F175
:1003A00020050EF1200E012A03FA0EFC28BF4CF0A6
:1003B000020C43FA05F3C01851EBE37101F000455C
:1003C00007D54FF0000EDCF1000C7EEB00006EEB69
:1003D0000101B1F5801F1BD3B1F5001F0CD34908F3
:1003E0005FEA30004FEA3C0C04F101044FEA44524A
:1003F00012F5800F80F09A80BCF1004F08BF5FEAD1
:10040000500C50F1000041EB045141EA050130BDB0
:100410005FEA4C0C404141EB0101013C28BFB1F5C2
:10042000801FE9D291F0000F04BF01460020B1FA0D
:1004300081F308BF2033A3F10B03B3F120020CDAE0
:100440000C3208DD02F1140CC2F10C0201FA0CF0BE
:1004500021FA02F10CE002F11402D8BFC2F1200C23
:1004600001FA02F120FA0CFCDCBF41EA0C019040D9
:10047000E41AA2BF01EB0451294330BD6FEA040422
:100480001F3C1CDA0C340EDC04F11404C4F120020D
:1004900020FA04F001FA02F340EA030021FA04F31F
:1004A00045EA030130BDC4F10C04C4F1200220FA76
:1004B00002F001FA04F340EA0300294630BD21FAB4
:1004C00004F0294630BD94F0000F83F4801306BF7A
:1004D00081F480110134013D4EE77FEA645C18BF6E
:1004E0007FEA655C29D094EA050F08BF90EA020F05
:1004F00005D054EA000C04BF1946104630BD91EAFD
:10050000030F1EBF0021002030BD5FEA545C05D1FF
:100510004000494128BF41F0004130BD14F580043E
:100520003CBF01F5801130BD01F0004545F0FE41B2
:1005300041F470014FF0000030BD7FEA645C1ABFE7
:10054000194610467FEA655C1CBF0B46024650EA1E
:10055000013406BF52EA033591EA030F41F400214A
:1005600030BD00BF90F0000F04BF0021704730B5D0
:100570004FF4806404F132044FF000054FF00001A5
:1005800050E700BF90F0000F04BF0021704730B566
:100590004FF4806404F1320410F0004548BF40423B
:1005A0004FF000013EE700BF42004FEAE2014FEA90
:1005B00031014FEA02701FBF12F07F4393F07F4F6B
:1005C00081F06051704732F07F4208BF704793F06E
:1005D0007F4F04BF41F40021704730B54FF4607481
:1005E00001F0004521F000411CE700BF50EA010284
:1005F00008BF704730B54FF000050AE050EA01022D
:1006000008BF704730B511F0004502D5404261EB9C
:1006100041014FF4806404F132045FEA915C3FF4DD
:10062000D8AE4FF003025FEADC0C18BF03325FEA7A
:10063000DC0C18BF033202EBDC02C2F1200300FA2B
:1006400003FC20FA02F001FA03FE40EA0E0021FA50
:1006500002F11444BDE600BF70B54FF0FF0C4CF43E
:10066000E06C1CEA11541DBF1CEA135594EA0C0FF0
:1006700095EA0C0F00F0DEF82C4481EA030621EA2B
:100680004C5123EA4C5350EA013518BF52EA033566
:1006900041F4801143F4801338D0A0FB02CE4FF018
:1006A0000005E1FB02E506F00042E0FB03E54FF048
:1006B0000006E1FB03569CF0000F18BF4EF0010E40
:1006C000A4F1FF04B6F5007F64F5407404D25FEA3C
:1006D0004E0E6D4146EB060642EAC62141EA5551EF
:1006E0004FEAC52040EA5E504FEACE2EB4F1FD0C31
:1006F00088BFBCF5E06F1ED8BEF1004F08BF5FEAAF
:10070000500E50F1000041EB045170BD06F0004660
:1007100046EA010140EA020081EA0301B4EB5C040D
:10072000C2BFD4EB0C0541EA045170BD41F4801105
:100730004FF0000E013C00F3AB8014F1360FDEBF2A
:10074000002001F0004170BDC4F10004203C35DA06
:100750000C341BDC04F11404C4F1200500FA05F389
:1007600020FA04F001FA05F240EA020001F000422A
:1007700021F0004110EBD37021FA04F642EB0601A0
:100780005EEA430E08BF20EAD37070BDC4F10C04CA
:10079000C4F1200500FA04F320FA05F001FA04F28E
:1007A00040EA020001F0004110EBD37041F100017A
:1007B0005EEA430E08BF20EAD37070BDC4F1200585
:1007C00000FA05F24EEA020E20FA04F301FA05F2ED
:1007D00043EA020321FA04F001F0004121FA04F295
:1007E00020EA020000EBD3705EEA430E08BF20EA65
:1007F000D37070BD94F0000F0FD101F0004640009F
:1008000041EB010111F4801F08BF013CF7D041EA20
:10081000060195F0000F18BF704703F00046520024
:1008200043EB030313F4801F08BF013DF7D043EAF5
:100830000603704794EA0C0F0CEA135518BF95EAAB
:100840000C0F0CD050EA410618BF52EA4306D1D132
:1008500081EA030101F000414FF0000070BD50EA51
:10086000410606BF1046194652EA430619D094EADB
:100870000C0F02D150EA013613D195EA0C0F05D1C5
:1008800052EA03361CBF104619460AD181EA030119
:1008900001F0004141F0FE4141F470014FF00000D1
:1008A00070BD41F0FE4141F4780170BD70B54FF06C
:1008B000FF0C4CF4E06C1CEA11541DBF1CEA1355EC
:1008C00094EA0C0F95EA0C0F00F0A7F8A4EB0504CE
:1008D00081EA030E52EA03354FEA013100F08880C5
:1008E0004FEA03334FF0805545EA131343EA12638E
:1008F0004FEA022245EA111545EA10654FEA002643
:100900000EF000419D4208BF964244F1FD0404F5FB
:10091000407402D25B084FEA3202B61A65EB030557
:100920005B084FEA32024FF480104FF4002CB6EB14
:10093000020E75EB030E22BFB61A754640EA0C0094
:100940005B084FEA3202B6EB020E75EB030E22BFD4
:10095000B61A754640EA5C005B084FEA3202B6EB15
:10096000020E75EB030E22BFB61A754640EA9C00D4
:100970005B084FEA3202B6EB020E75EB030E22BFA4
:10098000B61A754640EADC0055EA060E18D04FEA62
:10099000051545EA16754FEA06164FEAC30343EA02
:1009A00052734FEAC2025FEA1C1CC0D111F4801FCF
:1009B0000BD141EA00014FF000004FF0004CB6E7C8
:1009C00011F4801F04BF01430020B4F1FD0C88BF67
:1009D000BCF5E06F3FF6AFAEB5EB030C04BFB6EB72
:1009E000020C5FEA500C50F1000041EB045170BD65
:1009F0000EF0004E4EEA113114EB5C04C2BFD4EB92
:100A00000C0541EA045170BD41F480114FF0000E15
:100A1000013C90E645EA060E8DE60CEA135594EA91
:100A20000C0F08BF95EA0C0F3FF43BAF94EA0C0F94
:100A30000AD150EA01347FF434AF95EA0C0F7FF409
:100A400025AF104619462CE795EA0C0F06D152EA5D
:100A500003353FF4FDAE1046194622E750EA410641
:100A600018BF52EA43067FF4C5AE50EA41047FF452
:100A70000DAF52EA43057FF4EBAE12E74FF0FF3CB7
:100A800006E000BF4FF0010C02E000BF4FF0010C88
:100A90004DF804CD4FEA410C7FEA6C5C4FEA430C01
:100AA00018BF7FEA6C5C1BD001B050EA410C0CBF50
:100AB00052EA430C91EA030F02BF90EA020F0020B2
:100AC000704710F1000F91EA030F58BF994208BF19
:100AD00090422CBFD8176FEAE37040F001007047D6
:100AE0004FEA410C7FEA6C5C02D150EA013C07D12D
:100AF0004FEA430C7FEA6C5CD6D152EA033CD3D078
:100B00005DF8040B704700BF8446104662468C4671
:100B10001946634600E000BF01B5FFF7B7FF0028A4
:100B200048BF10F1000F01BD4DF808EDFFF7F4FFCD
:100B30000CBF012000205DF808FB00BF4DF808ED58
:100B4000FFF7EAFF34BF012000205DF808FB00BF7B
:100B50004DF808EDFFF7E0FF94BF012000205DF89D
:100B600008FB00BF4DF808EDFFF7CEFF94BF012052
:100B700000205DF808FB00BF4DF808EDFFF7C4FF4B
:100B800034BF012000205DF808FB00BF4FEA410C94
:100B90007FEA6C5C02D150EA013C0AD14FEA430C77
:100BA0007FEA6C5C02D152EA033C02D14FF00000B4
:100BB00070474FF0010070474FEA410212F50012F2
:100BC00015D211D56FF47873B3EB625212D94FEA94
:100BD000C12343F0004343EA505311F0004F23FA7E
:100BE00002F018BF404270474FF00000704750EAD3
:100BF000013005D111F0004008BF6FF00040704790
:100C00004FF00000704700BF53B94AB9002908BF30
:100C100000281CBF4FF0FF314FF0FF3000F06AB9E1
:100C2000ADF1080C6DE904CE00F006F8DDF804E043
:100C3000DDE9022304B070472DE9F047089D0C461A
:100C4000002B4ED194468C458646B2FA82F262D988
:100C50004AB1C2F12003914020FA03F30CFA02FCDE
:100C6000194300FA02FE4FEA1C471FFA8CF6B1FB4B
:100C7000F7F44FEA1E4307FB141143EA014304FB58
:100C800006F199420AD91CEB030304F1FF3080F00E
:100C90001281994240F20F81023C6344591A1FFAB3
:100CA0008EF3B1FBF7F007FB101143EA014300FBA1
:100CB00006F69E420AD91CEB030300F1FF3180F0D7
:100CC000FC809E4240F2F980634402389B1B40EA5C
:100CD000044000211DB1D3400022C5E90032BDE827
:100CE000F0878B4205D90DB1C5E900010021084606
:100CF000F5E7B3FA83F1002946D1A34202D390422B
:100D0000C0F0F080861A64EB03030120002DE6D0CA
:100D1000C5E90063E3E7002A40F09080A1EB0C04F2
:100D20004FEA1C481FFA8CF70121B4FBF8F64FEA92
:100D30001E4308FB164443EA044307FB06F09842AF
:100D400008D91CEB030306F1FF3402D2984200F2EB
:100D5000CD8026461C1A1FFA8EF3B4FBF8F008FB70
:100D6000104443EA044300FB07F79F4208D91CEBF9
:100D7000030300F1FF3402D29F4200F2B08020460C
:100D8000DB1B40EA0640A5E7C1F120068B4022FAB2
:100D900006F71F4320FA06FC04FA01F343EA0C03AA
:100DA000F44000FA01F8380C4FEA1349B4FBF0FEA6
:100DB0001FFA87FC00FB1E4449EA04440EFB0CF9B1
:100DC000A14502FA01F20AD93C190EF1FF3A80F06E
:100DD0008480A14540F28180AEF1020E3C44A4EB38
:100DE00009041FFA83F9B4FBF0F300FB134449EA4A
:100DF000044403FB0CFCA44507D93C1903F1FF3064
:100E000067D2A44565D9023B3C4443EA0E40A0FBAF
:100E10000293A4EB0C049C42CE469C4651D34ED088
:100E200055B1B8EB0E0364EB0C0404FA06F6CB40A4
:100E30001E43CC40C5E90064002150E7C2F1200305
:100E400020FA03F10CFA02FC24FA03F394400C4359
:100E50004FEA1C4800FA02FE1FFA8CF7B3FBF8F0C9
:100E600008FB1031230C43EA014300FB07F19942D0
:100E700008D91CEB030300F1FF362CD299422AD982
:100E8000023863445B1AA4B2B3FBF8F108FB1133D8
:100E900044EA034401FB07F3A34208D91CEB040412
:100EA00001F1FF3613D2A34211D902396444E41A86
:100EB00041EA004139E70446F0E6084606E7C8453E
:100EC000AED2B9EB020E63EB070C0138A8E731464E
:100ED000EDE7034699E73046D4E7D6467FE763441B
:100EE00002384DE70646234608460FE7023E6344B4
:100EF00030E700BF704700BF80B500AF02F0F5FEDD
:100F000000BF80BD80B500AF40214FF4807002F07B
:100F1000BBFF00BF80BD000080B500AFFFF7F2FF50
:100F20000021094802F0C4FF00220021064803F016
:100F300047F94FF4FA6000F073FC0021024802F018
:100F4000B7FF00BF80BD00BF0402002080B582B0A3
:100F500002AF0F4803F058F80F23009314230A221E
:100F60000C490D4803F0F8F80F2300932D230A22B3
:100F70000A49094803F0F0F800220021064803F06E
:100F80001FF94FF4FA6000F04BFC00BFBD4680BD76
:100F900004820008A878000804020020B87800083D
:100FA00080B582B002AF0F23009314230A220C49AC
:100FB0000C4803F0D1F80F2300932D230A220A498D
:100FC000084803F0C9F800220021064803F0F8F8A9
:100FD0004FF4FA6000F024FC00BFBD4680BD00BFA6
:100FE000CC78000804020020D8780008B0B582B0A0
:100FF00002AF0F23009314230A221749174803F066
:10100000ABF8174B1B681846FFF7CEFA04460D469F
:10101000134B5B681846FFF7C7FA02460B46CDE94B
:10102000002322462B460F490F4804F003FB0F23F1
:101030000093142350220C49084803F08DF8002235
:101040000021064803F0BCF84FF4FA6000F0E8FB1A
:1010500000BFBD46B0BD00BFE87800080402002014
:10106000C0220020F0780008F801002080B500AF11
:10107000114B124A1A60104B4FF4E1325A600E4B7A
:1010800000229A600C4B0022DA600B4B00221A619E
:10109000094B0C225A61084B00229A61064B002230
:1010A000DA61054801F05EFE0346002B01D000F036
:1010B00017F900BF80BD00BF0422002000100140CE
:1010C00080B500AF03F02AF9024801F0A3FE00BF8B
:1010D00080BD00BF0422002080B58AB000AF07F1B8
:1010E000140300221A605A609A60DA601A610023C1
:1010F0003B61304B1B6B2F4A43F0040313632D4BB2
:101100001B6B03F004033B613B690023FB60294B2D
:101110001B6B284A43F080031363264B1B6B03F0C1
:101120008003FB60FB680023BB60224B1B6B214AE2
:1011300043F0010313631F4B1B6B03F00103BB6000
:10114000BB6800237B601B4B1B6B1A4A43F00203F6
:101150001363184B1B6B03F002037B607B68002258
:101160003021154800F098FE00221021134800F0AD
:1011700093FE30237B610123BB610023FB610023CD
:101180003B6207F1140319460B4800F011FD1023D0
:101190007B610123BB610023FB6100233B6207F1FC
:1011A00014031946054800F003FD00BF2837BD466B
:1011B00080BD00BF0038024000080240000002402D
:1011C00080B500AF00F0BAFA00F01EF8FFF784FF18
:1011D00000F08CF8FFF790FEFFF748FFFFF79CFE4A
:1011E000FFF7B4FEFFF798FEFFF7DAFE03F0C8FB47
:1011F00003F084FC4FF47A7000F012FBFFF78CFED2
:10120000FFF7F4FE00BFF3E780B594B000AF07F13D
:101210001C0334220021184604F06FFA07F108037A
:1012200000221A605A609A60DA601A6100237B60BB
:10123000294B1B6C284A43F080531364264B1B6CCC
:1012400003F080537B607B6800233B60234B1B686B
:10125000224A43F440431360204B1B6803F440438D
:101260003B603B680223FB610123BB621023FB62EE
:1012700002237B630023BB631023FB634FF4A8733B
:101280003B6404237B640423BB640223FB6407F1F7
:101290001C03184601F03AF80346002B01D000F079
:1012A0001FF80F23BB600223FB6000233B614FF458
:1012B00080537B610023BB6107F1080302211846BC
:1012C00000F004FE0346002B01D000F009F800BF37
:1012D0005037BD4680BD00BF00380240007000405E
:1012E00080B400AF72B600BF00BFFDE780B500AFAD
:1012F000174B184A1A60164B4FF482725A60144BFF
:1013000000229A60124B0022DA60114B02221A610D
:101310000F4B01225A610E4B4FF400729A610C4B35
:101320001022DA610A4B00221A62094B00225A622B
:10133000074B00229A62064B0F22DA62044801F042
:1013400069FA0346002B01D0FFF7CAFF00BF80BD3A
:101350004C2200200030014080B58AB000AF786098
:1013600007F1140300221A605A609A60DA601A6169
:101370007B681B68194A93422BD100233B61184BB1
:101380005B6C174A43F480535364154B5B6C03F456
:1013900080533B613B690023FB60114B1B6B104A80
:1013A00043F0010313630E4B1B6B03F00103FB605F
:1013B000FB68A0237B610223BB610023FB61032345
:1013C0003B6205237B6207F114031946054800F0D0
:1013D000EFFB00BF2837BD4680BD00BF0030014095
:1013E000003802400000024080B582B000AF002308
:1013F0007B60104B5B6C0F4A43F4804353640D4B8E
:101400005B6C03F480437B607B6800233B60094B8B
:101410001B6C084A43F080531364064B1B6C03F0AB
:1014200080533B603B68072000F0EEFA00BF0837AE
:10143000BD4680BD0038024080B58AB000AF7860FC
:1014400007F1140300221A605A609A60DA601A6188
:101450007B681B681D4A934234D100233B611C4BBF
:101460005B6C1B4A43F010035364194B5B6C03F035
:1014700010033B613B690023FB60154B1B6B144A57
:1014800043F001031363124B1B6B03F00103FB607A
:10149000FB684FF400737B611223BB610023FB6187
:1014A00003233B6207237B6207F1140319460948B3
:1014B00000F07EFB00220021252000F0B0FA25205C
:1014C00000F0C9FA00BF2837BD4680BD00100140BA
:1014D000003802400000024080B400AF00BFFDE7CA
:1014E00080B400AF00BFFDE780B400AF00BFFDE7F0
:1014F00080B400AF00BFFDE780B400AF00BFFDE7E0
:1015000080B400AF00BFBD465DF8047B704780B477
:1015100000AF00BFBD465DF8047B704780B400AFEC
:1015200000BFBD465DF8047B704780B500AF00F09A
:1015300057F900BF80BD80B400AF01231846BD46F7
:101540005DF8047B704780B582B000AF7860396089
:1015500004F026F9034616221A604FF0FF331846AE
:101560000837BD4680BD80B582B000AF78604FF0CF
:10157000FF317868FFF7E7FF00BFFDE780B586B071
:1015800000AFF860B9607A6000237B610AE0AFF3D6
:1015900000800146BB685A1CBA60CAB21A707B69E7
:1015A00001337B617A697B689A42F0DB7B6818467D
:1015B0001837BD4680BD80B586B000AFF860B96011
:1015C0007A6000237B6109E0BB685A1CBA601B7813
:1015D0001846AFF300807B6901337B617A697B68D1
:1015E0009A42F1DB7B6818461837BD4680BD80B44F
:1015F00083B000AF78604FF0FF3318460C37BD461C
:101600005DF8047B704780B483B000AF78603960C8
:101610003B684FF400525A60002318460C37BD4611
:101620005DF8047B704780B483B000AF786001231D
:1016300018460C37BD465DF8047B704780B485B012
:1016400000AFF860B9607A60002318461437BD46D1
:101650005DF8047B7047000080B586B000AF78600D
:10166000144A154BD31A7B617B693B61134B1B6892
:10167000002B02D1114B124A1A60104B1A687B687A
:1016800013443A699A4207D204F08AF803460C22BE
:101690001A604FF0FF3309E0084B1B68FB60074BF3
:1016A0001A687B681344054A1360FB6818461837AC
:1016B000BD4680BD0080002000040000A422002060
:1016C0005824002080B400AF064BD3F88830054A78
:1016D00043F47003C2F8883000BFBD465DF8047B58
:1016E000704700BF00ED00E0DFF834D0FFF7EAFFFD
:1016F0000C480D490D4A002302E0D458C45004336D
:10170000C4188C42F9D30A4A0A4C002301E0136042
:101710000432A242FBD304F049F8FFF751FD7047B1
:101720000080002000000020DC010020B0850008BF
:10173000DC01002058240020FEE7000080B500AF47
:101740000E4B1B680D4A43F4007313600B4B1B6870
:101750000A4A43F480631360084B1B68074A43F44A
:1017600080731360032000F04FF9002000F008F8A8
:10177000FFF73AFE0023184680BD00BF003C024040
:1017800080B582B000AF7860124B1A68124B1B789C
:1017900019464FF47A73B3FBF1F3B2FBF3F3184637
:1017A00000F067F90346002B01D001230EE07B68AF
:1017B0000F2B0AD8002279684FF0FF3000F02FF984
:1017C000064A7B681360002300E0012318460837AF
:1017D000BD4680BD0000002008000020040000205D
:1017E00080B400AF064B1B781A46064B1B681344A7
:1017F000044A136000BFBD465DF8047B704700BF1C
:1018000008000020A822002080B400AF034B1B6812
:101810001846BD465DF8047B704700BFA822002033
:1018200080B584B000AF7860FFF7EEFFB8607B68EA
:10183000FB60FB68B3F1FF3F05D00A4B1B781A46EB
:10184000FB681344FB6000BFFFF7DEFF0246BB6886
:10185000D31AFA689A42F7D800BF00BF1037BD46C6
:1018600080BD00BF0800002080B485B000AF786064
:101870007B6803F00703FB600C4BDB68BB60BA6856
:101880004FF6FF031340BB60FB681A02BB681343AB
:1018900043F0BF6343F40033BB60044ABB68D360CA
:1018A00000BF1437BD465DF8047B704700ED00E0D3
:1018B00080B400AF044BDB681B0A03F00703184633
:1018C000BD465DF8047B704700ED00E080B483B056
:1018D00000AF0346FB7197F90730002B0BDBFB7958
:1018E00003F01F02074997F907305B09012000FA4E
:1018F00002F241F8232000BF0C37BD465DF8047B9F
:10190000704700BF00E100E080B483B000AF034641
:101910003960FB7197F90730002B0ADB3B68DAB2BC
:101920000C4997F907301201D2B20B4483F8002317
:101930000AE03B68DAB20849FB7903F00F03043B85
:101940001201D2B20B441A7600BF0C37BD465DF8C7
:10195000047B704700E100E000ED00E080B489B056
:1019600000AFF860B9607A60FB6803F00703FB61C1
:10197000FB69C3F10703042B28BF0423BB61FB6988
:101980000433062B02D9FB69033B00E000237B6193
:101990004FF0FF32BB6902FA03F3DA43BB681A4027
:1019A0007B699A404FF0FF317B6901FA03F3D94319
:1019B0007B680B40134318462437BD465DF8047B13
:1019C0007047000080B582B000AF78607B68013B53
:1019D000B3F1807F01D301230FE00A4A7B68013B0A
:1019E00053600F214FF0FF30FFF78EFF054B0022B1
:1019F0009A60044B07221A60002318460837BD4638
:101A000080BD00BF10E000E080B582B000AF78601C
:101A10007868FFF729FF00BF0837BD4680BD80B555
:101A200086B000AF0346B9607A60FB7300237B6128
:101A3000FFF73EFF78617A68B9687869FFF78EFF33
:101A4000024697F90F3011461846FFF75DFF00BFB9
:101A50001837BD4680BD80B582B000AF0346FB712C
:101A600097F907301846FFF731FF00BF0837BD462A
:101A700080BD80B582B000AF78607868FFF7A2FFC4
:101A8000034618460837BD4680BD80B584B000AF18
:101A900078607B689B6DFB60FFF7B6FEB8607B6883
:101AA00093F83530DBB2022B08D07B6880225A6570
:101AB0007B68002283F83420012352E07B681B6896
:101AC0001A687B681B6822F016021A607B681B6824
:101AD0005A697B681B6822F080025A617B681B6C24
:101AE000002B03D17B689B6C002B07D07B681B68A5
:101AF0001A687B681B6822F008021A607B681B6802
:101B00001A687B681B6822F001021A6013E0FFF775
:101B10007BFE0246BB68D31A052B0CD97B682022BA
:101B20005A657B68032283F835207B68002283F89E
:101B30003420032315E07B681B681B6803F0010356
:101B4000002BE4D17B68DB6D3F229A40FB689A60F2
:101B50007B68012283F835207B68002283F83420DB
:101B6000002318461037BD4680BD80B483B000AF57
:101B700078607B6893F83530DBB2022B04D07B6849
:101B800080225A6501230CE07B68052283F835200A
:101B90007B681B681A687B681B6822F001021A6068
:101BA000002318460C37BD465DF8047B70470000E3
:101BB00080B489B000AF7860396000237B61002376
:101BC0003B610023BB610023FB614DE10122FB6906
:101BD00002FA03F37B613B681B687A6913403B613F
:101BE0003A697B699A4240F03C813B685B6803F04C
:101BF0000303012B05D03B685B6803F00303022B52
:101C000030D17B689B68BB61FB695B00032202FAF1
:101C100003F3DB43BA691340BB613B68DA68FB69D5
:101C20005B0002FA03F3BA691343BB617B68BA69CC
:101C30009A607B685B68BB610122FB6902FA03F36F
:101C4000DB43BA691340BB613B685B681B0903F067
:101C50000102FB6902FA03F3BA691343BB617B68B3
:101C6000BA695A603B685B6803F00303032B17D023
:101C70007B68DB68BB61FB695B00032202FA03F34C
:101C8000DB43BA691340BB613B689A68FB695B0040
:101C900002FA03F3BA691343BB617B68BA69DA607D
:101CA0003B685B6803F00303022B23D1FB69DA086E
:101CB0007B68083253F82230BB61FB6903F00703ED
:101CC0009B000F2202FA03F3DB43BA691340BB61A6
:101CD0003B681A69FB6903F007039B0002FA03F3F0
:101CE000BA691343BB61FB69DA087B680832B969DA
:101CF00043F822107B681B68BB61FB695B00032211
:101D000002FA03F3DB43BA691340BB613B685B68CB
:101D100003F00302FB695B0002FA03F3BA691343A1
:101D2000BB617B68BA691A603B685B6803F4403347
:101D3000002B00F096800023FB60514B5B6C504AF7
:101D400043F4804353644E4B5B6C03F48043FB606D
:101D5000FB684C4AFB699B08023352F82330BB6195
:101D6000FB6903F003039B000F2202FA03F3DB433A
:101D7000BA691340BB617B68434A93420DD07B68CC
:101D8000424A934207D07B68414A934201D10223E1
:101D900004E0072302E0012300E00023FA6902F0D7
:101DA000030292009340BA691343BB613549FB6952
:101DB0009B080233BA6941F82320364B9B68BB610C
:101DC0003B69DB43BA691340BB613B685B6803F462
:101DD0008013002B03D0BA693B691343BB612D4AC2
:101DE000BB6993602B4BDB68BB613B69DB43BA6922
:101DF0001340BB613B685B6803F40013002B03D006
:101E0000BA693B691343BB61224ABB69D360214B6A
:101E10005B68BB613B69DB43BA691340BB613B68EC
:101E20005B6803F40033002B03D0BA693B691343AA
:101E3000BB61184ABB695360164B1B68BB613B69A9
:101E4000DB43BA691340BB613B685B6803F48033D2
:101E5000002B03D0BA693B691343BB610D4ABB69D0
:101E60001360FB690133FB61FB690F2B7FF6AEAE9C
:101E700000BF00BF2437BD465DF8047B704700BF3C
:101E800000380240003801400000024000040240D7
:101E900000080240003C014080B483B000AF78608D
:101EA0000B467B8013467B707B78002B03D07A88AF
:101EB0007B689A6103E07B881A047B689A6100BFA3
:101EC0000C37BD465DF8047B7047000080B584B0D8
:101ED00000AF786039607B68002B01D10123CCE032
:101EE000684B1B6803F007033A689A420CD9654BAC
:101EF0003A68D2B21A70634B1B6803F007033A6862
:101F00009A4201D00123B8E07B681B6803F002030A
:101F1000002B20D07B681B6803F00403002B05D046
:101F2000594B9B68584A43F4E05393607B681B68A5
:101F300003F00803002B05D0534B9B68524A43F42F
:101F400060439360504B9B6823F0F0027B689B6872
:101F50004D4913438B607B681B6803F00103002B22
:101F600044D07B685B68012B07D1474B1B6803F4A7
:101F70000033002B19D101237FE07B685B68022BC3
:101F800003D07B685B68032B07D13F4B1B6803F0D2
:101F90000073002B09D101236FE03B4B1B6803F05A
:101FA0000203002B01D1012367E0374B9B6823F02C
:101FB00003027B685B68344913438B60FFF724FCA2
:101FC000F8600AE0FFF720FC0246FB68D31A41F2F2
:101FD0008832934201D903234FE02B4B9B6803F0D7
:101FE0000C027B685B689B009A42EBD1254B1B6817
:101FF00003F007033A689A420CD2224B3A68D2B2F5
:102000001A70204B1B6803F007033A689A4201D00C
:10201000012332E07B681B6803F00403002B08D027
:10202000194B9B6823F4E0527B68DB681649134325
:102030008B607B681B6803F00803002B09D0124BF0
:102040009B6823F460427B681B69DB000E491343E5
:102050008B6000F021F802460B4B9B681B0903F0D4
:102060000F030A49CB5C22FA03F3094A1360094BB8
:102070001B681846FFF784FB002318461037BD463F
:1020800080BD00BF003C02400038024014820008BE
:1020900000000020040000202DE9B04F94B000AFF4
:1020A00000237B640023FB6400233B640023BB64A8
:1020B000794B9B6803F00C03082B0DD0082B00F222
:1020C000E180002B02D0042B03D0DBE0734BBB6418
:1020D000DBE0734BBB64D8E06F4B5B6803F03F03FE
:1020E0007B646D4B5B6803F48003002B63D06A4B09
:1020F0005B689B090022BB63FA63BB6BC3F30803F5
:102100003B6300237B63D7E90C4522462B464FF007
:1021100000004FF00001590141EAD261500102462E
:102120000B462146511A3961294663EB01037B6155
:102130004FF000024FF00003D7E904AB59468B0182
:10214000514643EA916351468A015146B2EB010878
:10215000594663EB01094FF000024FF000034FEACC
:10216000C90343EA58734FEAC8029046994623468A
:1021700018EB0303BB602B4649EB0303FB604FF0F6
:1021800000024FF00003D7E9024529464B022146E1
:1021900043EAD15321464A02104619467B6C00227D
:1021A000BB62FA62D7E90A23FEF72EFD02460B4610
:1021B0001346FB6458E0384B5B689B0900221846C5
:1021C0001146C0F308033B6200237B62D7E908890C
:1021D00042464B464FF000004FF00001590141EAE2
:1021E000D261500102460B464146B2EB010A494614
:1021F00063EB010B4FF000024FF000034FEA8B132B
:1022000043EA9A634FEA8A12B2EB0A0463EB0B05C6
:102210004FF000024FF00003EB0043EA5473E2007A
:1022200014461D464346E3183B604B4645EB03030B
:102230007B604FF000024FF00003D7E900452946CC
:102240008B02214643EA915321468A0210461946E1
:102250007B6C0022BB61FA61D7E90623FEF7D4FC50
:1022600002460B461346FB640B4B5B681B0C03F0EA
:10227000030301335B003B64FA6C3B6CB2FBF3F38A
:10228000BB6402E0054BBB6400BFBB6C1846503713
:10229000BD46BDE8B08F00BF003802400024F40006
:1022A00000127A0080B400AF034B1B681846BD468D
:1022B0005DF8047B704700BF0000002080B500AFD0
:1022C000FFF7F0FF0246054B9B689B0A03F00703EC
:1022D0000349CB5C22FA03F3184680BD0038024064
:1022E0002482000880B500AFFFF7DCFF0246054BF3
:1022F0009B685B0B03F007030349CB5C22FA03F3F3
:10230000184680BD003802402482000880B586B09F
:1023100000AF78607B68002B01D1012373E27B68FA
:102320001B6803F00103002B75D0884B9B6803F0FA
:102330000C03042B0CD0854B9B6803F00C03082B7B
:1023400012D1824B5B6803F48003B3F5800F0BD18D
:102350007E4B1B6803F40033002B5BD07B685B680B
:10236000002B57D101234EE27B685B68B3F5803FB9
:1023700006D1764B1B68754A43F4803313601DE029
:102380007B685B68B3F5A02F0CD1704B1B686F4A5C
:1023900043F4802313606D4B1B686C4A43F4803315
:1023A00013600BE0694B1B68684A23F480331360A9
:1023B000664B1B68654A23F4802313607B685B6867
:1023C000002B13D0FFF720FA386108E0FFF71CFA62
:1023D00002463B69D31A642B01D9032313E25B4BFA
:1023E0001B6803F40033002BF0D014E0FFF70CFA65
:1023F000386108E0FFF708FA02463B69D31A642BFC
:1024000001D90323FFE1514B1B6803F40033002B78
:10241000F0D100E000BF7B681B6803F00203002BD3
:1024200063D04A4B9B6803F00C03002B0BD0474B47
:102430009B6803F00C03082B1CD1444B5B6803F42E
:102440008003002B16D1414B1B6803F00203002BC5
:1024500005D07B68DB68012B01D00123D3E13B4B26
:102460001B6823F0F8027B681B69DB0037491343C4
:102470000B603AE07B68DB68002B20D0344B0122F4
:102480001A60FFF7C1F9386108E0FFF7BDF90246AD
:102490003B69D31A022B01D90323B4E12B4B1B68F0
:1024A00003F00203002BF0D0284B1B6823F0F80246
:1024B0007B681B69DB00254913430B6015E0244B47
:1024C00000221A60FFF7A0F9386108E0FFF79CF9D5
:1024D00002463B69D31A022B01D9032393E11B4B1C
:1024E0001B6803F00203002BF0D17B681B6803F02C
:1024F0000803002B36D07B685B69002B16D0154B88
:1025000001221A60FFF780F9386108E0FFF77CF9D3
:1025100002463B69D31A022B01D9032373E10B4B0B
:102520005B6F03F00203002BF0D01BE0094B00228D
:102530001A60FFF769F938610EE0FFF765F90246A6
:102540003B69D31A022B07D903235CE10038024010
:1025500000004742800E47428A4B5B6F03F0020344
:10256000002BEAD17B681B6803F00403002B00F00A
:1025700097800023FB75834B1B6C03F08053002B6B
:102580000FD10023BB607F4B1B6C7E4A43F080530E
:1025900013647C4B1B6C03F08053BB60BB6801234E
:1025A000FB75794B1B6803F48073002B18D1764BB5
:1025B0001B68754A43F480731360FFF725F938618F
:1025C00008E0FFF721F902463B69D31A022B01D933
:1025D000032318E16C4B1B6803F48073002BF0D0CD
:1025E0007B689B68012B06D1664B1B6F654A43F0E5
:1025F000010313671CE07B689B68052B0CD1614BC2
:102600001B6F604A43F0040313675E4B1B6F5D4A08
:1026100043F0010313670BE05A4B1B6F594A23F039
:1026200001031367574B1B6F564A23F004031367CC
:102630007B689B68002B15D0FFF7E6F838610AE04D
:10264000FFF7E2F802463B69D31A41F2883293421F
:1026500001D90323D7E04B4B1B6F03F00203002B80
:10266000EED014E0FFF7D0F838610AE0FFF7CCF8BD
:1026700002463B69D31A41F28832934201D90323BF
:10268000C1E0404B1B6F03F00203002BEED1FB7D3A
:10269000012B05D13B4B1B6C3A4A23F0805313644A
:1026A0007B689B69002B00F0AD80364B9B6803F084
:1026B0000C03082B60D07B689B69022B45D1334B00
:1026C00000221A60FFF7A0F8386108E0FFF79CF8D5
:1026D00002463B69D31A022B01D9032393E0294B0D
:1026E0001B6803F00073002BF0D17B68DA697B680C
:1026F0001B6A1A437B685B6A9B011A437B689B6A6F
:102700005B08013B1B041A437B68DB6A1B061A4308
:102710007B681B6B1B071B4913434B601B4B012240
:102720001A60FFF771F8386108E0FFF76DF80246AC
:102730003B69D31A022B01D9032364E0114B1B68B8
:1027400003F00073002BF0D05CE0104B00221A6005
:10275000FFF75AF8386108E0FFF756F802463B6980
:10276000D31A022B01D903234DE0064B1B6803F05B
:102770000073002BF0D145E07B689B69012B07D1EA
:10278000012340E0003802400070004060004742F2
:102790001F4B5B68FB607B689B69012B30D0FB683B
:1027A00003F480027B68DB699A4229D1FB6803F05D
:1027B0003F027B681B6A9A4222D1FA6847F6C073CF
:1027C00013407A68526A9201934219D1FB6803F46C
:1027D00040327B689B6A5B08013B1B049A420FD125
:1027E000FB6803F070627B68DB6A1B069A4207D1C4
:1027F000FB6803F0E0427B681B6B1B079A4201D029
:10280000012300E0002318461837BD4680BD00BFF5
:102810000038024080B582B000AF78607B68002B42
:1028200001D101237BE07B685B6A002B08D17B68C8
:102830005B68B3F5827F09D07B680022DA6105E02E
:102840007B6800221A617B6800225A617B68002243
:102850009A627B6893F85130DBB2002B06D17B681B
:10286000002283F850207868FEF776FD7B6802220C
:1028700083F851207B681B681A687B681B6822F00C
:1028800040021A607B685B6803F482727B689B6815
:1028900003F404431A437B68DB6803F400631A43C0
:1028A0007B681B6903F002031A437B685B6903F0D2
:1028B00001031A437B689B6903F400731A437B6826
:1028C000DB6903F038031A437B681B6A03F080035B
:1028D00042EA03017B689B6A03F400527B681B6831
:1028E0000A431A607B689B691B0C03F004017B6838
:1028F0005B6A03F010027B681B680A435A607B68BE
:102900001B68DA697B681B6822F40062DA617B6805
:1029100000225A657B68012283F851200023184663
:102920000837BD4680BD80B588B000AFF860B9609B
:102930003B601346FB800023FB77FB6893F8503025
:10294000012B01D102232DE1FB68012283F85020E5
:10295000FEF75AFFB861FB88FB82FB6893F85130A1
:10296000DBB2012B02D00223FB7716E1BB68002B00
:1029700002D0FB88002B02D10123FB770DE1FB681D
:10298000032283F85120FB6800225A65FB68BA686D
:102990001A63FB68FA889A86FB68FA88DA86FB680D
:1029A00000229A63FB6800229A87FB680022DA877C
:1029B000FB6800225A64FB6800221A64FB689B686B
:1029C000B3F5004F0FD1FB681B681A68FB681B68E2
:1029D00022F040021A60FB681B681A68FB681B68DB
:1029E00042F480421A60FB681B681B6803F04003D6
:1029F000402B07D0FB681B681A68FB681B6842F015
:102A000040021A60FB68DB68B3F5006F4FD1FB68CA
:102A10005B68002B02D0FB8A012B42D1FB681B6B49
:102A20001A88FB681B68DA60FB681B6B9A1CFB68E2
:102A30001A63FB68DB8E9BB2013B9AB2FB68DA86B5
:102A40002FE0FB681B689B6803F00203022B12D186
:102A5000FB681B6B1A88FB681B68DA60FB681B6BE2
:102A60009A1CFB681A63FB68DB8E9BB2013B9AB22F
:102A7000FB68DA8615E0FEF7C7FE0246BB69D31A8B
:102A80003A689A4203D83B68B3F1FF3F02D13B68F2
:102A9000002B06D10323FB77FB68012283F851202A
:102AA0007BE0FB68DB8E9BB2002BCAD150E0FB6859
:102AB0005B68002B02D0FB8A012B44D1FB681A6BA8
:102AC000FB681B680C3312781A70FB681B6B5A1C6E
:102AD000FB681A63FB68DB8E9BB2013B9AB2FB6812
:102AE000DA8630E0FB681B689B6803F00203022B68
:102AF00013D1FB681A6BFB681B680C3312781A70D1
:102B0000FB681B6B5A1CFB681A63FB68DB8E9BB26D
:102B1000013B9AB2FB68DA8615E0FEF775FE0246C5
:102B2000BB69D31A3A689A4203D83B68B3F1FF3FB6
:102B300002D13B68002B06D10323FB77FB680122FF
:102B400083F8512029E0FB68DB8E9BB2002BC9D1B2
:102B5000BA693968F86800F0B1F80346002B02D072
:102B6000FB6820225A65FB689B68002B0AD1002372
:102B70003B61FB681B68DB683B61FB681B689B680B
:102B80003B613B69FB685B6D002B02D00123FB7747
:102B900003E0FB68012283F85120FB68002283F8E0
:102BA0005020FB7F18462037BD4680BD80B588B0D9
:102BB00000AFF860B9603B601346FB71FEF724FE7E
:102BC0000246BB6A9B1A3A681344FB61FEF71CFE7F
:102BD000B861394B1B685B011B0DFA6902FB03F3FB
:102BE0007B6154E03B68B3F1FF3F50D0FEF70CFE31
:102BF0000246BB69D31AFA699A4202D9FB69002BD3
:102C00003DD1FB681B685A68FB681B6822F0E00234
:102C10005A60FB685B68B3F5827F11D1FB689B68E3
:102C2000B3F5004F04D0FB689B68B3F5806F07D104
:102C3000FB681B681A68FB681B6822F040021A6078
:102C4000FB689B6AB3F5005F0FD1FB681B681A68CD
:102C5000FB681B6822F400521A60FB681B681A6844
:102C6000FB681B6842F400521A60FB68012283F87B
:102C70005120FB68002283F85020032317E07B6972
:102C8000002B01D10023FB617B69013B7B61FB6869
:102C90001B689A68BB681340BA689A420CBF01234C
:102CA0000023DBB21A46FB799A429BD100231846D7
:102CB0002037BD4680BD00BF0000002080B588B031
:102CC00002AFF860B9607A607B680093BB6801224C
:102CD0000221F868FFF76AFF0346002B07D0FB6864
:102CE0005B6D43F02002FB685A65032332E01B4B07
:102CF0001B681B4AA2FB03235B0D4FF47A7202FB95
:102D000003F37B61FB685B68B3F5827F12D17B685C
:102D10000093BB6800228021F868FFF747FF034655
:102D2000002B16D0FB685B6D43F02002FB685A65F0
:102D300003230FE07B69002B0AD07B69013B7B6199
:102D4000FB681B689B6803F08003802BF2D000E0D7
:102D500000BF002318461837BD4680BD0000002084
:102D6000819F5E1680B582B000AF78607B68002BD3
:102D700001D101234AE07B6893F84130DBB2002B9C
:102D800006D17B68002283F840207868FEF754FB68
:102D90007B68242283F841207B681B68DA687B68A3
:102DA0001B6822F40052DA60786800F08DFC7B68C2
:102DB0001B681A697B681B6822F490421A617B6861
:102DC0001B685A697B681B6822F022025A617B6883
:102DD0001B685A697B681B6842F008025A617B686D
:102DE0001B68DA687B681B6842F40052DA607B6813
:102DF00000225A647B68202283F841207B682022CD
:102E000083F842207B6800225A6300231846083763
:102E1000BD4680BD80B5BAB000AF78607B681B68E6
:102E20001B68C7F8E4307B681B68DB68C7F8E030D4
:102E30007B681B685B69C7F8DC300023C7F8D830B3
:102E40000023C7F8D430D7F8E43003F00F03C7F8F5
:102E5000D830D7F8D830002B0FD1D7F8E43003F0B2
:102E60002003002B09D0D7F8E03003F02003002B1B
:102E700003D0786800F069FB5BE2D7F8D830002B0C
:102E800000F0DE80D7F8DC3003F00103002B06D120
:102E9000D7F8E03003F49073002B00F0D180D7F81E
:102EA000E43003F00103002B0BD0D7F8E03003F43B
:102EB0008073002B05D07B685B6C43F001027B685C
:102EC0005A64D7F8E43003F00403002B0BD0D7F892
:102ED000DC3003F00103002B05D07B685B6C43F012
:102EE00002027B685A64D7F8E43003F00203002B37
:102EF0000BD0D7F8DC3003F00103002B05D07B6842
:102F00005B6C43F004027B685A64D7F8E43003F04A
:102F10000803002B11D0D7F8E03003F02003002B7A
:102F200005D1D7F8DC3003F00103002B05D07B6816
:102F30005B6C43F008027B685A647B685B6C002B17
:102F400000F0F281D7F8E43003F02003002B08D022
:102F5000D7F8E03003F02003002B02D0786800F0AF
:102F6000F4FA7B681B685B6903F04003402B0CBFDD
:102F700001230023DBB2C7F8D4307B685B6C03F01D
:102F80000803002B03D1D7F8D430002B4FD078683A
:102F900000F0FCF97B681B685B6903F04003402B81
:102FA00041D17B681B681433C7F89C30D7F89C303C
:102FB00053E8003FC7F89830D7F8983023F0400323
:102FC000C7F8D0307B681B681433D7F8D020C7F817
:102FD000A820C7F8A430D7F8A410D7F8A82041E853
:102FE0000023C7F8A030D7F8A030002BD9D17B68D8
:102FF000DB6B002B13D07B68DB6B7E4A1A657B682A
:10300000DB6B1846FEF7B1FD0346002B16D07B683C
:10301000DB6B1B6D7A68D26B104698470EE07868C0
:1030200000F09EF90AE0786800F09AF906E0786806
:1030300000F096F97B6800225A6475E100BF73E1E5
:103040007B681B6B012B40F04F81D7F8E43003F015
:103050001003002B00F04881D7F8E03003F0100394
:10306000002B00F041810023BB607B681B681B685C
:10307000BB607B681B685B68BB60BB687B681B6868
:103080005B6903F04003402B40F0B6807B68DB6B4C
:103090001B685B68A7F8BE30B7F8BE30002B00F0A5
:1030A00045817B689B8DB7F8BE209A4280F03E81B7
:1030B0007B68B7F8BE20DA857B68DB6BDB69B3F52C
:1030C000807F00F088807B681B680C33C7F88830ED
:1030D000D7F8883053E8003FC7F88430D7F88430F9
:1030E00023F48073C7F8B8307B681B680C33D7F8BB
:1030F000B820C7F89420C7F89030D7F89010D7F8C8
:10310000942041E80023C7F88C30D7F88C30002B8E
:10311000D9D17B681B6814337B677B6F53E8003F12
:103120003B673B6F23F00103C7F8B4307B681B6833
:103130001433D7F8B420C7F88020FB67F96FD7F8AD
:10314000802041E80023BB67BB6F002BE1D17B6887
:103150001B6814333B663B6E53E8003FFB65FB6D19
:1031600023F04003C7F8B0307B681B681433D7F8EE
:10317000B020FA66BB66B96EFA6E41E800237B6642
:103180007B6E002BE3D17B68202283F842207B6892
:1031900000221A637B681B680C33FB64FB6C53E8EA
:1031A000003FBB64BB6C23F01003C7F8AC307B68F6
:1031B0001B680C33D7F8AC20BA657B65796DBA6DA6
:1031C00041E800233B653B6D002BE3D17B68DB6B63
:1031D0001846FEF75AFC7B6802225A637B689A8D78
:1031E0007B68DB8D9BB2D31A9BB21946786800F0DE
:1031F000C1F89BE0533400087B689A8D7B68DB8DB7
:103200009BB2D31AA7F8CE307B68DB8D9BB2002B24
:1032100000F08E80B7F8CE30002B00F089807B68FC
:103220001B680C33BB63BB6B53E8003F7B637B6B5A
:1032300023F49073C7F8C8307B681B680C33D7F849
:10324000C8207A643B64396C7A6C41E80023FB63E4
:10325000FB6B002BE3D17B681B6814337B627B6ABA
:1032600053E8003F3B623B6A23F00103C7F8C430D8
:103270007B681B681433D7F8C4203A63FB62F96A91
:103280003A6B41E80023BB62BB6A002BE3D17B6849
:10329000202283F842207B6800221A637B681B6827
:1032A0000C333B613B6953E8003FFB60FB6823F054
:1032B0001003C7F8C0307B681B680C33D7F8C020F8
:1032C000FA61BB61B969FA6941E800237B617B69F6
:1032D000002BE3D17B6802225A63B7F8CE3019463F
:1032E000786800F047F823E0D7F8E43003F0800373
:1032F000002B09D0D7F8E03003F08003002B03D077
:10330000786800F0BAF814E0D7F8E43003F040032E
:10331000002B0ED0D7F8E03003F04003002B08D08C
:10332000786800F0FAF804E000BF02E000BF00E0B7
:1033300000BFE837BD4680BD80B483B000AF786081
:1033400000BF0C37BD465DF8047B704780B483B086
:1033500000AF786000BF0C37BD465DF8047B704756
:1033600080B483B000AF786000BF0C37BD465DF815
:10337000047B704780B483B000AF78600B467B80DD
:1033800000BF0C37BD465DF8047B704780B495B034
:1033900000AF78607B681B680C337B637B6B53E802
:1033A000003F3B633B6B23F49073FB647B681B68BB
:1033B0000C33FA6C3A64FB63F96B3A6C41E8002316
:1033C000BB63BB6B002BE5D17B681B6814333B628E
:1033D0003B6A53E8003FFB61FB6923F00103BB64D8
:1033E0007B681B681433BA6CFA62BB62B96AFA6A0A
:1033F00041E800237B627B6A002BE5D17B681B6B75
:10340000012B19D17B681B680C33FB60FB6853E808
:10341000003FBB60BB6823F010037B647B681B68C4
:103420000C337A6CBA617B617969BA6941E800232F
:103430003B613B69002BE5D17B68202283F8422069
:103440007B6800221A6300BF5437BD465DF8047BD9
:10345000704780B584B000AF78607B689B6BFB6081
:10346000FB680022DA85FB680022DA84F868FFF73F
:1034700077FF00BF1037BD4680BD80B485B000AF78
:1034800078607B6893F84130DBB2212B3ED17B68BA
:103490009B68B3F5805F14D17B681B69002B10D14A
:1034A0007B681B6AFB60FB681B881A467B681B688D
:1034B000C2F308025A607B681B6A9A1C7B681A6216
:1034C00008E07B681B6A591C7A6811621A787B686D
:1034D0001B685A607B68DB8C9BB2013B9BB27A68AD
:1034E0001946D184002B0FD17B681B68DA687B6892
:1034F0001B6822F08002DA607B681B68DA687B68F0
:103500001B6842F04002DA60002300E00223184604
:103510001437BD465DF8047B704780B582B000AFBC
:1035200078607B681B68DA687B681B6822F0400261
:10353000DA607B68202283F841207868FFF7FCFE80
:10354000002318460837BD4680BD80B58CB000AF5B
:1035500078607B6893F84230DBB2222B40F0AE807B
:103560007B689B68B3F5805F17D17B681B69002B74
:1035700013D10023FB627B689B6ABB627B681B687C
:103580005B689BB2C3F308039AB2BB6A1A807B687C
:103590009B6A9A1C7B689A6226E07B689B6AFB6246
:1035A0000023BB627B689B68B3F5805F07D07B68B4
:1035B0009B68002B0AD17B681B69002B06D17B68B6
:1035C0001B685B68DAB2FB6A1A7008E07B681B68EC
:1035D0005B68DBB203F07F03DAB2FB6A1A707B68C8
:1035E0009B6A5A1C7B689A627B68DB8D9BB2013BAD
:1035F0009BB27A681946D185002B5DD17B681B6828
:10360000DA687B681B6822F02002DA607B681B683E
:10361000DA687B681B6822F48072DA607B681B685A
:103620005A697B681B6822F001025A617B6820227C
:1036300083F842207B6800225A637B681B6B012B56
:1036400035D17B6800221A637B681B680C337B6171
:103650007B6953E8003F3B613B6923F010037B62C9
:103660007B681B680C337A6A3A62FB61F9693A6AD3
:1036700041E80023BB61BB69002BE5D17B681B6877
:103680001B6803F01003102B0AD10023FB607B683A
:103690001B681B68FB607B681B685B68FB60FB68E2
:1036A0007B689B8D19467868FFF764FE02E07868B6
:1036B000FFF74CFE002302E0002300E0022318463F
:1036C0003037BD4680BD00002DE9B04FC0B000AF1F
:1036D000C7F8F400D7F8F4301B681B6923F4405096
:1036E000D7F8F430D968D7F8F4301A6840EA010303
:1036F0001361D7F8F4309A68D7F8F4301B691A438D
:10370000D7F8F4305B691A43D7F8F430DB69134318
:10371000C7F8F830D7F8F4301B68DB6823F416419B
:1037200021F00C01D7F8F4301A68D7F8F8300B43C1
:10373000D360D7F8F4301B685B6923F44070D7F886
:10374000F4309969D7F8F4301A6840EA01035361FC
:10375000D7F8F4301A688F4B9A4205D0D7F8F43076
:103760001A688D4B9A4204D1FEF7BCFDC7F8FC00E5
:1037700003E0FEF7A3FDC7F8FC00D7F8F430DB69DF
:10378000B3F5004F40F00C81D7F8FC300022C7F8A9
:10379000E830C7F8EC20D7E93A4522462B46911885
:1037A000B9655B41FB65D7E91623214612EB010899
:1037B000294643EB01094FF000024FF000034FEAA6
:1037C000C90343EA58734FEAC80290469946234614
:1037D00018EB0303C7F8E0302B4649EB0303C7F8A7
:1037E000E430D7F8F4305B680022C7F8D830C7F867
:1037F000DC20D7E936120B46DB183B65134642EB5B
:1038000003037B65D7E91423D7E93801FDF7FCF9F9
:1038100002460B46614BA3FB02235B091C01D7F850
:10382000FC300022C7F8D030C7F8D420D7E934895B
:1038300042464B469118B9645B41FB64D7E91223B9
:10384000414612EB010A494643EB010B4FF00002DF
:103850004FF000034FEACB0343EA5A734FEACA0220
:1038600092469B4643461AEB0303C7F8C8304B46C3
:103870004BEB0303C7F8CC30D7F8F4305B68002279
:10388000C7F8C030C7F8C420D7E930120B46DB18A0
:103890003B64134642EB03037B64D7E91023D7E96B
:1038A0003201FDF7B1F902460B4611463B4BA3FB33
:1038B00001235B09642202FB03F3CB1ADB0003F153
:1038C0003202364BA3FB02235B095B0003F4F8735F
:1038D0001C44D7F8FC300022C7F8B830C7F8BC2029
:1038E000D7E92E8942464B469118B9635B41FB6389
:1038F000D7E90E2341465118396349464B417B6352
:103900004FF000024FF00003D7E90CAB5946CB0053
:10391000514643EA51735146CA00104619460346C0
:1039200042469B18C7F8B0304B460A4642EB0303A9
:10393000C7F8B430D7F8F4305B680022C7F8A83075
:10394000C7F8AC20D7E92A120B46DB18BB62134636
:1039500042EB0303FB62D7E90A23D7E92C01FDF709
:1039600053F902460B460D4BA3FB02135B0964217E
:1039700001FB03F3D31ADB003233084AA2FB032313
:103980005B0903F00702D7F8F4301B6822449A6001
:1039900006E100BF00100140001401401F85EB51FB
:1039A000D7F8FC300022C7F8A030C7F8A420D7E928
:1039B000288942464B46911839625B417B62D7E9C0
:1039C000082341465418494643EB01054FF00002D5
:1039D0004FF00003EB0043EA5473E20014461D4627
:1039E0004346E318C7F898304B4645EB0303C7F846
:1039F0009C30D7F8F4305B680022C7F89030C7F8E5
:103A000094204FF000024FF00003D7E924452946E7
:103A10008B00214643EA917321468A00D7E92601AB
:103A2000FDF7F2F802460B46604BA3FB02235B094D
:103A30001C01D7F8FC300022C7F88830C7F88C206A
:103A4000D7E9228942464B469118B9615B41FB6137
:103A5000D7E9062341465118396149464B417B61FC
:103A60004FF000024FF00003D7E904AB5946CB00FA
:103A7000514643EA51735146CA001046194603465F
:103A800042469B18C7F880304B460A4642EB030378
:103A9000C7F88430D7F8F4305B680022BB67FA6758
:103AA0004FF000024FF00003D7E91E8949468B0012
:103AB000414643EA917341468A00D7E92001FDF768
:103AC000A3F802460B461146384BA3FB01235B09C2
:103AD000642202FB03F3CB1A1B013233334AA2FBED
:103AE00003235B0903F0F0031C44D7F8FC300022E9
:103AF0003B677A67D7E91C8942464B469118B96003
:103B00005B41FB60D7E902234146511839604946C1
:103B10004B417B604FF000024FF00003D7E900AB50
:103B20005946CB00514643EA51735146CA001046EC
:103B30001946034642469B18BB664B460A4642EB73
:103B40000303FB66D7F8F4305B6800223B667A66B5
:103B50004FF000024FF00003D7E9188949468B0067
:103B6000414643EA917341468A00D7E91A01FDF7BD
:103B70004BF802460B460D4BA3FB02135B09642175
:103B800001FB03F3D31A1B013233084AA2FB0323C0
:103B90005B0903F00F02D7F8F4301B6822449A60E7
:103BA00000BF07F58077BD46BDE8B08F1F85EB519C
:103BB00080B500AF002210210248FEF76DF900BF6A
:103BC00080BD00BF0000024080B500AF012210217F
:103BD0000248FEF761F900BF80BD00BF000002404F
:103BE00080B500AF002210210248FEF755F900BF52
:103BF00080BD00BF0008024080B500AF0122102147
:103C00000248FEF749F900BF80BD00BF000802402E
:103C100080B500AF002220210248FEF73DF900BF29
:103C200080BD00BF0008024080B500AF0122202106
:103C30000248FEF731F900BF80BD00BF0008024016
:103C400080B582B000AF0346FB71F91D0A23012243
:103C50000348FEF768FE00BF0837BD4680BD00BFC1
:103C60004C22002080B582B000AF786039603B689C
:103C70009AB2642379680348FEF755FE00BF0837FF
:103C8000BD4680BD4C22002080B582B000AF786078
:103C90007868FDF7C5FD00BF0837BD4680BD80B51B
:103CA00082B000AF0346FB71FFF782FFFFF798FF7A
:103CB000FB791846FFF7C4FFFFF786FF00BF083700
:103CC000BD4680BD80B582B000AF0346FB71FFF7F3
:103CD0006FFFFFF791FFFB791846FFF7B1FFFFF782
:103CE00073FF00BF0837BD4680BD80B500AFFFF74A
:103CF0008FFF0120FFF7C8FFFFF796FF3220FFF785
:103D0000C3FFFD20FFF7CBFF1220FFF7DBFFAE2044
:103D1000FFF7C5FFB320FFF7C2FF9120FFF7D2FFE7
:103D2000CA20FFF7BCFF3F20FFF7CCFFA220FFF720
:103D3000B6FF0020FFF7C6FFA120FFF7B0FF00206D
:103D4000FFF7C0FFA020FFF7AAFF1420FFF7BAFF7C
:103D50001120FFF7B7FFB520FFF7A1FF0020FFF705
:103D6000B1FFAB20FFF79BFF0120FFF7ABFFB420B3
:103D7000FFF795FFA020FFF7A5FFFD20FFF7A2FFAB
:103D8000C120FFF78CFFFF20FFF79CFFC720FFF744
:103D900086FF0F20FFF796FFB920FFF780FFB120C5
:103DA000FFF77DFFE220FFF78DFFD120FFF777FFC0
:103DB0008220FFF787FF2020FFF784FFBB20FFF75B
:103DC0006EFF1F20FFF77EFFB620FFF768FF082079
:103DD000FFF778FFBE20FFF762FF0720FFF772FFB3
:103DE000A620FFF75CFFA920FFF759FF0A20FFF785
:103DF0004BFFAF20FFF753FF3220FFF745FF00BF17
:103E000080BD90B583B000AF0446084611461A46FF
:103E10002346FB710346BB710B467B7113463B7116
:103E20001520FFF73CFFFB791C33DBB21846FFF788
:103E300049FFBB791C33DBB21846FFF743FF7520FF
:103E4000FFF72DFF7B791846FFF73CFF3B791846BB
:103E5000FFF738FF00BF0C37BD4690BD80B582B07C
:103E600000AF786039605C20FFF719FFFFF7A0FE14
:103E7000FFF7C2FE39687868FFF7F4FEFFF7A4FE8B
:103E800000BF0837BD4680BD80B483B000AF034695
:103E90000A46FB801346BB80044ABB88138000BFE0
:103EA0000C37BD465DF8047B704700BF0A00002058
:103EB00080B485B000AF78600B46FB70FB781B01C7
:103EC0005AB297F9033013435BB2FB720E4B1B8857
:103ED0001A460E4B1B8802FB03F3DA0F13445B10E8
:103EE000FB6004E07B685A1C7A60FA7A1A70FB68FF
:103EF0005A1EFA60002BF5D100BF00BF1437BD4633
:103F00005DF8047B704700BF0A0000200C00002011
:103F100080B485B000AFF860084611461A460346E3
:103F20007B810B463B811346FB71354B1B887A899D
:103F30009A425FD2334B1B883A899A425AD23B89C4
:103F40002F4A128803FB02F27B891344002B03F0F3
:103F50000103B8BF5B42012B25D13B89284A128857
:103F600003FB02F27B891344DA0F13445B101A46F9
:103F7000FB6813441B785BB223F00F035AB297F926
:103F80000730134359B23B891D4A128803FB02F2E2
:103F90007B891344DA0F13445B101A46FB68134401
:103FA000CAB21A7027E03B89154A128803FB02F255
:103FB0007B891344DA0F13445B101A46FB681344E1
:103FC0001B785BB203F00F035AB2FB791B015BB2A3
:103FD000134359B23B890A4A128803FB02F27B89D8
:103FE0001344DA0F13445B101A46FB681344CAB239
:103FF0001A7000E000BF1437BD465DF8047B7047BF
:104000000C0000200A00002080B483B000AF78606C
:10401000044A7B68136000BF0C37BD465DF8047B23
:10402000704700BFAC22002080B58AB000AFF860B6
:10403000084611461A460346FB720B463B8113465F
:10404000FB80444B1B68002B7FD0424B1B681B89B5
:10405000DBB2FA7AD31AFB723E4B1B685A68FB7AC2
:10406000DB001344FB613B4B1B681B68BB61FB69B6
:104070001B88FB84FB699B78FB75FB69DB78BB7550
:10408000FB695B797B75FB699B793B75002387F83E
:104090002530002387F82430002387F823300023BD
:1040A00087F82230002387F8233048E0002387F880
:1040B00022303AE097F825305A1C87F8252003F083
:1040C0000703002B08D1FB8C5A1CFA841A46BB69E3
:1040D00013441B7887F8243097F92430002B1ADA20
:1040E00097F915309AB23B8913449AB297F8223067
:1040F0009BB2134499B297F914309AB2FB881344D7
:104100009AB297F823309BB213449AB297F83030A2
:10411000F868FFF7FDFE97F824305B0087F824303D
:1041200097F82230013387F8223097F82220FB7D60
:104130009A42BFD397F82330013387F8233097F89A
:104140002320BB7D9A42B1D300E000BF2837BD4693
:1041500080BD00BFAC22002080B586B002AFF86001
:10416000B96011461A460B46FB801346BB801BE024
:10417000BB681978B888FA883B7E00930346F868D4
:10418000FFF752FF0D4B1B685A68BB681B7803F1A1
:104190000053203BDB0013441B791A46FB88134471
:1041A000FB80BB680133BB60BB681B78002BDFD191
:1041B00000BF00BF1037BD4680BD00BFAC2200204D
:1041C00080B582B000AF78600B467B8013463B80A1
:1041D0007F2300223F210020FFF713FE3B88DB01F5
:1041E0001A467B8813447A6813444FF400511846EA
:1041F000FFF734FE00BF0837BD4680BD80B483B0F2
:1042000000AF78607B685B689BB2C3F308039BB226
:1042100018460C37BD465DF8047B704780B483B008
:1042200000AF78600B467B807B88C3F308027B6815
:104230005A6000BF0C37BD465DF8047B7047000034
:1042400080B582B000AF7860154B164A1A60144AE8
:104250007B685360124B00229A60114B0022DA6097
:104260000F4B00221A610E4B0C225A610C4B00229C
:104270009A610B4B0022DA610948FEF773FD034691
:10428000002B00D000BF064B1B68DA68044B1B688C
:1042900042F02002DA6000BF0837BD4680BD00BF93
:1042A000042200200010014080B487B000AF786085
:1042B00000237B6100233B6115E07B69DB007A68AA
:1042C0001344FB6000233B6107E03B69FA68134439
:1042D00000221A703B6901333B613B69072BF4DD17
:1042E0007B6901337B617B69002BE6DD00233B6149
:1042F00008E07A683B6913440C3300221A703B696A
:1043000001333B613B69072BF3DD7B6840229A60F8
:1043100000BF1C37BD465DF8047B704790B583B085
:1043200000AF00F050F80346FB71184BDB6803F058
:104330002003002B25D0154B1B6803F02003002B16
:104340001FD000BF114B1B6803F02003002BF9D0D6
:10435000FC790E48FFF752FF03461A460C4B23F830
:104360001420FB79012202FA03F35BB2DB435AB259
:10437000084B1B78DBB25BB213405BB2DAB2054B81
:104380001A7000BF0C37BD4690BD00BF0010014041
:10439000B4220020B022002080B582B000AF4FF4DC
:1043A0001650FFF74DFFF02000F016F800F054F81B
:1043B0000346FB804FF4E130FFF742FFFB881846CD
:1043C0000837BD4680BD80B400AF00231846BD4607
:1043D0005DF8047B7047000080B582B000AF0346F3
:1043E000FB80FFF7F0FF03461A46012393405AB2C1
:1043F0000D4B1B78DBB25BB213435BB2DAB20A4BF4
:104400001A70FB8819460948FFF708FF00BF084BE0
:104410001B681B6803F04003402BF8D100BF00BFAE
:104420000837BD4680BD00BFB0220020001001400B
:104430000422002080B483B000AF0346FB80FB88D9
:10444000FF2B0CBF01230023DBB218460C37BD46FF
:104450005DF8047B7047000080B582B000AFFFF7C5
:10446000B2FF03467B714FF47A73FB8000BF0C4BA5
:104470001B78DBB21A467B7942FA03F303F001039F
:10448000002B04D0FB885A1EFA80002BEFD17B79D9
:10449000044A32F813309BB218460837BD4680BD37
:1044A000B0220020B422002080B485B000AF0346C3
:1044B0003960FB710023FB7314E0FB7903F0010307
:1044C000002B03D03B68FF221A7002E03B680022F9
:1044D0001A703B6801333B60FB795B08FB71FB7B27
:1044E0000133FB73FB7B072BE7D93B681846143776
:1044F000BD465DF8047B704780B586B000AF0346CB
:10450000FB7107F10C02FB7911461846FFF7CCFF4F
:1045100000237B610AE007F10C027B6913441B78DE
:104520001846FFF759FF7B6901337B617B69072BD5
:10453000F1DD00BF00BF1837BD4680BD80B485B037
:1045400000AF78600B46FB7000233B7300237B7346
:104550003B7B7A6813441B78BB730023FB7318E022
:104560007A7BBB7B5340FB72FB7A03F00103FB7247
:104570007B7B5B087B73BB7B5B08BB73FB7A012B8C
:1045800004D17B7B83F07303DB437B73FB7B0133C1
:10459000FB73FB7B072BE3D93B7B01333B733A7BFC
:1045A000FB789A42D4D37B7B18461437BD465DF81E
:1045B000047B704780B582B000AF786007217868CF
:1045C000FFF7BCFF034618460837BD4680BD80B5DF
:1045D00088B000AF786039600023FB774FF0FF337D
:1045E000BB610023FB75FFF7D7FE0346F02B01D11B
:1045F000002397E0F020FFF77FFF00237B75FB7F10
:10460000DB08DBB23B613B693A681344FB60002383
:10461000BB75FF20FFF7E0FEFFF71EFF03461846BD
:10462000FFF708FF0346FB72FF20FFF7D5FEFFF7F9
:1046300013FF03461846FFF7FDFE0346BB72FA7AE6
:10464000BB7A9A4205D1FB7A012B02D14FF0FF339E
:1046500068E0FA7ABB7A9A4202D0FB7ABB7523E013
:10466000FA7F7B689B689A4202D10123BB751BE0ED
:10467000FA7F7B689B689A4202DD0023BB750EE0DF
:104680007A683B6913440C331B781A46FB7F03F0AE
:10469000070342FA03F3DBB203F00103BB75BB7DF2
:1046A000002B01D1FB7FBB61BB7D002B0ED0FB68D3
:1046B0001B785AB2FB7F03F00703012101FA03F3D1
:1046C0005BB213435BB2DAB2FB681A70BB7D002B9E
:1046D00001D1002300E0FF237B757B7D9BB2184650
:1046E000FFF77AFEFB7F0133FB77FB7F3F2B84D9FB
:1046F0007B68BA699A600BE0FB7D3A681A44FB7DDF
:1047000011787A6813440A461A73FB7D0133FB75EE
:10471000FB7D062BF0D97B689B68002BCCBF012367
:104720000023DBB218462037BD4680BD80B584B07B
:1047300000AF78600023FB607868FFF7B5FDFB6889
:10474000DB007A68134419467868FFF740FFB860C9
:10475000BB68002B02DA4FF0FF3309E0FB6801333E
:10476000FB60BB68002B02D0FB68002BE7DDFB6819
:1047700018461037BD4680BD80B584B000AF786064
:104780000023FB60FFF708FE5520FFF7B5FE09E0A8
:10479000FB687A6813441B781846FFF7ADFEFB6888
:1047A0000133FB60FB68072BF2DD00BF00BF103751
:1047B000BD4680BD80B582B000AF78603960386892
:1047C000FFF7DAFF4420FFF797FE00BF0837BD462A
:1047D00080BD80B586B000AFF860B9607A60002314
:1047E000FB82BB681B78102B01D0282B09D14823F2
:1047F000BB8200BFB868FFF7BFFFBE20FFF77CFE9B
:1048000048E07B684BE0BB8A083B002B00DA0733AB
:10481000DB10DAB2FB8ADB089BB2DBB2D31AFB7483
:10482000FF20FFF7D9FDFFF717FE03461846FFF7F5
:1048300001FE0346BB74BB7C012B13D1FB7C7A6861
:1048400013441B785AB2FB8A03F00703012101FAD3
:1048500003F35BB2134359B2FB7C7A681344CAB2C8
:104860001A7014E0FB7C7A6813441B785AB2FB8AF6
:1048700003F00703012101FA03F35BB2DB435BB2F0
:10488000134059B2FB7C7A681344CAB21A70FB8A8F
:104890000133FB82FA8ABB8A9A42B4D37B681846FA
:1048A0001837BD4680BD80B58CB000AFF860B960E8
:1048B0001346FB71002387F82030002387F821304E
:1048C00007F11403FB6207F11403BB62BB681B789A
:1048D000102B22D0282B3AD107F114031A46B968BD
:1048E000F868FFF776FFFB6ADB791B015AB2FB6AB7
:1048F0001B7A1B09DBB25BB213435BB287F8203033
:10490000FB6A1B7A03F00F0213469B0013445B0003
:104910001B11DBB287F821301CE007F114031A46A3
:10492000B968F868FFF755FFBB6A1B7A5B08DBB212
:104930005BB287F82030BB6A1B7A03F00103DBB25D
:104940001A4692001344DBB287F8213002E03B8C18
:10495000BB8408E0FB79002B03D0B968F868FFF747
:1049600029FF3B8CBB84002397F8242062F30703C4
:1049700097F8252062F30F2318463037BD4680BDD7
:10498000F0B589B006AFFFF707FD0346F02B79D0ED
:104990004E48FFF7CBFE0346DAB24D4B1A704C4B34
:1049A0001B78002B13D14B4B4B4A1A604B4B002208
:1049B0001A6005E000BF494B1B680133474A13608A
:1049C000464B1A68434B1B689A42F3D3EBE7434BC1
:1049D00000221A604FE0414B1B68DB003B4A134446
:1049E0007B607868FFF7E6FD0346FB707B68DB7948
:1049F000FA789A4201D13A4B00E03A4B3A4A1360B6
:104A0000364B1B681A46394B1A607B681B781E466A
:104A10007B689B799C467B685B791A467B681B792F
:104A200019467B68DB7818467B689B781C467B6858
:104A30005B781D467B68DB790593049503940290AF
:104A4000019100926346324629492A4800F0F2FD5E
:104A50007B68DB79FA789A4208D0204B1B681A46AB
:104A6000224B1A602449234800F0E4FD1B4B1B68CD
:104A700001331A4A1360164B1B781A46174B1B68F2
:104A80009A42A8D8134B144A1A60144B00221A6099
:104A900005E000BF114B1B680133104A13600F4B38
:104AA0001A680C4B1B689A42F3D30F4B1B680C49D6
:104AB0001846FBF7ADFB0346002B01D1002301E0B4
:104AC0004FF0FF3318460C37BD46F0BDC82200201A
:104AD000C42200201000002040420F00DC220020F1
:104AE000FC7800080479000808230020E422002054
:104AF00010790008E82200203879000880B500AF5E
:104B00003A4B00221A6067E0384B1B68384A12F8AB
:104B10003330282B06D0282B56DC002B56D0102BF8
:104B200029D051E0314B1B68DB00314A134401228C
:104B300019462F48FFF7B7FE03462E4A13802D4B28
:104B400093F900301A4613469B0013445B001A4643
:104B5000284B5B78134407EE903AB8EEE77A234B84
:104B60001B68F2EE046AC7EE267A234A9B001344C0
:104B7000C3ED007A2BE01D4B1B68DB001C4A13447D
:104B8000012219461A48FFF78EFE0346194A138080
:104B9000184B93F900301A4613469B0013445B00F0
:104BA0001A46144B5B78134407EE903AB8EEE77A56
:104BB0000E4B1B68F2EE046AC7EE267A0E4A9B0083
:104BC0001344C3ED007A02E000BF00E000BF074BD2
:104BD0001B680133054A1360084B1B781A46034BC8
:104BE0001B689A4290D800BF00BF80BDDC22002025
:104BF000C8220020E0220020C0220020C422002081
:104C00002DE9FF4757EC106B002F0C4619463B4629
:104C1000BBBF07F100431F4600232D230B700D9BE4
:104C2000DDF830A0914623F02008BCBF324616467E
:104C3000B8F1460F05D0B8F1450F00D1013402217B
:104C400000E0032103AB019302AB009347EC106B30
:104C50005346224600F05CFEB8F1470F054619D1D5
:104C600019F0010F0ED000EB04090022002330469A
:104C70003946FBF759FF08B1CDF80C903022039B61
:104C80004B451ED3039B0E9A5B1B2846136004B052
:104C9000BDE8F087B8F1460F00EB0409E5D10378D1
:104CA000302B0AD10022002330463946FBF73CFF67
:104CB00018B9C4F10104CAF80040DAF80030994488
:104CC000D3E7591C03911A70D9E7F7B50029BABF89
:104CD00049422D232B2309290270437029DD0DF150
:104CE00007031D460A271A46B1FBF7F607FB161401
:104CF000303402F8014C0C46632C03F1FF3331468B
:104D0000F1DC3031941E03F8011C411C2346AB42F8
:104D10000AD30DF109039B1AAC4288BF002302336A
:104D20000344181A03B0F0BD13F8016B01F8016FCA
:104D3000EDE7302330318370C170031DF1E70000CF
:104D40002DE9F04F8DB00C46DDF8588016461F4611
:104D5000054600F0DBFC036804931846FBF7B8FA3D
:104D600000230A93D8F800300590073323F0070397
:104D700003F1080294F818A0D4F800B0C8F8002095
:104D8000D3E9008929F000430793CDF81880C4E9DE
:104D90001289DDE906019C4B4FF0FF32FBF7F6FE6E
:104DA00070BBDDE90601984B4FF0FF32FBF7D0FEF8
:104DB00030BB0022002340464946FBF7BFFE10B13E
:104DC0002D2384F84330914A914BBAF1470F94BF99
:104DD00090469846032323612BF0040323604FF091
:104DE0000009009733460BAA2146284600F0D2F965
:104DF000013040F08D804FF0FF300DB0BDE8F08FF6
:104E000042464B4640464946FBF7C0FE40B14B4642
:104E1000002BBCBF2D2384F843307E4A7E4BD4E761
:104E200063680AF0DF0206925A1C3BD106236360D6
:104E30004BF480620023226003930AABCDE901A307
:104E400009AB0093616849EC108B0DF123032846F0
:104E5000FFF7D6FE069B0999472B804629D1C81C2F
:104E600002DB6368994241DDAAF1020A5FFA8AFA1D
:104E70000139524604F150000991FFF726FF0A9AC2
:104E80001318012A8146236102DC2268D20701D56A
:104E9000013323619DF82330002BA2D02D2384F809
:104EA00043309EE7069A472AC2D1002BC0D1012386
:104EB000BDE7BAF1650FDBD9BAF1660F18D1002949
:104EC00063680BDD216113B92268D00702D5013375
:104ED0000B442361A1654FF00009DBE713B9226899
:104EE000D20701D50233F4E70123F2E74FF0670A56
:104EF0000A9B994205DB23682161D807EAD54B1C40
:104F0000E7E70029D4BFC1F1020201221344E0E720
:104F100023685A0507D42369424631462846B847D4
:104F200001302BD167E7BAF1650F40F2DD80D4E99B
:104F3000120100220023FBF7F7FD002833D0374A87
:104F4000012331462846B84701303FF454AFDDE92C
:104F50000938434502DB2368D8070FD5DDE9042370
:104F600031462846B84701303FF445AF4FF00009BD
:104F700008F1FF3804F11A0AC84509DC23689B07C9
:104F800000F10381E0680B9B9842B8BF184634E7F4
:104F90000123524631462846B84701303FF42BAF33
:104FA00009F10109E8E7099B002B39DC1B4A0123C1
:104FB00031462846B84701303FF41DAFDDE90939D5
:104FC00059EA030302D12368D907D7D5DDE90423C1
:104FD00031462846B84701303FF40DAF4FF0000A84
:104FE00004F11A0B099B5B42534501DC4B4693E7E6
:104FF00001235A4631462846B84701303FF4FBAEFC
:105000000AF1010AEEE700BFFFFFEF7F2C820008E4
:105010003082000834820008388200083C82000890
:10502000A36DDDF828A05345A8BF5346002B994631
:1050300036DC4FF0000B29EAE97904F11A02A36D7E
:105040000693A3EB09035B4531DC099B9A453ADCE7
:105050002368DA0737D4099BAAEB0309069BAAEB5E
:1050600003039945A8BF9946B9F1000F33DC4FF00F
:10507000000829EAE97904F11A0B099BAAEB03035A
:10508000A3EB090343457FF779AF01235A46314625
:105090002846B84701303FF4AEAE08F10108ECE70E
:1050A000424631462846B8470130C2D1A3E6012323
:1050B000314628460692B84701303FF49CAE069A26
:1050C0000BF1010BBBE7DDE9042331462846B84765
:1050D0000130C0D18FE6069A4B46424431462846FD
:1050E000B8470130C3D186E6DDF828A0BAF1010F38
:1050F00001DCDB0736D50123424631462846B84756
:1051000001303FF478AEDDE9042331462846B84744
:1051100001303FF470AED4E91201002200230AF1FD
:10512000FF3AFBF701FDC0B9534608F101023146D1
:105130002846B84701300CD15DE601235A46314676
:105140002846B84701303FF456AE08F10108D04573
:10515000F3DB4B4604F15002DFE64FF0000804F1A8
:105160001A0BF4E701234246E1E701234A463146A0
:105170002846B84701303FF43EAE08F10108E36825
:105180000B995B1A4345F0DCFCE64FF0000804F194
:105190001909F4E72DE9F047164698468A680B6925
:1051A000DDF820909342B8BF1346336091F8432056
:1051B00007460C460AB1013333602368990642BFA3
:1051C000336802333360256815F0060506D104F113
:1051D000190AE36832689B1AAB4226DC94F8433024
:1051E0002268003B18BF012392062BD404F143022E
:1051F00041463846C84701301ED02368226903F073
:105200000603042B02BFE5683368ED1AA3680CBFE0
:1052100025EAE57500259342C4BF9B1AED180026C8
:105220001A34B5421AD1002008E001235246414603
:105230003846C847013003D14FF0FF30BDE8F08752
:105240000135C6E7E1185A1C302081F8430022449A
:1052500094F8451082F843100233C7E70123224631
:1052600041463846C8470130E6D00136D9E700004C
:105270002DE9FF470F7E0C9E782F914680460C4605
:105280009A4601F1430207D8622F0AD8002F00F096
:10529000D280582F00F0B98004F1420684F84270A1
:1052A0003AE0A7F16303152BF6D801A151F823F0DA
:1052B000095300081D53000899520008995200082C
:1052C00099520008995200081D530008995200088D
:1052D0009952000899520008995200081D5400087C
:1052E00047530008D7530008995200089952000804
:1052F0003F5400089952000847530008995200088B
:1053000099520008DF53000833681A1D1B68326089
:1053100004F1420684F8423001239DE0336820689E
:10532000191D3160060601D51D6803E04506FBD551
:10533000B3F90050002D03DA2D236D4284F8433079
:1053400059480A2311E021683368080653F8045BC2
:1053500002D4490648BFADB26F2F5348336014BF23
:105360000A230823002184F843106668A660002EF3
:10537000A2BF216821F0040121600DB9002E4BD09D
:105380001646B5FBF3F103FB1157C75D06F8017D27
:105390002F46BB420D46F4D9082B0BD12368DF07FB
:1053A00008D5236961689942DEBF302306F8013CC5
:1053B00006F1FF36921B2261CDF800A04B4603AAEE
:1053C00021464046FFF7E6FE01304AD14FF0FF305C
:1053D00004B0BDE8F087236843F02003236033481E
:1053E000782784F84570236831681F0651F8045BFC
:1053F00002D45F0648BFADB23160D90744BF43F065
:10540000200323601DB11023ACE72748E9E7236898
:1054100023F020032360F6E71646BDE733682568CE
:105420006169181D30602E061B6801D5196002E005
:105430006806FBD51980002323611646BCE7336854
:105440001A1D32601E68626800213046FAF7F0FECD
:1054500008B1801B606063682361002384F84330D7
:10546000AAE72369324649464046D0470130ADD0CD
:1054700023689B0713D4E068039B9842B8BF184683
:10548000A6E70123324649464046D04701309DD029
:105490000135E36803995B1AAB42F2DCEBE70025C8
:1054A00004F11906F5E700BF3E8200084F820008AC
:1054B000002310B50446C0E90033C0E9043383601B
:1054C00081814366C2818361194608225C3000F005
:1054D00014F90D4B63620D4BA3620D4BE3620D4B50
:1054E00023630D4B24629C4206D003F16802944270
:1054F00002D0D0339C4205D104F15800BDE81040E1
:1055000000F078B910BD00BF755600089756000826
:10551000CF560008F35600080C230020024A034926
:10552000034800F069B800BF14000020557100085E
:105530002400002041680C4B994210B5044601D06C
:1055400001F008FEA168094B994202D0204601F003
:1055500001FEE168064B994204D02046BDE81040A8
:1055600001F0F8BD10BD00BF0C2300207423002003
:10557000DC23002010B50B4B0B4C0C4A1A60204664
:1055800000220421FFF794FF04F1680001220921A1
:10559000FFF78EFF04F1D0000222BDE81040122177
:1055A000FFF786BF442400200C2300201D5500086F
:1055B000014800F020B900BF4D240020014800F050
:1055C0001BB900BF4D24002010B50446FFF7F0FFC3
:1055D000236A1BB1BDE81040FFF7F0BF044B236204
:1055E000044B1B68002BF5D1FFF7C4FFF2E700BFA7
:1055F00035550008442400202DE9F8430746884625
:1056000014460026D4E90195B9F1010905D52468AD
:10561000002CF7D13046BDE8F883AB89012B07D9C0
:10562000B5F90E30013303D029463846C04706434A
:105630006835E9E70EB400B59CB01DAB029006904A
:105640006FF00041094807910491094953F8042B70
:1056500005910068019302A901F0FCFB029B002266
:105660001A701CB05DF804EB03B0704720000020F6
:105670000802FFFF10B50C46B1F90E1000F06CF8EF
:105680000028ABBF636DA3891B1823F48053ACBF04
:105690006365A38110BD2DE9F0411F468B89DB05B1
:1056A00005460C46164605D5B1F90E100223002218
:1056B00000F040F8A389B4F90E1023F48053A381BD
:1056C00032463B462846BDE8F04100F057B810B5D9
:1056D0000C46B1F90E1000F02DF8431CA38915BF3C
:1056E000606523F4805343F48053A38118BFA381E2
:1056F00010BDB1F90E1000F00DB8024403469342FC
:1057000000D1704703F8011BF9E70000004870471B
:105710006001002038B5064D0023044608462B6082
:10572000FBF765FF431C02D12B6803B1236038BD32
:105730004824002038B5074D04460846114600228B
:105740002A601A46FBF77AFF431C02D12B6803B18B
:10575000236038BD4824002038B5074D044608466C
:10576000114600222A601A46FBF708FF431C02D1AB
:105770002B6803B1236038BD4824002038B5074D9D
:1057800004460846114600222A601A46FBF713FF1A
:10579000431C02D12B6803B1236038BD482400208C
:1057A000014B1868704700BF2000002070B50D4DF8
:1057B0000D4C641BA4100026A64209D10B4D0C4CC5
:1057C00002F066F8641BA4100026A64205D170BD45
:1057D00055F8043B98470136EEE755F8043B9847E7
:1057E0000136F2E7A8850008A8850008A88500080A
:1057F000AC8500087047704770472DE9F74F036983
:105800000C69A34207467EDB013C01F11408A300AA
:1058100000F11405009305EB8403019358F824303C
:1058200055F8242001339A4208EB8409B2FBF3F6C1
:105830002ED34FF0000AC446AE46D3465CF8043B74
:1058400098B206FB00A0020C1B0C06FB0323DEF83B
:10585000002080B292B2121A5A44DEF800004FEAD9
:10586000134A9BB2C3EB224303EB104392B242EACA
:105870000342E1454EF8042B4FEA234BDED2009B56
:10588000EB582BB9019B043B9D421A462FD33C6138
:10589000384601F07BF9002825DB2946002058F81E
:1058A000042BD1F800C01FFA82FE1FFA8CF3A3EB81
:1058B0000E030344120CC2EB234202EB1C429BB2C8
:1058C00043EA0243C14541F8043B4FEA2240E6D295
:1058D00055F8242005EB840322B9043B9D421A4667
:1058E0000BD33C610136304603B0BDE8F08F12683F
:1058F000043B002ACBD1013CC6E71268043B002AD6
:10590000EFD1013CEAE70020EEE7000000000000D4
:105910002DE9F04FC76999B08DED020B55EC104B96
:10592000229E099183460E9213937FB9102000F0B6
:10593000FDFD0246CBF81C0020B9A74BEF21A7487C
:1059400001F068FCC0E901770760C760DBF81C3034
:10595000196859B15A684A60012393408B605846D0
:1059600000F0DAFEDBF81C3000221A602B1EB9BFF3
:1059700023F00043039300233360039F984BBCBF85
:1059800001223260BB4312D1139A42F20F731360AB
:10599000C7F31303234300F04D85239BDFF854A284
:1059A000002B00F04F850AF1030300F049BD9DED87
:1059B000027B002251EC170B00238DED0C7BFBF7D3
:1059C000B3F8804658B1139A01231360239B13B197
:1059D000239A844B1360DFF820A200F033BD9DEDC5
:1059E0000C0B16AA17A9584601F080F9C7F30A56FE
:1059F0008146002E77D00D9BCDF85080C3F3130362
:105A0000DDE90C0143F07F5343F44013A6F2FF3667
:105A100019460022744BFAF767FC69A3D3E9002307
:105A2000FAF71AFE68A3D3E90023FAF75FFC0446ED
:105A300030460D46FAF7A6FD65A3D3E90023FAF731
:105A40000BFE02460B4620462946FAF74FFC044659
:105A50000D46FBF7B1F800220746002320462946F1
:105A6000FBF76CF840B13846FAF78CFD22462B461E
:105A7000FBF75AF800B9013F162F51D85B4B03EBE7
:105A8000C703D3E90023DDE90C01FBF757F8002831
:105A900048D0013F00231293169B9B1B5A1E44BF04
:105AA000C3F101080023089254BF4FF00008089387
:105AB000002F39DB089B0F973B44089300230A9380
:105AC000099B092B64D8052BC4BF043B0993099B90
:105AD000A3F10203CCBF00240124032B63D8DFE829
