:020000040800F2
:1000000000800020712E0008612C0008692C000877
:10001000712C0008792C0008812C000800000000D9
:10002000000000000000000000000000892C000813
:10003000972C000800000000A52C0008B32C000835
:10004000C12E0008C12E0008C12E0008C12E0008D4
:10005000C12E0008C12E0008C12E0008C12E0008C4
:10006000C12E0008C12E0008C12E0008C12E0008B4
:10007000C12E0008C12E0008C12E0008C12E0008A4
:10008000C12E0008C12E0008C12E0008000000008B
:100090000000000000000000000000002D7C0008AF
:1000A000C12E0008C12E0008C12E0008C12E000874
:1000B000000000000000000000000000C12E000849
:1000C000C12E0008C12E0008C12E0008C12E000854
:1000D000C12E000845240008C12E000800000000C1
:1000E000A17D0008C12E00080000000000000000F3
:1000F000000000000000000000000000C12E000809
:100100000000000000000000C12E000800000000F8
:100110000000000000000000C12E000800000000E8
:10012000C12E0008C12E0008C12E0008C12E0008F3
:10013000C12E0008000000000000000000000000C8
:1001400000000000000000000000000000000000AF
:10015000C12E0008C12E0008C12E0008C12E0008C3
:10016000000000000000000000000000000000008F
:10017000000000000000000000000000000000007F
:10018000C12E0008C12E0008000000000000000081
:1001900000000000C12E0008000000000000000068
:1001A000000000000000000000000000000000004F
:1001B000000000000000000000000000C12E000848
:0801C000C12E0008C12E000849
:1001D00010B5054C237833B9044B13B10448AFF381
:1001E00000800123237010BDD437002000000000E0
:1001F00088C5000808B5034B1BB103490348AFF39A
:10020000008008BD00000000D837002088C5000825
:1002100010F8012B11F8013B012A28BF9A42F7D0B0
:10022000D01A70470000000000000000000000002D
:1002300001F0FF01102A2BDB10F0070F08D010F897
:10024000013B013A8B422DD010F0070F42B3F6D19B
:10025000F0B441EA012141EA014122F007047FF0B4
:1002600000070023F0E80256083C85EA010586EA0B
:10027000010685FA47F5A3FA87F586FA47F6A5FA47
:1002800087F68EB9EED1F0BC01F0FF0102F0070253
:1002900032B110F8013B013A83EA010313B1F8D1FE
:1002A0000020704701387047002D06BF35460338DF
:1002B000073815F0010F07D1013015F4807F02BF18
:1002C000013015F4C03F0130F0BC0138704700BF69
:1002D000034613F8012B002AFBD1181A0138704786
:1002E00081F0004102E000BF83F0004330B54FEAE7
:1002F00041044FEA430594EA050F08BF90EA020F54
:100300001FBF54EA000C55EA020C7FEA645C7FEAE6
:10031000655C00F0E2804FEA5454D4EB5555B8BF09
:100320006D420CDD2C4480EA020281EA030382EA7A
:10033000000083EA010180EA020281EA0303362D0C
:1003400088BF30BD11F0004F4FEA01314FF4801CDF
:100350004CEA113102D0404261EB410113F0004FF1
:100360004FEA03334CEA133302D0524263EB4303A8
:1003700094EA050F00F0A780A4F10104D5F1200E46
:100380000DDB02FA0EFC22FA05F2801841F10001A1
:1003900003FA0EF2801843FA05F359410EE0A5F175
:1003A00020050EF1200E012A03FA0EFC28BF4CF0A6
:1003B000020C43FA05F3C01851EBE37101F000455C
:1003C00007D54FF0000EDCF1000C7EEB00006EEB69
:1003D0000101B1F5801F1BD3B1F5001F0CD34908F3
:1003E0005FEA30004FEA3C0C04F101044FEA44524A
:1003F00012F5800F80F09A80BCF1004F08BF5FEAD1
:10040000500C50F1000041EB045141EA050130BDB0
:100410005FEA4C0C404141EB0101013C28BFB1F5C2
:10042000801FE9D291F0000F04BF01460020B1FA0D
:1004300081F308BF2033A3F10B03B3F120020CDAE0
:100440000C3208DD02F1140CC2F10C0201FA0CF0BE
:1004500021FA02F10CE002F11402D8BFC2F1200C23
:1004600001FA02F120FA0CFCDCBF41EA0C019040D9
:10047000E41AA2BF01EB0451294330BD6FEA040422
:100480001F3C1CDA0C340EDC04F11404C4F120020D
:1004900020FA04F001FA02F340EA030021FA04F31F
:1004A00045EA030130BDC4F10C04C4F1200220FA76
:1004B00002F001FA04F340EA0300294630BD21FAB4
:1004C00004F0294630BD94F0000F83F4801306BF7A
:1004D00081F480110134013D4EE77FEA645C18BF6E
:1004E0007FEA655C29D094EA050F08BF90EA020F05
:1004F00005D054EA000C04BF1946104630BD91EAFD
:10050000030F1EBF0021002030BD5FEA545C05D1FF
:100510004000494128BF41F0004130BD14F580043E
:100520003CBF01F5801130BD01F0004545F0FE41B2
:1005300041F470014FF0000030BD7FEA645C1ABFE7
:10054000194610467FEA655C1CBF0B46024650EA1E
:10055000013406BF52EA033591EA030F41F400214A
:1005600030BD00BF90F0000F04BF0021704730B5D0
:100570004FF4806404F132044FF000054FF00001A5
:1005800050E700BF90F0000F04BF0021704730B566
:100590004FF4806404F1320410F0004548BF40423B
:1005A0004FF000013EE700BF42004FEAE2014FEA90
:1005B00031014FEA02701FBF12F07F4393F07F4F6B
:1005C00081F06051704732F07F4208BF704793F06E
:1005D0007F4F04BF41F40021704730B54FF4607481
:1005E00001F0004521F000411CE700BF50EA010284
:1005F00008BF704730B54FF000050AE050EA01022D
:1006000008BF704730B511F0004502D5404261EB9C
:1006100041014FF4806404F132045FEA915C3FF4DD
:10062000D8AE4FF003025FEADC0C18BF03325FEA7A
:10063000DC0C18BF033202EBDC02C2F1200300FA2B
:1006400003FC20FA02F001FA03FE40EA0E0021FA50
:1006500002F11444BDE600BF70B54FF0FF0C4CF43E
:10066000E06C1CEA11541DBF1CEA135594EA0C0FF0
:1006700095EA0C0F00F0DEF82C4481EA030621EA2B
:100680004C5123EA4C5350EA013518BF52EA033566
:1006900041F4801143F4801338D0A0FB02CE4FF018
:1006A0000005E1FB02E506F00042E0FB03E54FF048
:1006B0000006E1FB03569CF0000F18BF4EF0010E40
:1006C000A4F1FF04B6F5007F64F5407404D25FEA3C
:1006D0004E0E6D4146EB060642EAC62141EA5551EF
:1006E0004FEAC52040EA5E504FEACE2EB4F1FD0C31
:1006F00088BFBCF5E06F1ED8BEF1004F08BF5FEAAF
:10070000500E50F1000041EB045170BD06F0004660
:1007100046EA010140EA020081EA0301B4EB5C040D
:10072000C2BFD4EB0C0541EA045170BD41F4801105
:100730004FF0000E013C00F3AB8014F1360FDEBF2A
:10074000002001F0004170BDC4F10004203C35DA06
:100750000C341BDC04F11404C4F1200500FA05F389
:1007600020FA04F001FA05F240EA020001F000422A
:1007700021F0004110EBD37021FA04F642EB0601A0
:100780005EEA430E08BF20EAD37070BDC4F10C04CA
:10079000C4F1200500FA04F320FA05F001FA04F28E
:1007A00040EA020001F0004110EBD37041F100017A
:1007B0005EEA430E08BF20EAD37070BDC4F1200585
:1007C00000FA05F24EEA020E20FA04F301FA05F2ED
:1007D00043EA020321FA04F001F0004121FA04F295
:1007E00020EA020000EBD3705EEA430E08BF20EA65
:1007F000D37070BD94F0000F0FD101F0004640009F
:1008000041EB010111F4801F08BF013CF7D041EA20
:10081000060195F0000F18BF704703F00046520024
:1008200043EB030313F4801F08BF013DF7D043EAF5
:100830000603704794EA0C0F0CEA135518BF95EAAB
:100840000C0F0CD050EA410618BF52EA4306D1D132
:1008500081EA030101F000414FF0000070BD50EA51
:10086000410606BF1046194652EA430619D094EADB
:100870000C0F02D150EA013613D195EA0C0F05D1C5
:1008800052EA03361CBF104619460AD181EA030119
:1008900001F0004141F0FE4141F470014FF00000D1
:1008A00070BD41F0FE4141F4780170BD70B54FF06C
:1008B000FF0C4CF4E06C1CEA11541DBF1CEA1355EC
:1008C00094EA0C0F95EA0C0F00F0A7F8A4EB0504CE
:1008D00081EA030E52EA03354FEA013100F08880C5
:1008E0004FEA03334FF0805545EA131343EA12638E
:1008F0004FEA022245EA111545EA10654FEA002643
:100900000EF000419D4208BF964244F1FD0404F5FB
:10091000407402D25B084FEA3202B61A65EB030557
:100920005B084FEA32024FF480104FF4002CB6EB14
:10093000020E75EB030E22BFB61A754640EA0C0094
:100940005B084FEA3202B6EB020E75EB030E22BFD4
:10095000B61A754640EA5C005B084FEA3202B6EB15
:10096000020E75EB030E22BFB61A754640EA9C00D4
:100970005B084FEA3202B6EB020E75EB030E22BFA4
:10098000B61A754640EADC0055EA060E18D04FEA62
:10099000051545EA16754FEA06164FEAC30343EA02
:1009A00052734FEAC2025FEA1C1CC0D111F4801FCF
:1009B0000BD141EA00014FF000004FF0004CB6E7C8
:1009C00011F4801F04BF01430020B4F1FD0C88BF67
:1009D000BCF5E06F3FF6AFAEB5EB030C04BFB6EB72
:1009E000020C5FEA500C50F1000041EB045170BD65
:1009F0000EF0004E4EEA113114EB5C04C2BFD4EB92
:100A00000C0541EA045170BD41F480114FF0000E15
:100A1000013C90E645EA060E8DE60CEA135594EA91
:100A20000C0F08BF95EA0C0F3FF43BAF94EA0C0F94
:100A30000AD150EA01347FF434AF95EA0C0F7FF409
:100A400025AF104619462CE795EA0C0F06D152EA5D
:100A500003353FF4FDAE1046194622E750EA410641
:100A600018BF52EA43067FF4C5AE50EA41047FF452
:100A70000DAF52EA43057FF4EBAE12E74FF0FF3CB7
:100A800006E000BF4FF0010C02E000BF4FF0010C88
:100A90004DF804CD4FEA410C7FEA6C5C4FEA430C01
:100AA00018BF7FEA6C5C1BD001B050EA410C0CBF50
:100AB00052EA430C91EA030F02BF90EA020F0020B2
:100AC000704710F1000F91EA030F58BF994208BF19
:100AD00090422CBFD8176FEAE37040F001007047D6
:100AE0004FEA410C7FEA6C5C02D150EA013C07D12D
:100AF0004FEA430C7FEA6C5CD6D152EA033CD3D078
:100B00005DF8040B704700BF8446104662468C4671
:100B10001946634600E000BF01B5FFF7B7FF0028A4
:100B200048BF10F1000F01BD4DF808EDFFF7F4FFCD
:100B30000CBF012000205DF808FB00BF4DF808ED58
:100B4000FFF7EAFF34BF012000205DF808FB00BF7B
:100B50004DF808EDFFF7E0FF94BF012000205DF89D
:100B600008FB00BF4DF808EDFFF7CEFF94BF012052
:100B700000205DF808FB00BF4DF808EDFFF7C4FF4B
:100B800034BF012000205DF808FB00BF4FEA410C94
:100B90007FEA6C5C02D150EA013C0AD14FEA430C77
:100BA0007FEA6C5C02D152EA033C02D14FF00000B4
:100BB00070474FF0010070474FEA410212F50012F2
:100BC00015D211D56FF47873B3EB625212D94FEA94
:100BD000C12343F0004343EA505311F0004F23FA7E
:100BE00002F018BF404270474FF00000704750EAD3
:100BF000013005D111F0004008BF6FF00040704790
:100C00004FF00000704700BF53B94AB9002908BF30
:100C100000281CBF4FF0FF314FF0FF3000F06AB9E1
:100C2000ADF1080C6DE904CE00F006F8DDF804E043
:100C3000DDE9022304B070472DE9F047089D0C461A
:100C4000002B4ED194468C458646B2FA82F262D988
:100C50004AB1C2F12003914020FA03F30CFA02FCDE
:100C6000194300FA02FE4FEA1C471FFA8CF6B1FB4B
:100C7000F7F44FEA1E4307FB141143EA014304FB58
:100C800006F199420AD91CEB030304F1FF3080F00E
:100C90001281994240F20F81023C6344591A1FFAB3
:100CA0008EF3B1FBF7F007FB101143EA014300FBA1
:100CB00006F69E420AD91CEB030300F1FF3180F0D7
:100CC000FC809E4240F2F980634402389B1B40EA5C
:100CD000044000211DB1D3400022C5E90032BDE827
:100CE000F0878B4205D90DB1C5E900010021084606
:100CF000F5E7B3FA83F1002946D1A34202D390422B
:100D0000C0F0F080861A64EB03030120002DE6D0CA
:100D1000C5E90063E3E7002A40F09080A1EB0C04F2
:100D20004FEA1C481FFA8CF70121B4FBF8F64FEA92
:100D30001E4308FB164443EA044307FB06F09842AF
:100D400008D91CEB030306F1FF3402D2984200F2EB
:100D5000CD8026461C1A1FFA8EF3B4FBF8F008FB70
:100D6000104443EA044300FB07F79F4208D91CEBF9
:100D7000030300F1FF3402D29F4200F2B08020460C
:100D8000DB1B40EA0640A5E7C1F120068B4022FAB2
:100D900006F71F4320FA06FC04FA01F343EA0C03AA
:100DA000F44000FA01F8380C4FEA1349B4FBF0FEA6
:100DB0001FFA87FC00FB1E4449EA04440EFB0CF9B1
:100DC000A14502FA01F20AD93C190EF1FF3A80F06E
:100DD0008480A14540F28180AEF1020E3C44A4EB38
:100DE00009041FFA83F9B4FBF0F300FB134449EA4A
:100DF000044403FB0CFCA44507D93C1903F1FF3064
:100E000067D2A44565D9023B3C4443EA0E40A0FBAF
:100E10000293A4EB0C049C42CE469C4651D34ED088
:100E200055B1B8EB0E0364EB0C0404FA06F6CB40A4
:100E30001E43CC40C5E90064002150E7C2F1200305
:100E400020FA03F10CFA02FC24FA03F394400C4359
:100E50004FEA1C4800FA02FE1FFA8CF7B3FBF8F0C9
:100E600008FB1031230C43EA014300FB07F19942D0
:100E700008D91CEB030300F1FF362CD299422AD982
:100E8000023863445B1AA4B2B3FBF8F108FB1133D8
:100E900044EA034401FB07F3A34208D91CEB040412
:100EA00001F1FF3613D2A34211D902396444E41A86
:100EB00041EA004139E70446F0E6084606E7C8453E
:100EC000AED2B9EB020E63EB070C0138A8E731464E
:100ED000EDE7034699E73046D4E7D6467FE763441B
:100EE00002384DE70646234608460FE7023E6344B4
:100EF00030E700BF704700BF80B500AF07F08DF846
:100F000000BF80BD80B500AF40214FF4807007F076
:100F100053F900BF80BD000080B500AFFFF7F2FFBE
:100F20000021074807F05CF900220021044807F07F
:100F300061FB0021024807F053F900BF80BD00BFEC
:100F40001839002080B582B002AF144807F022FAA9
:100F50002B230193202300930023002210491148E2
:100F600007F0F4FA0F230093142320220E490D48B2
:100F700007F0B8FA0F2300932D2320220B490948CC
:100F800007F0B0FA00220021064807F033FB40F6D4
:100F9000B83002F009F800BFBD4680BD70D000082F
:100FA0000000002018390020A0C50008B0C50008C6
:100FB00080B582B002AF0F4807F0ECF90F23009321
:100FC00014230A220C490D4807F08CFA0F230093D2
:100FD0002D230A220A49094807F084FA0022002139
:100FE000064807F007FB4FF4FA6001F0DDFF00BF91
:100FF000BD4680BD70D00008C4C500081839002067
:10100000CCC5000880B582B002AF1B4807F0C2F91A
:101010000F23009314230A221849194807F062FA93
:101020002A230193282300930A23C8221549144830
:1010300007F08CFA144807F0ADF90F23009314233E
:10104000962212490E4807F04DFA0B4807F0A2F914
:101050000F2300932D230A220D49094807F042FA75
:1010600000220021064807F0C5FA41F2883001F05D
:101070009BFF00BFBD4680BD4CDB0008DCC50008FF
:1010800018390020B0320020F8D40008E8C5000864
:10109000F0C50008B0B582B002AFBE4807F07AF9DB
:1010A0000F2300930A230A22BB49BC4807F01AFA0F
:1010B000BB4807F06FF9BB4B1B681846FFF774FA83
:1010C00004460D46B74B5B681846FFF76DFA0246BB
:1010D0000B46CDE9002322462B46B349B34809F01D
:1010E00025F90F23009337230522B049AB4807F0B9
:1010F000F9F9AF4807F04EF90F23009337239422F4
:10110000AC49A64807F0EEF9A24807F043F90F23CF
:1011100000930823AA22A849A04807F0E3F9402336
:1011200001934023009308239122A4499B4807F090
:101130000DFA00F0BBFD00220021984807F05AFA92
:1011400000230193402300934FF480730022002179
:10115000924807F0F1F88F4807F01CF90F2300932D
:101160000A230A228C498D4807F0BCF98C4807F005
:1011700011F90F230093372305228C49874807F084
:10118000B1F9844807F006F90F230093372394221E
:101190008849824807F0A6F90F2300930823AA2262
:1011A00085497E4807F09EF9402301934023009330
:1011B000082391228249794807F0C8F900F076FDAA
:1011C00000220021754807F015FA002301934023FF
:1011D00000934FF4807300220021704807F0ACF8B0
:1011E0006C4807F0D7F80F2300930A230A226A49B4
:1011F0006A4807F077F96A4807F0CCF80F230093A4
:10120000372305226949654807F06CF9614807F002
:10121000C1F80F2300933723942266495F4807F0F3
:1012200061F90F2300930823AA2263495B4807F062
:1012300059F94023019340230093082391226149E7
:10124000564807F083F900F031FD00220021534891
:1012500007F0D0F900230193402300934FF48073EB
:10126000002200214D4807F067F84A4807F092F83D
:101270000F2300930A230A224749484807F032F90E
:10128000474807F087F80F23009337230522474983
:10129000424807F027F9464807F07CF80F230093EF
:1012A0003723942243493D4807F01CF9394807F099
:1012B00071F80F2300930823AA223F49374807F00B
:1012C00011F94023019340230093082391223E49C2
:1012D000324807F03BF900F0E9FC002200212F48DA
:1012E00007F088F900230193402300934FF48073A3
:1012F00000220021294807F01FF8264807F04AF885
:101300000F2300930A230A222349244807F0EAF80E
:10131000234807F03FF80F23009337230522234982
:101320001E4807F0DFF81B4807F034F80F2300933E
:10133000372394221F49194807F0D4F80F2300934C
:101340000823AA221C49154807F0CCF84023019332
:1013500040230093082391221C49104807F0F6F817
:1013600000F0A4FC002200210C4807F043F9002300
:101370000193402300934FF480730022002107481B
:1013800006F0DAFF034807F005F80F2300930A235D
:101390001EE000BFF8D4000804C600081839002079
:1013A00074120108685A00200CC60008E4380020B6
:1013B0006CE3000814C6000818C60008B00200203C
:1013C000B00A0020B0120020B01A0020B022002085
:1013D0000A222249224807F085F8224806F0DAFF5F
:1013E0000F230093372305221F491D4807F07AF881
:1013F0001E4806F0CFFF0F230093372394221C4989
:10140000174807F06FF81B4806F0C4FF0F2300933E
:101410000823AA221849124807F064F840230193D0
:10142000402300930823912214490D4807F08EF8B9
:1014300000F03CFC00220021094807F0DBF8002303
:101440000193402300934FF480730022002104484D
:1014500006F072FF00BFBD46B0BD00BF04C6000865
:101460001839002074120108E43800206CE30008E9
:1014700014C60008F8D4000818C60008B02A0020D6
:10148000B0B582B002AFBF4806F084FF0F230093CF
:101490000A230A22BC49BD4807F024F8BC4806F0DC
:1014A00079FFBC4B1B681846FFF77EF804460D46D3
:1014B000B84B5B681846FFF777F802460B46CDE954
:1014C000002322462B46B449B44808F02FFF0F23CF
:1014D000009337230522B149AC4807F003F8B04820
:1014E00006F058FF0F23009337239422AD49A748F5
:1014F00006F0F8FFA34806F04DFF0F2300930823E2
:10150000AA22A949A14806F0EDFF402301934023F8
:10151000009308239122A5499C4807F017F800F092
:10152000C5FB00220021994807F064F800230193CD
:10153000402300934FF4807300220021934806F06B
:10154000FBFE322001F030FD8E4806F023FF0F2312
:1015500000930A230A228C498C4806F0C3FF8C486A
:1015600006F018FF0F230093372305228B49874885
:1015700006F0B8FF834806F00DFF0F2300933723D2
:1015800094228849814806F0ADFF0F230093082379
:10159000AA2285497D4806F0A5FF402301934023F8
:1015A0000093082391228249784806F0CFFF00F08B
:1015B0007DFB00220021754807F01CF800230193F1
:1015C000402300934FF48073002200216F4806F0FF
:1015D000B3FE322001F0E8FC6A4806F0DBFE0F2380
:1015E00000930A230A226849684806F07BFF68488E
:1015F00006F0D0FE0F230093372305226749634886
:1016000006F070FF5F4806F0C5FE0F2300933723F6
:10161000942264495D4806F065FF0F230093082378
:10162000AA226149594806F05DFF402301934023F7
:101630000093082391225F49544806F087FF00F089
:1016400035FB00220021514806F0D4FF002301930E
:10165000402300934FF48073002200214B4806F092
:101660006BFE322001F0A0FC464806F093FE0F23EB
:1016700000930A230A224449444806F033FF4448B1
:1016800006F088FE0F2300933723052243493F4885
:1016900006F028FF3B4806F07DFE0F23009337231A
:1016A00094224049394806F01DFF0F230093082378
:1016B000AA223D49354806F015FF402301934023F7
:1016C0000093082391223C49304806F03FFF00F088
:1016D000EDFA002200212D4806F08CFF0023019333
:1016E000402300934FF4807300220021274806F026
:1016F00023FE322001F058FC224806F04BFE0F2357
:1017000000930A230A222049204806F0EBFE2048D5
:1017100006F040FE0F230093372305221F491B4884
:1017200006F0E0FE174806F035FE0F23009337233E
:1017300094221C49154806F0D5FE0F230093082378
:10174000AA221949114806F0CDFE402301934023F7
:1017500000930823912219490C4806F0F7FE00F087
:10176000A5FA00220021094806F044FF0023019356
:10177000402300934FF4807300220021034806F0B9
:10178000DBFD1DE0F8D4000804C60008183900206D
:1017900074120108685A00200CC60008E4380020C2
:1017A0006CE3000814C600081CC60008B002002044
:1017B000B00A0020B0120020B01A0020B022002091
:1017C000322001F0F1FB254806F0E4FD0F230093E1
:1017D0000A230A222249234806F084FE224806F002
:1017E000D9FD0F2300933723052220491D4806F019
:1017F00079FE1A4806F0CEFD0F230093372394227A
:101800001B49184806F06EFE0F2300930823AA22F6
:101810001849144806F066FE4023019340230093C4
:101820000823912214490F4806F090FE00F03EFA7A
:10183000002200210B4806F0DDFE00230193402327
:1018400000934FF4807300220021064806F074FDD7
:10185000322001F0A9FB00BFBD46B0BDF8D400089E
:1018600004C600081839002074120108E43800206A
:1018700014C600081CC60008B02A0020B0B582B00B
:1018800002AFBF4806F086FD0F2300930A230A2209
:10189000BC49BD4806F026FEBC4806F07BFDBC4BAB
:1018A0001B681846FEF780FE04460D46B84B5B6881
:1018B0001846FEF779FE02460B46CDE90023224684
:1018C0002B46B449B44808F031FD0F230093372369
:1018D0000522B149AC4806F005FEA94806F05AFDBC
:1018E0000F23009337239422AC49A74806F0FAFD52
:1018F0000F2300930823AA22A949A34806F0F2FD6A
:10190000402301934023009308239122A5499E4838
:1019100006F01CFE00F0CAF9002200219A4806F0E9
:1019200069FE00230193402300934FF4807300224B
:101930000021954806F000FD642001F035FB904839
:1019400006F028FD0F2300930A230A228D498E48B2
:1019500006F0C8FD8D4806F01DFD0F2300933723C8
:1019600005228D49884806F0BDFD854806F012FD28
:101970000F230093372394228849834806F0B2FD51
:101980000F2300930823AA2285497F4806F0AAFD69
:1019900040230193402300930823912282497A48EF
:1019A00006F0D4FD00F082F900220021764806F00E
:1019B00021FE00230193402300934FF48073002203
:1019C0000021714806F0B8FC642001F0EDFA6C4883
:1019D00006F0E0FC0F2300930A230A2269496A48B3
:1019E00006F080FD694806F0D5FC0F2300933723ED
:1019F00005226949644806F075FD614806F0CAFC95
:101A00000F2300933723942264495F4806F06AFD50
:101A10000F2300930823AA2261495B4806F062FD68
:101A20004023019340230093082391225F495648A5
:101A300006F08CFD00F03AF900220021524806F031
:101A4000D9FD00230193402300934FF480730022BB
:101A500000214D4806F070FC642001F0A5FA4848CA
:101A600006F098FC0F2300930A230A2245494648B2
:101A700006F038FD454806F08DFC0F230093372310
:101A800005224549404806F02DFD3D4806F082FC00
:101A90000F2300933723942240493B4806F022FD50
:101AA0000F2300930823AA223D49374806F01AFD68
:101AB0004023019340230093082391223C4932485C
:101AC00006F044FD00F0F2F8002200212E4806F056
:101AD00091FD00230193402300934FF48073002273
:101AE0000021294806F028FC642001F05DFA244812
:101AF00006F050FC0F2300930A230A2221492248B2
:101B000006F0F0FC214806F045FC0F230093372334
:101B1000052221491C4806F0E5FC194806F03AFC6C
:101B20000F230093372394221C49174806F0DAFC50
:101B30000F2300930823AA221949134806F0D2FC68
:101B400040230193402300930823912219490E4812
:101B500006F0FCFC00F0AAF8002200210A4806F07A
:101B600049FD00230193402300934FF4807300222A
:101B70000021054806F0E0FB642001F015FA1BE0A7
:101B8000F8D4000804C600081839002074120108AF
:101B9000685A00200CC60008E438002014C600086B
:101BA00020C60008B0020020B00A0020B0120020B9
:101BB000B01A0020B0220020254806F0EBFB0F23CE
:101BC00000930A230A222349234806F08BFC23486A
:101BD00006F0E0FB0F2300933723052220491E481F
:101BE00006F080FC1A4806F0D5FB0F23009337233C
:101BF00094221C49184806F075FC0F230093082313
:101C0000AA221949144806F06DFC40230193402391
:101C100000930823912215490F4806F097FC00F025
:101C200045F8002200210C4806F0E4FC0023019353
:101C3000402300934FF4807300220021064806F0F1
:101C40007BFB642001F0B0F900BFBD46B0BD00BF12
:101C5000F8D4000804C600081839002074120108DE
:101C6000E438002014C6000820C60008B02A00206E
:101C700080B500AF06F0B2FE00BF80BD80B500AFFA
:101C8000012006F07BFF4FF4FA6001F08DF900208F
:101C900006F074FF4FF4FA6001F086F900BF80BDD2
:101CA00080B500AF05F036FF00BF80BD90B585B0B0
:101CB00004AF05F007FF264806F06CFB0F230093E6
:101CC0002B23D2222349244806F00CFC234806F09B
:101CD00061FB234B1B781846214B5B781C46204B3D
:101CE0009B781A461E4BDB7819461D4B1B790293D5
:101CF00001910092234602461A491B4808F016FB40
:101D00000F2300933F23C8221749134806F0EAFB2C
:101D1000134B9B791A46124BDB791449144808F08F
:101D200005FB0B4806F036FB0F2300930A23F32232
:101D30001049094806F0D6FB0F2300930A23E62238
:101D40000B49054806F0CEFB00BF0437BD4690BDE9
:101D5000F8D4000824C60008183900206CE30008F5
:101D6000D03800202CC60008F038002038C6000803
:101D70000439002040C6000880B400AF044A13793B
:101D800043F04003137100BFBD465DF8047B70470C
:101D900038380020B0B582B002AF344B1B7903F065
:101DA0004003DBB2002B5DD0314806F0F3FA0F237D
:101DB00000930A230A222F492F4806F093FB2F484D
:101DC00006F0E8FA2E4B1B681846FEF7EDFB0446BA
:101DD0000D462B4B5B681846FEF7E6FB02460B46AA
:101DE000CDE9002322462B462649274808F09EFAD3
:101DF0000F2300933723052223491F4806F072FB67
:101E0000224806F0C7FA0F23009337239422204973
:101E1000194806F067FB164806F0BCFA0F2300933A
:101E20000823AA221B49144806F05CFB40230193B7
:101E3000402300930823912217490F4806F086FBA0
:101E4000FFF734FF002200210B4806F0D3FB0023EC
:101E50000193402300934FF4807300220021064831
:101E600006F06AFA00BFBD46B0BD00BF383800209A
:101E7000F8D4000804C600081839002074120108BC
:101E8000685A00200CC60008E43800206CE3000803
:101E900014C6000844C60008B002002080B500AF98
:101EA0002C4B1B7923F07F03DBB2002B4FD0294B47
:101EB0001B7903F01003DBB2002B09D001220121B2
:101EC000254801F0ADFBFFF7DBFA06F0F3FF3EE03B
:101ED000204B1B7903F00803DBB2002B09D0012251
:101EE00001211D4801F09CFBFFF7C8FC06F0F2FF42
:101EF0002DE0184B1B7903F02003DBB2002B09D037
:101F000001220121144801F08BFBFFF7C3F806F012
:101F1000C1FF1CE0002201210F4801F081FB0821D4
:101F20000E4804F059F90D4B1B680022DA630C21AE
:101F30000A4804F051F9094B1B6800221A64002179
:101F4000074804F049F9064B1B6800225A6300BF9A
:101F500080BD00BF38380020000802404038002013
:101F60008838002080B500AF5A4B1B7903F001037D
:101F7000DBB2002B00F0AC80564B1B7903F0100352
:101F8000DBB2002B26D001220121534801F048FB8F
:101F900001220421514801F043FBFFF771FA06F0DA
:101FA00089FF08214E4804F079F84D4B1B68142234
:101FB000DA630C214A4804F071F8494B1B6814227B
:101FC0001A640021474804F069F8464B1B68142244
:101FD0005A637DE03F4B1B7903F00803DBB2002B13
:101FE00026D0012201213C4801F01AFB01220421E4
:101FF0003A4801F015FBFFF741FC06F06BFF0821A2
:10200000374804F04BF8364B1B681422DA630C2176
:10201000334804F043F8324B1B6814221A64002141
:10202000304804F03BF82F4B1B6814225A634FE0F2
:10203000284B1B7903F02003DBB2002B26D00122B2
:102040000121254801F0ECFA01220421234801F086
:10205000E7FAFFF71FF806F01DFF0821204804F0FB
:102060001DF81F4B1B681422DA630C211C4804F076
:1020700015F81B4B1B6814221A640021194804F040
:102080000DF8184B1B6814225A6321E0002201212D
:10209000114801F0C5FA00220421104801F0C0FAED
:1020A00008210F4804F098F80D4B1B680022DA63F2
:1020B0000C210B4804F090F8094B1B6800221A64AD
:1020C0000021084804F088F8064B1B6800225A6378
:1020D00000BF80BD383800200008024000000240E8
:1020E000403800208838002080B500AF5A4B1B795B
:1020F00003F00203DBB2002B00F0AC80564B1B79DF
:1021000003F01003DBB2002B26D00122012153483B
:1021100001F086FA01220421514801F081FAFFF70B
:10212000AFF906F0C7FE08214E4803F0B7FF4D4B4C
:102130001B682822DA630C214A4803F0AFFF494BA1
:102140001B6828221A640021474803F0A7FF464B6A
:102150001B6828225A637DE03F4B1B7903F008037C
:10216000DBB2002B26D0012201213C4801F058FAB5
:10217000012204213A4801F053FAFFF77FFB06F0F1
:10218000A9FE0821374803F089FF364B1B68282237
:10219000DA630C21334803F081FF324B1B6828229D
:1021A0001A640021304803F079FF2F4B1B68282266
:1021B0005A634FE0284B1B7903F02003DBB2002B5E
:1021C00026D001220121254801F02AFA012204210A
:1021D000234801F025FAFEF75DFF06F05BFE0821BB
:1021E000204803F05BFF1F4B1B682822DA630C2199
:1021F0001C4803F053FF1B4B1B6828221A64002164
:10220000194803F04BFF184B1B6828225A6321E042
:1022100000220121114801F003FA00220421104894
:1022200001F0FEF908210F4803F0D6FF0D4B1B68A3
:102230000022DA630C210B4803F0CEFF094B1B6828
:1022400000221A640021084803F0C6FF064B1B68F1
:1022500000225A6300BF80BD3838002000080240C9
:1022600000000240403800208838002080B500AFD0
:102270005A4B1B7903F00403DBB2002B00F0AC8057
:10228000564B1B7903F01003DBB2002B26D0012242
:102290000121534801F0C4F901220421514801F001
:1022A000BFF9FFF7EDF806F005FE08214E4803F0F0
:1022B000F5FE4D4B1B683C22DA630C214A4803F0C3
:1022C000EDFE494B1B683C221A640021474803F08D
:1022D000E5FE464B1B683C225A637DE03F4B1B7971
:1022E00003F00803DBB2002B26D0012201213C4879
:1022F00001F096F9012204213A4801F091F9FFF723
:10230000BDFA06F0E7FD0821374803F0C7FE364B5B
:102310001B683C22DA630C21334803F0BFFE324BCA
:102320001B683C221A640021304803F0B7FE2F4B93
:102330001B683C225A634FE0284B1B7903F02003B3
:10234000DBB2002B26D001220121254801F068F9DB
:1023500001220421234801F063F9FEF79BFE06F0F9
:1023600099FD0821204803F099FE1F4B1B683C2271
:10237000DA630C211C4803F091FE1B4B1B683C22C6
:102380001A640021194803F089FE184B1B683C228F
:102390005A6321E000220121114801F041F9002295
:1023A0000421104801F03CF908210F4803F014FF04
:1023B0000D4B1B680022DA630C210B4803F00CFF65
:1023C000094B1B6800221A640021084803F004FF2F
:1023D000064B1B6800225A6300BF80BD38380020BE
:1023E00000080240000002404038002088380020E9
:1023F00080B500AF114B124A1A60104B4FF4E13216
:102400005A600E4B00229A600C4B0022DA600B4B94
:1024100000221A61094B0C225A61084B00229A6172
:10242000064B0022DA61054804F026FC0346002B27
:1024300001D000F0E9F900BF80BD00BFF0370020F7
:102440000010014080B500AF06F0E4FD024804F042
:102450006BFC00BF80BD00BFF037002080B58AB0A4
:1024600000AF07F1140300221A605A609A60DA6024
:102470001A6100233B614F4B1B6B4E4A43F0040330
:1024800013634C4B1B6B03F004033B613B6900235C
:10249000FB60484B1B6B474A43F080031363454B7B
:1024A0001B6B03F08003FB60FB680023BB60414BA8
:1024B0001B6B404A43F0010313633E4B1B6B03F05D
:1024C0000103BB60BB6800237B603A4B1B6B394A3E
:1024D00043F002031363374B1B6B03F002037B6073
:1024E0007B6800223021344801F09AF80022102144
:1024F000324801F095F801237B610123BB61002381
:10250000FB6100233B6207F1140319462A4800F0DF
:1025100013FF30237B610123BB610023FB61002398
:102520003B6207F114031946234800F005FF4FF4FE
:1025300070437B614FF44413BB610123FB6107F1DE
:10254000140319461E4800F0F7FE4FF400637B6148
:102550000023BB610123FB6107F1140319461748EF
:1025600000F0EAFE4FF470737B614FF44413BB61DB
:102570000123FB6107F1140319460F4800F0DCFE4C
:1025800000220021172000F00EFE172000F027FE89
:1025900014237B610123BB610123FB6100233B62A8
:1025A00007F114031946054800F0C6FE00BF28379E
:1025B000BD4680BD003802400008024000000240D5
:1025C0000004024080B500AF124B134A1A60114B51
:1025D000124A5A600F4B00229A600E4B0022DA60BA
:1025E0000C4B4FF480421A610A4B00225A61094B8E
:1025F00000229A61074B0022DA61064B00221A6220
:10260000044801F027F80346002B01D000F0FCF845
:1026100000BF80BDB459002000540040A0860100D6
:1026200080B58AB000AF786007F1140300221A6009
:102630005A609A60DA601A617B681B68194A934293
:102640002BD100233B61184B1B6B174A43F002034D
:102650001363154B1B6B03F002033B613B69C02303
:102660007B611223BB610023FB6103233B620423D4
:102670007B6207F1140319460C4800F05DFE00234D
:10268000FB60094B1B6C084A43F400131364064BB0
:102690001B6C03F40013FB60FB6800BF2837BD46CA
:1026A00080BD00BF005400400038024000040240DA
:1026B00080B500AF00F006FCFFF7D0FEFFF782FF09
:1026C000FFF7D6FA05F080FA00F032F800F0A2F831
:1026D000FEF712FCFFF78CFEFEF71EFCFEF732FC45
:1026E000FFF7CCFA06F002FAFFF746FBFEF714FC00
:1026F000FEF788FCFEF710FCFEF75AFCFEF70CFC18
:1027000006F0BAFFFFF7CCFA06F024FB06F070FAE9
:1027100006F0D4FA07F06EF8FFF73CFBFFF7BEFBBC
:10272000FFF720FCFFF7E0FCFFF7A0FD00BFF1E79B
:1027300080B594B000AF07F11C0334220021184685
:1027400007F057FE07F1080300221A605A609A60EA
:10275000DA601A6100237B60294B1B6C284A43F026
:1027600080531364264B1B6C03F080537B607B68A3
:1027700000233B60234B1B68224A43F44043136011
:10278000204B1B6803F440433B603B680923FB611B
:102790004FF480333B6201233B6302237B634FF49E
:1027A0008003BB630423FB6332233B6402237B640B
:1027B0000423BB640223FB6407F11C03184602F0E8
:1027C00097FB0346002B01D000F01EF80F23BB60DF
:1027D0000223FB6000233B6100237B610023BB617C
:1027E00007F108030121184602F086F80346002B82
:1027F00001D000F009F800BF5037BD4680BD00BFD2
:10280000003802400070004080B400AF72B600BFD4
:1028100000BFFDE780B500AF174B184A1A60164B92
:102820004FF482725A60144B00229A60124B0022BD
:10283000DA60114B02221A610F4B01225A610E4BD2
:102840004FF400729A610C4B1022DA610A4B00229D
:102850001A62094B00225A62074B00229A62064B09
:102860000F22DA62044803F0D3F80346002B01D0AC
:10287000FFF7CAFF00BF80BD18590020003001409B
:1028800080B58AB000AF786007F1140300221A60A7
:102890005A609A60DA601A617B681B68194A934231
:1028A0002BD100233B61184B5B6C174A43F48053D8
:1028B0005364154B5B6C03F480533B613B6900230D
:1028C000FB60114B1B6B104A43F0010313630E4B6B
:1028D0001B6B03F00103FB60FB68A0237B610223F9
:1028E000BB610023FB6103233B6205237B6207F18D
:1028F00014031946054800F01FFD00BF2837BD46E8
:1029000080BD00BF0030014000380240000002409E
:1029100080B485B000AF78607B681B680B4A934237
:102920000DD10023FB600A4B1B6C094A43F00803DE
:102930001364074B1B6C03F00803FB60FB6800BFCC
:102940001437BD465DF8047B704700BF000C0040A3
:102950000038024080B485B000AF78607B681B68A7
:10296000144A93420DD10023FB60134B5B6C124A57
:1029700043F001035364104B5B6C03F00103FB60F5
:10298000FB687B681B680D4A93420DD10023BB6036
:10299000094B5B6C084A43F480235364064B5B6C21
:1029A00003F48023BB60BB6800BF1437BD465DF8ED
:1029B000047B70470000014000380240004801409D
:1029C00080B58CB000AF786007F11C0300221A605C
:1029D0005A609A60DA601A617B681B68474A9342C2
:1029E0001FD10023BB61464B1B6B454A43F00103DB
:1029F0001363434B1B6B03F00103BB61BB694FF4D3
:102A00008073FB6102233B6200237B620023BB6275
:102A10000123FB6207F11C0319463A4800F08CFCC5
:102A200067E07B681B68384A93423ED100237B6194
:102A3000334B1B6B324A43F004031363304B1B6B65
:102A400003F004037B617B6900233B612C4B1B6B10
:102A50002B4A43F002031363294B1B6B03F0020361
:102A60003B613B694FF40063FB6102233B6200233F
:102A70007B620023BB620223FB6207F11C03194641
:102A8000224800F059FC4FF40063FB6102233B62D3
:102A900000237B620023BB620223FB6207F11C035D
:102AA00019461B4800F048FC23E07B681B68194A64
:102AB00093421ED10023FB60114B1B6B104A43F065
:102AC000020313630E4B1B6B03F00203FB60FB68F6
:102AD0004FF40073FB6102233B6200237B620023FF
:102AE000BB620323FB6207F11C031946084800F090
:102AF00023FC00BF3037BD4680BD00BF0000014051
:102B00000038024000000240000C00400008024073
:102B1000000402400048014080B582B000AF0023AD
:102B20007B60104B5B6C0F4A43F4804353640D4B46
:102B30005B6C03F480437B607B6800233B60094B44
:102B40001B6C084A43F080531364064B1B6C03F064
:102B500080533B603B68072000F01AFB00BF08373A
:102B6000BD4680BD0038024080B588B000AF7860B7
:102B700007F1080300221A605A609A60DA601A614D
:102B80005A617B681B680C4A934211D10423BB60D5
:102B90004FF400733B6107F10803184602F0CCF8CC
:102BA0000346002B01D0FFF72FFE044B01221A60D1
:102BB00000BF2037BD4680BD002800403C0E474284
:102BC00080B58AB000AF786007F1140300221A6064
:102BD0005A609A60DA601A617B681B681D4A9342EA
:102BE00034D100233B611C4B5B6C1B4A43F0100348
:102BF0005364194B5B6C03F010033B613B6900238A
:102C0000FB60154B1B6B144A43F001031363124B1B
:102C10001B6B03F00103FB60FB684FF400737B61E7
:102C20001223BB610023FB6103233B6207237B620A
:102C300007F114031946094800F07EFB0022002129
:102C4000252000F0B0FA252000F0C9FA00BF28378F
:102C5000BD4680BD00100140003802400000024027
:102C600080B400AF00BFFDE780B400AF00BFFDE758
:102C700080B400AF00BFFDE780B400AF00BFFDE748
:102C800080B400AF00BFFDE780B400AF00BFBD4619
:102C90005DF8047B704780B400AF00BFBD465DF8AF
:102CA000047B704780B400AF00BFBD465DF8047B75
:102CB000704780B500AF00F057F900BF80BD80B409
:102CC00000AF01231846BD465DF8047B704780B510
:102CD00082B000AF7860396007F0DEFB0346162251
:102CE0001A604FF0FF3318460837BD4680BD80B5E7
:102CF00082B000AF78604FF0FF317868FFF7E7FFF0
:102D000000BFFDE780B586B000AFF860B9607A60BB
:102D100000237B610AE0AFF300800146BB685A1CC8
:102D2000BA60CAB21A707B6901337B617A697B68C9
:102D30009A42F0DB7B6818461837BD4680BD80B5E7
:102D400086B000AFF860B9607A6000237B6109E06B
:102D5000BB685A1CBA601B781846AFF300807B69C9
:102D600001337B617A697B689A42F1DB7B681846A4
:102D70001837BD4680BD80B483B000AF78604FF097
:102D8000FF3318460C37BD465DF8047B704780B4AE
:102D900083B000AF786039603B684FF400525A60EE
:102DA000002318460C37BD465DF8047B704780B49D
:102DB00083B000AF7860012318460C37BD465DF83C
:102DC000047B704780B485B000AFF860B9607A606A
:102DD000002318461437BD465DF8047B7047000099
:102DE00080B586B000AF7860144A154BD31A7B616A
:102DF0007B693B61134B1B68002B02D1114B124ABC
:102E00001A60104B1A687B6813443A699A4207D2D9
:102E100007F042FB03460C221A604FF0FF3309E033
:102E2000084B1B68FB60074B1A687B681344054A14
:102E30001360FB6818461837BD4680BD008000202F
:102E40000004000070590020005C002080B400AF36
:102E5000064BD3F88830054A43F47003C2F8883033
:102E600000BFBD465DF8047B704700BF00ED00E089
:102E7000DFF834D0FFF7EAFF0C480D490D4A002374
:102E800002E0D458C4500433C4188C42F9D30A4A1F
:102E90000A4C002301E013600432A242FBD307F086
:102EA00001FBFFF705FC70470080002000000020B8
:102EB000D437002020160108D4370020005C002001
:102EC000FEE7000080B500AF0E4B1B680D4A43F4CF
:102ED000007313600B4B1B680A4A43F48063136052
:102EE000084B1B68074A43F480731360032000F00B
:102EF0004FF9002000F008F8FFF70EFE00231846F7
:102F000080BD00BF003C024080B582B000AF786059
:102F1000124B1A68124B1B7819464FF47A73B3FBA5
:102F2000F1F3B2FBF3F3184600F067F90346002B08
:102F300001D001230EE07B680F2B0AD800227968AC
:102F40004FF0FF3000F02FF9064A7B681360002332
:102F500000E0012318460837BD4680BDF835002043
:102F600000360020FC35002080B400AF064B1B78F3
:102F70001A46064B1B681344044A136000BFBD4643
:102F80005DF8047B704700BF0036002074590020B4
:102F900080B400AF034B1B681846BD465DF8047B48
:102FA000704700BF7459002080B584B000AF7860CE
:102FB000FFF7EEFFB8607B68FB60FB68B3F1FF3F93
:102FC00005D00A4B1B781A46FB681344FB6000BF10
:102FD000FFF7DEFF0246BB68D31AFA689A42F7D8B9
:102FE00000BF00BF1037BD4680BD00BF00360020C7
:102FF00080B485B000AF78607B6803F00703FB60A6
:103000000C4BDB68BB60BA684FF6FF031340BB6034
:10301000FB681A02BB68134343F0BF6343F40033F9
:10302000BB60044ABB68D36000BF1437BD465DF87F
:10303000047B704700ED00E080B400AF044BDB6818
:103040001B0A03F007031846BD465DF8047B704772
:1030500000ED00E080B483B000AF0346FB7197F948
:103060000730002B0BDBFB7903F01F02074997F9B0
:1030700007305B09012000FA02F241F8232000BF6B
:103080000C37BD465DF8047B704700BF00E100E0EF
:1030900080B483B000AF03463960FB7197F9073005
:1030A000002B0ADB3B68DAB20C4997F907301201B2
:1030B000D2B20B4483F800230AE03B68DAB2084935
:1030C000FB7903F00F03043B1201D2B20B441A76D2
:1030D00000BF0C37BD465DF8047B704700E100E09F
:1030E00000ED00E080B489B000AFF860B9607A60AC
:1030F000FB6803F00703FB61FB69C3F10703042BC3
:1031000028BF0423BB61FB690433062B02D9FB698A
:10311000033B00E000237B614FF0FF32BB6902FA02
:1031200003F3DA43BB681A407B699A404FF0FF31E2
:103130007B6901FA03F3D9437B680B4013431846BC
:103140002437BD465DF8047B7047000080B582B02F
:1031500000AF78607B68013BB3F1807F01D301232E
:103160000FE00A4A7B68013B53600F214FF0FF30AC
:10317000FFF78EFF054B00229A60044B07221A606E
:10318000002318460837BD4680BD00BF10E000E0B0
:1031900080B582B000AF78607868FFF729FF00BF84
:1031A0000837BD4680BD80B586B000AF0346B96024
:1031B0007A60FB7300237B61FFF73EFF78617A68DA
:1031C000B9687869FFF78EFF024697F90F3011460C
:1031D0001846FFF75DFF00BF1837BD4680BD80B5BC
:1031E00082B000AF0346FB7197F907301846FFF72E
:1031F00031FF00BF0837BD4680BD80B582B000AF4B
:1032000078607868FFF7A2FF034618460837BD4686
:1032100080BD80B584B000AF78607B689B6DFB603B
:10322000FFF7B6FEB8607B6893F83530DBB2022B4F
:1032300008D07B6880225A657B68002283F834209E
:10324000012352E07B681B681A687B681B6822F0C8
:1032500016021A607B681B685A697B681B6822F03B
:1032600080025A617B681B6C002B03D17B689B6CCE
:10327000002B07D07B681B681A687B681B6822F0EC
:1032800008021A607B681B681A687B681B6822F05A
:1032900001021A6013E0FFF77BFE0246BB68D31AF7
:1032A000052B0CD97B6820225A657B68032283F8A2
:1032B00035207B68002283F83420032315E07B68E7
:1032C0001B681B6803F00103002BE4D17B68DB6DF6
:1032D0003F229A40FB689A607B68012283F8352080
:1032E0007B68002283F83420002318461037BD463F
:1032F00080BD80B483B000AF78607B6893F83530D0
:10330000DBB2022B04D07B6880225A6501230CE0DB
:103310007B68052283F835207B681B681A687B6808
:103320001B6822F001021A60002318460C37BD46C4
:103330005DF8047B7047000080B489B000AF78600E
:10334000396000237B6100233B610023BB610023C4
:10335000FB614DE10122FB6902FA03F37B613B68EB
:103360001B687A6913403B613A697B699A4240F075
:103370003C813B685B6803F00303012B05D03B688D
:103380005B6803F00303022B30D17B689B68BB6151
:10339000FB695B00032202FA03F3DB43BA691340C3
:1033A000BB613B68DA68FB695B0002FA03F3BA6948
:1033B0001343BB617B68BA699A607B685B68BB61D9
:1033C0000122FB6902FA03F3DB43BA691340BB61D4
:1033D0003B685B681B0903F00102FB6902FA03F317
:1033E000BA691343BB617B68BA695A603B685B6822
:1033F00003F00303032B17D07B68DB68BB61FB6919
:103400005B00032202FA03F3DB43BA691340BB619A
:103410003B689A68FB695B0002FA03F3BA691343DD
:10342000BB617B68BA69DA603B685B6803F00303E1
:10343000022B23D1FB69DA087B68083253F822306B
:10344000BB61FB6903F007039B000F2202FA03F341
:10345000DB43BA691340BB613B681A69FB6903F03F
:1034600007039B0002FA03F3BA691343BB61FB69CC
:10347000DA087B680832B96943F822107B681B6858
:10348000BB61FB695B00032202FA03F3DB43BA6909
:103490001340BB613B685B6803F00302FB695B00A0
:1034A00002FA03F3BA691343BB617B68BA691A6015
:1034B0003B685B6803F44033002B00F096800023E8
:1034C000FB60514B5B6C504A43F4804353644E4B5A
:1034D0005B6C03F48043FB60FB684C4AFB699B0810
:1034E000023352F82330BB61FB6903F003039B00F6
:1034F0000F2202FA03F3DB43BA691340BB617B6816
:10350000434A93420DD07B68424A934207D07B687E
:10351000414A934201D1022304E0072302E0012340
:1035200000E00023FA6902F0030292009340BA69B6
:103530001343BB613549FB699B080233BA6941F803
:103540002320364B9B68BB613B69DB43BA69134060
:10355000BB613B685B6803F48013002B03D0BA693E
:103560003B691343BB612D4ABB6993602B4BDB68FE
:10357000BB613B69DB43BA691340BB613B685B6875
:1035800003F40013002B03D0BA693B691343BB61FA
:10359000224ABB69D360214B5B68BB613B69DB435B
:1035A000BA691340BB613B685B6803F40033002BCE
:1035B00003D0BA693B691343BB61184ABB695360C6
:1035C000164B1B68BB613B69DB43BA691340BB61A7
:1035D0003B685B6803F48033002B03D0BA693B6916
:1035E0001343BB610D4ABB691360FB690133FB6187
:1035F000FB690F2B7FF6AEAE00BF00BF2437BD4680
:103600005DF8047B704700BF00380240003801407D
:10361000000002400004024000080240003C01405B
:1036200080B483B000AF78600B467B8013467B701C
:103630007B78002B03D07A887B689A6103E07B88D3
:103640001A047B689A6100BF0C37BD465DF8047BA5
:103650007047000080B584B000AF78607B68002BB5
:1036600001D101232BE17B6893F83D30DBB2002BC5
:1036700006D17B68002283F83C207868FEF7D0FFF3
:103680007B68242283F83D207B681B681A687B686E
:103690001B6822F001021A607B681B681A687B684D
:1036A0001B6842F400421A607B681B681A687B68DA
:1036B0001B6822F400421A6001F016FBF8607B6878
:1036C0005B68814A934207D8FB68804A934294BF63
:1036D00001230023DBB206E0FB687D4A934294BFDE
:1036E00001230023DBB2002B01D00123E7E0FB68BC
:1036F000784AA2FB03239B0CBB607B681B685B685A
:1037000023F03F017B681B68BA680A435A607B68F4
:103710001B681B6A23F03F017B685B686A4A93421F
:1037200002D8BB68013309E0BB684FF4967202FB14
:1037300003F3694AA2FB03239B0901337A681268E9
:103740000B4313627B681B68DB6923F44F4222F052
:10375000FF027B685B685C498B4219D8FB68591E85
:103760007B685B685B00B1FBF3F3591C40F6FC73AC
:103770000B40002B0AD0FB68591E7B685B685B001E
:10378000B1FBF3F30133C3F30B0351E004234FE028
:103790007B689B68002B11D1FB68581E7B685968B9
:1037A0000B465B000B44B0FBF3F30133C3F30B0395
:1037B000002B0CBF01230023DBB212E0FB68581E74
:1037C0007B6859680B469B000B4499000B44B0FB87
:1037D000F3F30133C3F30B03002B0CBF01230023CE
:1037E000DBB2002B01D0012322E07B689B68002B19
:1037F0000ED1FB68581E7B6859680B465B000B4472
:10380000B0FBF3F30133C3F30B0343F400430FE0C6
:10381000FB68581E7B6859680B469B000B44990057
:103820000B44B0FBF3F30133C3F30B0343F4404306
:10383000796809681343CB617B681B681B6823F0B8
:10384000C0017B68DA697B681B6A1A437B681B6866
:103850000A431A607B681B689B6823F4034323F0C8
:10386000FF037A6811697A68D26811437A6812682E
:103870000B4393607B681B68DB6823F0FF017B6868
:103880005A697B689B691A437B681B680A43DA6044
:103890007B681B681A687B681B6842F001021A602B
:1038A0007B6800221A647B68202283F83D207B68B5
:1038B00000221A637B68002283F83E20002318460A
:1038C0001037BD4680BD00BFA08601007F841E006A
:1038D000FF083D0083DE1B43D34D621080B588B0E6
:1038E00002AFF860084611461A4603467B810B4634
:1038F0003B811346FB80FFF74BFB7861FB6893F835
:103900003D30DBB2202B40F0D9807B690093192336
:1039100001226D49F86800F0B9FD0346002B01D083
:103920000223CCE0FB6893F83C30012B01D1022349
:10393000C5E0FB68012283F83C20FB681B681B681C
:1039400003F00103012B07D0FB681B681A68FB68B2
:103950001B6842F001021A60FB681B681A68FB686A
:103960001B6822F400621A60FB68212283F83D2064
:10397000FB68402283F83E20FB6800221A64FB6843
:103980003A6A5A62FB68BA8C5A85FB685B8D9AB2B8
:10399000FB681A85FB684D4ADA62F8883A897989AA
:1039A0007B690193BB6A00930346F86800F0F0FB63
:1039B0000346002B52D0012381E07A69B96AF86886
:1039C00000F07EFE0346002B0DD0FB681B6C042B21
:1039D00007D1FB681B681A68FB681B6842F4007219
:1039E0001A6001236BE0FB685B6A1A78FB681B684E
:1039F0001A61FB685B6A5A1CFB685A62FB681B8D84
:103A0000013B9AB2FB681A85FB685B8D9BB2013B58
:103A10009AB2FB685A85FB681B685B6903F0040374
:103A2000042B1BD1FB681B8D002B17D0FB685B6A36
:103A30001A78FB681B681A61FB685B6A5A1CFB6892
:103A40005A62FB681B8D013B9AB2FB681A85FB68C2
:103A50005B8D9BB2013B9AB2FB685A85FB681B8D5C
:103A6000002BAAD17A69B96AF86800F071FE0346A2
:103A7000002B0DD0FB681B6C042B07D1FB681B6867
:103A80001A68FB681B6842F400721A60012316E092
:103A9000FB681B681A68FB681B6842F400721A60B6
:103AA000FB68202283F83D20FB68002283F83E203B
:103AB000FB68002283F83C20002300E00223184624
:103AC0001837BD4680BD00BF020010000000FFFF98
:103AD00080B58CB002AFF860084611461A4603461E
:103AE0007B810B463B811346FB80FFF751FA7862DE
:103AF000FB6893F83D30DBB2202B40F014827B6AE8
:103B00000093192301227B49F86800F0BFFC0346AB
:103B1000002B01D0022307E2FB6893F83C30012B15
:103B200001D1022300E2FB68012283F83C20FB68FC
:103B30001B681B6803F00103012B07D0FB681B689F
:103B40001A68FB681B6842F001021A60FB681B6878
:103B50001A68FB681B6822F400621A60FB68222264
:103B600083F83D20FB68402283F83E20FB6800225A
:103B70001A64FB683A6B5A62FB68BA8E5A85FB6816
:103B80005B8D9AB2FB681A85FB685B4ADA62F8883B
:103B90003A8979897B6A0193BB6B00930346F86885
:103BA00000F08CFB0346002B01D00123BCE1FB6835
:103BB0001B8D002B13D100233B62FB681B685B69E4
:103BC0003B62FB681B689B693B623B6AFB681B6846
:103BD0001A68FB681B6842F400721A6090E1FB6887
:103BE0001B8D012B1BD1FB681B681A68FB681B68C7
:103BF00022F480621A600023FB61FB681B685B692A
:103C0000FB61FB681B689B69FB61FB69FB681B68C8
:103C10001A68FB681B6842F400721A6070E1FB6866
:103C20001B8D022B1BD1FB681B681A68FB681B6885
:103C300022F480621A60FB681B681A68FB681B68C4
:103C400042F400621A600023BB61FB681B685B6979
:103C5000BB61FB681B689B69BB61BB6950E10023CA
:103C60007B61FB681B685B697B61FB681B689B6908
:103C70007B617B6944E1FB681B8D032B00F2F180C3
:103C8000FB681B8D012B23D17A6AB96BF86800F0B1
:103C9000A7FD0346002B01D0012345E1FB681B680B
:103CA0001A69FB685B6AD2B21A70FB685B6A5A1CBD
:103CB000FB685A62FB681B8D013B9AB2FB681A8550
:103CC000FB685B8D9BB2013B9AB2FB685A8517E19A
:103CD000FB681B8D022B4ED17B6A0093BB6B0022CD
:103CE0000649F86800F0D2FB0346002B08D00123F8
:103CF0001AE100BF020010000000FFFF04000100F5
:103D0000FB681B681A68FB681B6842F400721A6043
:103D1000FB681B681A69FB685B6AD2B21A70FB68A1
:103D20005B6A5A1CFB685A62FB681B8D013B9AB2A6
:103D3000FB681A85FB685B8D9BB2013B9AB2FB68FE
:103D40005A85FB681B681A69FB685B6AD2B21A70F5
:103D5000FB685B6A5A1CFB685A62FB681B8D013B5F
:103D60009AB2FB681A85FB685B8D9BB2013B9AB2E5
:103D7000FB685A85C4E07B6A0093BB6B00226C49E8
:103D8000F86800F083FB0346002B01D00123CBE051
:103D9000FB681B681A68FB681B6822F480621A6063
:103DA000FB681B681A69FB685B6AD2B21A70FB6811
:103DB0005B6A5A1CFB685A62FB681B8D013B9AB216
:103DC000FB681A85FB685B8D9BB2013B9AB2FB686E
:103DD0005A857B6A0093BB6B00225549F86800F056
:103DE00055FB0346002B01D001239DE0FB681B68B7
:103DF0001A68FB681B6842F400721A60FB681B6853
:103E00001A69FB685B6AD2B21A70FB685B6A5A1C5B
:103E1000FB685A62FB681B8D013B9AB2FB681A85EE
:103E2000FB685B8D9BB2013B9AB2FB685A85FB68CD
:103E30001B681A69FB685B6AD2B21A70FB685B6A1E
:103E40005A1CFB685A62FB681B8D013B9AB2FB68E7
:103E50001A85FB685B8D9BB2013B9AB2FB685A8561
:103E60004EE07A6AB96BF86800F0BAFC0346002BA2
:103E700001D0012358E0FB681B681A69FB685B6A84
:103E8000D2B21A70FB685B6A5A1CFB685A62FB6804
:103E90001B8D013B9AB2FB681A85FB685B8D9BB258
:103EA000013B9AB2FB685A85FB681B685B6903F0AB
:103EB0000403042B24D1FB681B8D032B07D1FB6863
:103EC0001B681A68FB681B6822F480621A60FB6832
:103ED0001B681A69FB685B6AD2B21A70FB685B6A7E
:103EE0005A1CFB685A62FB681B8D013B9AB2FB6847
:103EF0001A85FB685B8D9BB2013B9AB2FB685A85C1
:103F0000FB681B8D002B7FF4B6AEFB68202283F884
:103F10003D20FB68002283F83E20FB68002283F8E6
:103F20003C20002300E0022318462837BD4680BD10
:103F30000400010080B58AB002AFF8607A603B608F
:103F40000B467B81FFF724F8F8610023BB61FB6817
:103F500093F83D30DBB2202B40F01181FB690093D8
:103F6000192301228849F86800F090FA0346002BD3
:103F700001D0022304E1FB6893F83C30012B01D10E
:103F80000223FDE0FB68012283F83C20FB681B68EC
:103F90001B6803F00103012B07D0FB681B681A683C
:103FA000FB681B6842F001021A60FB681B681A6814
:103FB000FB681B6822F400621A60FB68242283F805
:103FC0003D20FB6800221A64FB68704ADA62FB68D5
:103FD0001B681A68FB681B6842F480721A60FB69F0
:103FE00000933B6800224FF00111F86800F04EFA90
:103FF0000346002B0DD0FB681B681B6803F480731D
:10400000B3F5807F03D1FB684FF400721A64032379
:10401000B6E07B89DBB21A46FB681B6802F0FE0241
:104020001A61FEF7B5FFF861FB681B685B6903F076
:104030000203022B0CBF01230023DBB2FB75FB68DC
:104040001B685B6903F48063B3F5806F0CBF0123C9
:104050000023DBB2BB7525E0FEF79AFF0246FB6941
:10406000D31A3A689A4202D33B68002B03D1FB680B
:10407000A02283F83D20FB681B685B6903F0020304
:10408000022B0CBF01230023DBB2FB75FB681B680E
:104090005B6903F48063B3F5806F0CBF01230023D9
:1040A000DBB2BB75FB6893F83D30DBB2A02B05D0CB
:1040B000FB7D002B02D1BB7D002BCDD0FB682022E5
:1040C00083F83D20FB681B685B6903F00203022B49
:1040D00029D1FB681B681A68FB681B6842F40072F0
:1040E0001A6000233B61FB681B685B693B61FB68EE
:1040F0001B689B693B613B69FB69009319230122A3
:104100002149F86800F0C2F90346002B01D00123D1
:1041100036E0FB68202283F83D20FB68002283F80C
:104120003C2000232CE0FB681B681A68FB681B68B6
:1041300042F400721A60FB681B686FF480625A6177
:10414000FB690093192301220F49F86800F09EF9DA
:104150000346002B01D0012312E0BB690133BB6190
:10416000BA697B689A42FFF432AFFB68202283F879
:104170003D20FB68002283F83C20012300E002235D
:1041800018462037BD4680BD020010000000FFFF2A
:1041900080B588B002AFF860084611461A4603465B
:1041A0007B810B463B811346FB80FB681B681A68CA
:1041B000FB681B6842F480721A607B6A00933B6A5A
:1041C00000224FF00111F86800F060F90346002B5F
:1041D0000DD0FB681B681B6803F48073B3F5807F08
:1041E00003D1FB684FF400721A6403235FE07B89FC
:1041F000DBB21A46FB681B6802F0FE021A617B6A9A
:104200003A6A2D49F86800F0BBF90346002B01D04B
:1042100001234CE000237B61FB681B685B697B61C9
:10422000FB681B689B697B617B697A6A396AF868FD
:1042300000F046FA0346002B0DD0FB681B6C042BE4
:1042400007D1FB681B681A68FB681B6842F40072A0
:104250001A6001232BE0FB88012B05D13B89DAB2E0
:10426000FB681B681A6121E03B891B0A9BB2DAB22A
:10427000FB681B681A617A6A396AF86800F020FAEC
:104280000346002B0DD0FB681B6C042B07D1FB6889
:104290001B681A68FB681B6842F400721A600123ED
:1042A00005E03B89DAB2FB681B681A6100231846F7
:1042B0001837BD4680BD00BF0200010080B588B040
:1042C00002AFF860084611461A4603467B810B464A
:1042D0003B811346FB80FB681B681A68FB681B6800
:1042E00042F480621A60FB681B681A68FB681B68EE
:1042F00042F480721A607B6A00933B6A00224FF09E
:104300000111F86800F0C2F80346002B0DD0FB68DD
:104310001B681B6803F48073B3F5807F03D1FB68CF
:104320004FF400721A640323AAE07B89DBB21A46B9
:10433000FB681B6802F0FE021A617B6A3A6A524906
:10434000F86800F01DF90346002B01D0012397E027
:1043500000237B61FB681B685B697B61FB681B68F2
:104360009B697B617B697A6A396AF86800F0A8F911
:104370000346002B0DD0FB681B6C042B07D1FB6898
:104380001B681A68FB681B6842F400721A600123FC
:1043900076E0FB88012B05D13B89DAB2FB681B680C
:1043A0001A6121E03B891B0A9BB2DAB2FB681B68E9
:1043B0001A617A6A396AF86800F082F90346002BBC
:1043C0000DD0FB681B6C042B07D1FB681B681A68B7
:1043D000FB681B6842F400721A60012350E03B89BD
:1043E000DAB2FB681B681A617A6A396AF86800F009
:1043F00067F90346002B0DD0FB681B6C042B07D11B
:10440000FB681B681A68FB681B6842F400721A603C
:10441000012335E0FB681B681A68FB681B6842F4DF
:1044200080721A607B6A00933B6A00224FF0011190
:10443000F86800F02BF80346002B0DD0FB681B68D2
:104440001B6803F48073B3F5807F03D1FB684FF4DE
:1044500000721A64032313E07B89DBB243F001038B
:10446000DAB2FB681B681A617B6A3A6A0649F86827
:1044700000F086F80346002B01D0012300E0002362
:1044800018461837BD4680BD0200010080B584B0D3
:1044900000AFF860B9603B601346FB7148E03B68D1
:1044A000B3F1FF3F44D0FEF773FD0246BB69D31A58
:1044B0003A689A4202D33B68002B39D1BB681B0C87
:1044C000DBB2012B0DD1FB681B685B69DA43BB686B
:1044D00013409BB2002B0CBF01230023DBB21A4612
:1044E0000CE0FB681B689B69DA43BB6813409BB216
:1044F000002B0CBF01230023DBB21A46FB799A4242
:1045000016D1FB6800221A63FB68202283F83D2045
:10451000FB68002283F83E20FB681B6C43F02002FE
:10452000FB681A64FB68002283F83C20012323E027
:10453000BB681B0CDBB2012B0DD1FB681B685B69F0
:10454000DA43BB6813409BB2002B0CBF012300234E
:10455000DBB21A460CE0FB681B689B69DA43BB6858
:1045600013409BB2002B0CBF01230023DBB21A4681
:10457000FB799A4293D0002318461037BD4680BD80
:1045800080B584B000AFF860B9607A603B6071E0DC
:10459000FB681B685B6903F48063B3F5806F23D10C
:1045A000FB681B681A68FB681B6842F400721A609B
:1045B000FB681B686FF480625A61FB6800221A6313
:1045C000FB68202283F83D20FB68002283F83E2010
:1045D000FB681B6C43F00402FB681A64FB68002252
:1045E00083F83C20012367E07B68B3F1FF3F41D0B3
:1045F000FEF7CEFC02463B68D31A7A689A4202D391
:104600007B68002B36D1BB681B0CDBB2012B0CD1B5
:10461000FB681B685B69DA43BB6813409BB2002BE5
:1046200014BF01230023DBB20BE0FB681B689B690E
:10463000DA43BB6813409BB2002B14BF0123002355
:10464000DBB2002B16D0FB6800221A63FB68202225
:1046500083F83D20FB68002283F83E20FB681B6C3A
:1046600043F02002FB681A64FB68002283F83C20B8
:10467000012321E0BB681B0CDBB2012B0CD1FB68D2
:104680001B685B69DA43BB6813409BB2002B14BF05
:1046900001230023DBB20BE0FB681B689B69DA4354
:1046A000BB6813409BB2002B14BF01230023DBB275
:1046B000002B7FF46DAF002318461037BD4680BD38
:1046C00080B584B000AFF860B9607A6034E0F86813
:1046D00000F0E3F80346002B01D0012334E0BB686F
:1046E000B3F1FF3F28D0FEF753FC02467B68D31A94
:1046F000BA689A4202D3BB68002B1DD1FB681B68C5
:104700005B6903F08003802B16D0FB6800221A63DC
:10471000FB68202283F83D20FB68002283F83E20BE
:10472000FB681B6C43F02002FB681A64FB680022E4
:1047300083F83C20012307E0FB681B685B6903F0FA
:104740008003802BC3D1002318461037BD4680BD9F
:1047500080B584B000AFF860B9607A6034E0F86882
:1047600000F09BF80346002B01D0012334E0BB6826
:10477000B3F1FF3F28D0FEF70BFC02467B68D31A4B
:10478000BA689A4202D3BB68002B1DD1FB681B6834
:104790005B6903F00403042B16D0FB6800221A6344
:1047A000FB68202283F83D20FB68002283F83E202E
:1047B000FB681B6C43F02002FB681A64FB68002254
:1047C00083F83C20012307E0FB681B685B6903F06A
:1047D0000403042BC3D1002318461037BD4680BD07
:1047E00080B584B000AFF860B9607A6049E0FB68DA
:1047F0001B685B6903F01003102B19D1FB681B6861
:104800006FF010025A61FB6800221A63FB682022D5
:1048100083F83D20FB68002283F83E20FB681A6C79
:10482000FB681A64FB68002283F83C20012330E017
:10483000FEF7AEFB02467B68D31ABA689A4202D3EF
:10484000BB68002B1DD1FB681B685B6903F040034C
:10485000402B16D0FB6800221A63FB68202283F8E5
:104860003D20FB68002283F83E20FB681B6C43F070
:104870002002FB681A64FB68002283F83C200123B5
:1048800007E0FB681B685B6903F04003402BAED177
:10489000002318461037BD4680BD80B483B000AFFA
:1048A00078607B681B685B6903F48063B3F5806F95
:1048B0001BD17B681B686FF480625A617B680022A1
:1048C0001A637B68202283F83D207B68002283F8EE
:1048D0003E207B681B6C43F004027B681A647B6893
:1048E000002283F83C20012300E0002318460C3707
:1048F000BD465DF8047B704780B584B000AF78603A
:1049000039607B68002B01D10123CCE0684B1B6828
:1049100003F007033A689A420CD9654B3A68D2B261
:104920001A70634B1B6803F007033A689A4201D080
:104930000123B8E07B681B6803F00203002B20D042
:104940007B681B6803F00403002B05D0594B9B6860
:10495000584A43F4E05393607B681B6803F00803F4
:10496000002B05D0534B9B68524A43F4604393603D
:10497000504B9B6823F0F0027B689B684D491343C2
:104980008B607B681B6803F00103002B44D07B68BD
:104990005B68012B07D1474B1B6803F40033002BE6
:1049A00019D101237FE07B685B68022B03D07B6811
:1049B0005B68032B07D13F4B1B6803F00073002B90
:1049C00009D101236FE03B4B1B6803F00203002B6E
:1049D00001D1012367E0374B9B6823F003027B681A
:1049E0005B68344913438B60FEF7D2FAF8600AE043
:1049F000FEF7CEFA0246FB68D31A41F288329342A0
:104A000001D903234FE02B4B9B6803F00C027B681A
:104A10005B689B009A42EBD1254B1B6803F00703B0
:104A20003A689A420CD2224B3A68D2B21A70204BA2
:104A30001B6803F007033A689A4201D0012332E071
:104A40007B681B6803F00403002B08D0194B9B689C
:104A500023F4E0527B68DB68164913438B607B6864
:104A60001B6803F00803002B09D0124B9B6823F44A
:104A700060427B681B69DB000E4913438B6000F0CA
:104A800021F802460B4B9B681B0903F00F030A49F0
:104A9000CB5C22FA03F3094A1360094B1B681846E2
:104AA000FEF732FA002318461037BD4680BD00BF1E
:104AB000003C02400038024084120108F835002012
:104AC000FC3500202DE9B04F94B000AF00237B648B
:104AD0000023FB6400233B640023BB64794B9B6889
:104AE00003F00C03082B0DD0082B00F2E180002B03
:104AF00002D0042B03D0DBE0734BBB64DBE0734BD1
:104B0000BB64D8E06F4B5B6803F03F037B646D4B85
:104B10005B6803F48003002B63D06A4B5B689B09DE
:104B20000022BB63FA63BB6BC3F308033B63002340
:104B30007B63D7E90C4522462B464FF000004FF02F
:104B40000001590141EAD261500102460B4621465B
:104B5000511A3961294663EB01037B614FF0000272
:104B60004FF00003D7E904AB59468B01514643EAA5
:104B7000916351468A015146B2EB0108594663EBF5
:104B800001094FF000024FF000034FEAC90343EA66
:104B900058734FEAC80290469946234618EB030320
:104BA000BB602B4649EB0303FB604FF000024FF064
:104BB0000003D7E9024529464B02214643EAD15377
:104BC00021464A02104619467B6C0022BB62FA62FB
:104BD000D7E90A23FCF718F802460B461346FB6494
:104BE00058E0384B5B689B09002218461146C0F319
:104BF00008033B6200237B62D7E9088942464B46A3
:104C00004FF000004FF00001590141EAD26150011C
:104C100002460B464146B2EB010A494663EB010BE3
:104C20004FF000024FF000034FEA8B1343EA9A6300
:104C30004FEA8A12B2EB0A0463EB0B054FF0000255
:104C40004FF00003EB0043EA5473E20014461D46A4
:104C50004346E3183B604B4645EB03037B604FF054
:104C600000024FF00003D7E9004529468B02214698
:104C700043EA915321468A02104619467B6C002272
:104C8000BB61FA61D7E90623FBF7BEFF02460B467C
:104C90001346FB640B4B5B681B0C03F003030133EF
:104CA0005B003B64FA6C3B6CB2FBF3F3BB6402E069
:104CB000054BBB6400BFBB6C18465037BD46BDE812
:104CC000B08F00BF003802400024F40000127A00C8
:104CD00080B400AF034B1B681846BD465DF8047BEB
:104CE000704700BFF835002080B500AFFFF7F0FF38
:104CF0000246054B9B689B0A03F007030349CB5C04
:104D000022FA03F3184680BD0038024094120108CD
:104D100080B500AFFFF7DCFF0246054B9B685B0BDD
:104D200003F007030349CB5C22FA03F3184680BD66
:104D3000003802409412010880B586B000AF786058
:104D400000237B6100233B617B681B6803F0040345
:104D5000002B00F083800023FB60614B1B6C604ADA
:104D600043F0805313645E4B1B6C03F08053FB6075
:104D7000FB685C4B1B685B4A43F480731360FEF76F
:104D800007F9786108E0FEF703F902467B69D31A58
:104D9000022B01D903239FE0524B1B6803F480735D
:104DA000002BF0D04E4B1B6F03F440733B613B690B
:104DB000002B2FD07B689B6803F440733A699A42BA
:104DC00028D0474B1B6F23F440733B61464B0122B5
:104DD0001A60454B00221A60414A3B691367404BF9
:104DE0001B6F03F00103012B14D1FEF7D1F878619A
:104DF0000AE0FEF7CDF802467B69D31A41F2883209
:104E0000934201D9032367E0354B1B6F03F0020384
:104E1000002BEED07B689B6803F44073B3F5407FB2
:104E20000DD12F4B9B6823F4F8127B689B6823F00D
:104E3000704323F440732A4913438B6005E0284BE9
:104E40009B68274A23F4F8139360254B1A6F7B68FD
:104E50009B68C3F30B03224913430B677B681B68F2
:104E600003F00203002B03D07B681A7D1F4B1A60EE
:104E70007B681B6803F00803002B0AD0184BD3F89B
:104E8000943023F440027B681B6915491343C1F831
:104E900094307B681B6803F01003002B0AD0104B82
:104EA000D3F8943023F040427B68DB680C4913430D
:104EB000C1F894307B681B6803F00103002B0AD013
:104EC000074BD3F88C3023F0C0627B685B680449E1
:104ED0001343C1F88C30002318461837BD4680BDF7
:104EE0000038024000700040400E4742E011474247
:104EF00080B586B000AF78607B68002B01D10123BC
:104F000073E27B681B6803F00103002B75D0884BAC
:104F10009B6803F00C03042B0CD0854B9B6803F0BB
:104F20000C03082B12D1824B5B6803F48003B3F5AA
:104F3000800F0BD17E4B1B6803F40033002B5BD03A
:104F40007B685B68002B57D101234EE27B685B686E
:104F5000B3F5803F06D1764B1B68754A43F4803326
:104F600013601DE07B685B68B3F5A02F0CD1704B1C
:104F70001B686F4A43F4802313606D4B1B686C4AB7
:104F800043F4803313600BE0694B1B68684A23F4D9
:104F900080331360664B1B68654A23F480231360DB
:104FA0007B685B68002B13D0FDF7F2FF386108E0E7
:104FB000FDF7EEFF02463B69D31A642B01D90323A8
:104FC00013E25B4B1B6803F40033002BF0D014E0BA
:104FD000FDF7DEFF386108E0FDF7DAFF02463B69C6
:104FE000D31A642B01D90323FFE1514B1B6803F44F
:104FF0000033002BF0D100E000BF7B681B6803F09A
:105000000203002B63D04A4B9B6803F00C03002B78
:105010000BD0474B9B6803F00C03082B1CD1444B6F
:105020005B6803F48003002B16D1414B1B6803F02F
:105030000203002B05D07B68DB68012B01D0012324
:10504000D3E13B4B1B6823F0F8027B681B69DB0054
:10505000374913430B603AE07B68DB68002B20D0B4
:10506000344B01221A60FDF793FF386108E0FDF729
:105070008FFF02463B69D31A022B01D90323B4E107
:105080002B4B1B6803F00203002BF0D0284B1B684E
:1050900023F0F8027B681B69DB00254913430B6092
:1050A00015E0244B00221A60FDF772FF386108E01A
:1050B000FDF76EFF02463B69D31A022B01D9032389
:1050C00093E11B4B1B6803F00203002BF0D17B68BC
:1050D0001B6803F00803002B36D07B685B69002B4C
:1050E00016D0154B01221A60FDF752FF386108E017
:1050F000FDF74EFF02463B69D31A022B01D9032369
:1051000073E10B4B5B6F03F00203002BF0D01BE04D
:10511000094B00221A60FDF73BFF38610EE0FDF7F6
:1051200037FF02463B69D31A022B07D903235CE100
:105130000038024000004742800E47428A4B5B6FB6
:1051400003F00203002BEAD17B681B6803F0040321
:10515000002B00F097800023FB75834B1B6C03F042
:105160008053002B0FD10023BB607F4B1B6C7E4A0A
:1051700043F0805313647C4B1B6C03F08053BB6083
:10518000BB680123FB75794B1B6803F48073002B0C
:1051900018D1764B1B68754A43F480731360FDF792
:1051A000F7FE386108E0FDF7F3FE02463B69D31ACB
:1051B000022B01D9032318E16C4B1B6803F48073A5
:1051C000002BF0D07B689B68012B06D1664B1B6FD0
:1051D000654A43F0010313671CE07B689B68052B5D
:1051E0000CD1614B1B6F604A43F0040313675E4BA5
:1051F0001B6F5D4A43F0010313670BE05A4B1B6FB3
:10520000594A23F001031367574B1B6F564A23F08B
:10521000040313677B689B68002B15D0FDF7B8FE6D
:1052200038610AE0FDF7B4FE02463B69D31A41F249
:105230008832934201D90323D7E04B4B1B6F03F015
:105240000203002BEED014E0FDF7A2FE38610AE065
:10525000FDF79EFE02463B69D31A41F28832934223
:1052600001D90323C1E0404B1B6F03F00203002B65
:10527000EED1FB7D012B05D13B4B1B6C3A4A23F051
:10528000805313647B689B69002B00F0AD80364B24
:105290009B6803F00C03082B60D07B689B69022B92
:1052A00045D1334B00221A60FDF772FE386108E0E9
:1052B000FDF76EFE02463B69D31A022B01D9032388
:1052C00093E0294B1B6803F00073002BF0D17B683F
:1052D000DA697B681B6A1A437B685B6A9B011A4325
:1052E0007B689B6A5B08013B1B041A437B68DB6A93
:1052F0001B061A437B681B6B1B071B4913434B6040
:105300001B4B01221A60FDF743FE386108E0FDF7F0
:105310003FFE02463B69D31A022B01D9032364E006
:10532000114B1B6803F00073002BF0D05CE0104BB6
:1053300000221A60FDF72CFE386108E0FDF728FE18
:1053400002463B69D31A022B01D903234DE0064BD9
:105350001B6803F00073002BF0D145E07B689B696C
:10536000012B07D1012340E00038024000700040CB
:10537000600047421F4B5B68FB607B689B69012BA9
:1053800030D0FB6803F480027B68DB699A4229D144
:10539000FB6803F03F027B681B6A9A4222D1FA68DD
:1053A00047F6C07313407A68526A9201934219D14A
:1053B000FB6803F440327B689B6A5B08013B1B047B
:1053C0009A420FD1FB6803F070627B68DB6A1B06B0
:1053D0009A4207D1FB6803F0E0427B681B6B1B0716
:1053E0009A4201D0012300E0002318461837BD4639
:1053F00080BD00BF0038024080B584B000AF786047
:105400000123FB737B68002B01D1012373E07B68D0
:105410005B7FDBB2002B05D17B6800221A777868AE
:10542000FDF7A2FB7B6802225A777B681B68DB686A
:1054300003F01003102B55D07B681B68CA225A62F8
:105440007B681B6853225A62786800F049FA034669
:10545000FB73FB7B002B2CD17B681B689B687A68F5
:10546000126823F4E00323F0400393607B681B6819
:1054700099687B685A687B681B691A437B685B691B
:105480001A437B681B680A439A607B681B687A68CA
:10549000D2681A617B681B6819697B689B681A046B
:1054A0007B681B680A431A61786800F050FA03466B
:1054B000FB73FB7B002B10D17B681B681A6C7B682D
:1054C0001B6822F480221A647B681B68196C7B6855
:1054D0009A697B681B680A431A647B681B68FF2211
:1054E0005A6201E00023FB73FB7B002B02D17B6837
:1054F00001225A77FB7B18461037BD4680BD90B518
:1055000087B000AFF860B9607A6000237B61FB6808
:105510001B7F012B01D1022387E0FB6801221A7750
:10552000FB6802225A777B68002B26D1FB681B6838
:105530009B6803F04003002B02D1BB680022DA70A5
:10554000BB681B78184600F027FA03461C04BB68AA
:105550005B78184600F020FA03461B021C43BB6828
:105560009B78184600F018FA034644EA0302BB6829
:10557000DB789B0513437B6118E0FB681B689B6825
:1055800003F04003002B02D1BB680022DA70BB6835
:105590001B781A04BB685B781B021343BA689278C5
:1055A0001A43BB68DB789B0513437B61FB681B6870
:1055B000CA225A62FB681B6853225A62F86800F0DC
:1055C0008FF90346FB74FB7C002B20D1FB681A6823
:1055D0007B6903F07F3323F0FE431360FB681B6895
:1055E0009A68FB681B6822F480229A60FB681B683B
:1055F0009968BB68DA68BB681B691A43FB681B685B
:105600000A439A60F86800F0A2F90346FB74FB7C39
:10561000002B02D1FB6801225A77FB681B68FF222E
:105620005A62FB6800221A77FB7C18461C37BD467D
:1056300090BD80B586B000AFF860B9607A60002395
:105640007B61FB681B689A6ABB685A60FB681B68D1
:105650001B69C3F30E02BB689A60FB681B681B687A
:1056600003F07F3323F0FE437B617B691B0CDBB2CD
:1056700003F03F03DAB2BB681A707B691B0ADBB226
:1056800003F07F03DAB2BB685A707B69DBB203F0C8
:105690007F03DAB2BB689A707B699B0DDBB203F0C3
:1056A0000103DAB2BB68DA707B68002B1AD1BB68E1
:1056B0001B78184600F08EF903461A46BB681A702C
:1056C000BB685B78184600F085F903461A46BB684C
:1056D0005A70BB689B78184600F07CF903461A465E
:1056E000BB689A70002318461837BD4680BD90B538
:1056F00087B000AFF860B9607A6000237B61FB6817
:105700001B7F012B01D1022371E0FB6801221A7774
:10571000FB6802225A777B68002B0ED1BB685B784E
:1057200003F01003002B08D0BB685B7823F0100354
:10573000DBB20A33DAB2BB685A707B68002B1CD12B
:10574000BB68DB78184600F027F903461C04BB68E9
:105750005B78184600F020F903461B021C43BB6827
:105760009B78184600F018F9034644EA0302BB6828
:105770001B785B0313437B610EE0BB68DB781A0484
:10578000BB685B781B021343BA6892781A43BB6804
:105790001B785B0313437B61FB681B68CA225A6258
:1057A000FB681B6853225A62F86800F099F80346B8
:1057B000FB74FB7C002B0CD1FB681A687B6923F01F
:1057C0007F4323F0C0035360F86800F0C0F803463D
:1057D000FB74FB7C002B02D1FB6801225A77FB682B
:1057E0001B68FF225A62FB6800221A77FB7C18466E
:1057F0001C37BD4690BD80B586B000AFF860B9607B
:105800007A6000237B61FB681B685B6823F07F4341
:1058100023F0C0037B617B691B0CDAB2BB68DA70D2
:105820007B691B0ADBB203F01F03DAB2BB685A7054
:105830007B69DBB203F03F03DAB2BB689A707B6925
:105840005B0BDBB203F00703DAB2BB681A707B684C
:10585000002B1AD1BB68DB78184600F0BBF8034672
:105860001A46BB68DA70BB685B78184600F0B2F87D
:1058700003461A46BB685A70BB689B78184600F00E
:10588000A9F803461A46BB689A70002318461837D1
:10589000BD4680BD80B584B000AF78600023FB605A
:1058A0007B681B680D4ADA60FDF772FBF86009E05F
:1058B000FDF76EFB0246FB68D31AB3F57A7F01D978
:1058C000032307E07B681B68DB6803F02003002BE1
:1058D000EED0002318461037BD4680BD5F7F010023
:1058E00080B584B000AF78600023BB600023FB73F9
:1058F0007B681B68DB6803F04003002B22D17B68C8
:105900001B68DA687B681B6842F08002DA60FDF78A
:105910003FFBB8600CE0FDF73BFB0246BB68D31AC7
:10592000B3F57A7F04D97B6804225A770123FB738D
:105930007B681B68DB6803F04003002B02D1FB7B14
:10594000012BE8D1FB7B18461037BD4680BD80B5E2
:1059500084B000AF78600023FB737B681B68DA6853
:105960007B681B6822F08002DA607B681B689B689A
:1059700003F02003002B0AD17868FFF78BFF034662
:10598000002B04D07B6804225A770123FB73FB7B36
:1059900018461037BD4680BD80B485B000AF0346C1
:1059A000FB710023FB6005E0FB680133FB60FB79C2
:1059B0000A3BFB71FB79092BF6D8FB68DBB21B01B4
:1059C000DAB2FB791343DBB218461437BD465DF8F3
:1059D000047B704780B485B000AF0346FB710023A1
:1059E000FB60FB791B09DBB21A4613469B0013448C
:1059F0005B00FB60FB68DAB2FB7903F00F03DBB2FC
:105A00001344DBB218461437BD465DF8047B70477B
:105A100080B582B000AF78607B68002B01D1012394
:105A20007BE07B685B6A002B08D17B685B68B3F521
:105A3000827F09D07B680022DA6105E07B68002262
:105A40001A617B6800225A617B6800229A627B6837
:105A500093F85130DBB2002B06D17B68002283F82B
:105A600050207868FCF70CFF7B68022283F85120F5
:105A70007B681B681A687B681B6822F040021A600A
:105A80007B685B6803F482727B689B6803F4044361
:105A90001A437B68DB6803F400631A437B681B6965
:105AA00003F002031A437B685B6903F001031A43A6
:105AB0007B689B6903F400731A437B68DB6903F01E
:105AC00038031A437B681B6A03F0800342EA030130
:105AD0007B689B6A03F400527B681B680A431A6068
