:020000040800F2
:1000000000800020511F0008411D0008491D000804
:10001000511D0008591D0008611D00080000000066
:10002000000000000000000000000000691D000842
:10003000771D000800000000851D0008931D0008C2
:10004000A11F0008A11F0008A11F0008A11F000890
:10005000A11F0008A11F0008A11F0008A11F000880
:10006000A11F0008A11F0008A11F0008A11F000870
:10007000A11F0008A11F0008A11F0008A11F000860
:10008000A11F0008A11F0008A11F00080000000018
:10009000000000000000000000000000A11F000898
:1000A000A11F0008A11F0008A11F0008A11F000830
:1000B000000000000000000000000000A11F000878
:1000C000A11F0008A11F0008A11F0008A11F000810
:1000D000A11F000841160008A11F00080000000031
:1000E000A11F0008A11F0008000000000000000080
:1000F000000000000000000000000000A11F000838
:100100000000000000000000A11F00080000000027
:100110000000000000000000A11F00080000000017
:10012000A11F0008A11F0008A11F0008A11F0008AF
:10013000A11F0008000000000000000000000000F7
:1001400000000000000000000000000000000000AF
:10015000A11F0008A11F0008A11F0008A11F00087F
:10016000000000000000000000000000000000008F
:10017000000000000000000000000000000000007F
:10018000A11F0008A11F00080000000000000000DF
:1001900000000000A11F0008000000000000000097
:1001A000000000000000000000000000000000004F
:1001B000000000000000000000000000A11F000877
:0801C000A11F0008A11F0008A7
:1001D00010B5054C237833B9044B13B10448AFF381
:1001E00000800123237010BD54380020000000005F
:1001F000D0AF000808B5034B1BB103490348AFF368
:10020000008008BD0000000058380020D0AF000872
:1002100010F8012B11F8013B012A28BF9A42F7D0B0
:10022000D01A70470000000000000000000000002D
:1002300001F0FF01102A2BDB10F0070F08D010F897
:10024000013B013A8B422DD010F0070F42B3F6D19B
:10025000F0B441EA012141EA014122F007047FF0B4
:1002600000070023F0E80256083C85EA010586EA0B
:10027000010685FA47F5A3FA87F586FA47F6A5FA47
:1002800087F68EB9EED1F0BC01F0FF0102F0070253
:1002900032B110F8013B013A83EA010313B1F8D1FE
:1002A0000020704701387047002D06BF35460338DF
:1002B000073815F0010F07D1013015F4807F02BF18
:1002C000013015F4C03F0130F0BC0138704700BF69
:1002D000034613F8012B002AFBD1181A0138704786
:1002E00081F0004102E000BF83F0004330B54FEAE7
:1002F00041044FEA430594EA050F08BF90EA020F54
:100300001FBF54EA000C55EA020C7FEA645C7FEAE6
:10031000655C00F0E2804FEA5454D4EB5555B8BF09
:100320006D420CDD2C4480EA020281EA030382EA7A
:10033000000083EA010180EA020281EA0303362D0C
:1003400088BF30BD11F0004F4FEA01314FF4801CDF
:100350004CEA113102D0404261EB410113F0004FF1
:100360004FEA03334CEA133302D0524263EB4303A8
:1003700094EA050F00F0A780A4F10104D5F1200E46
:100380000DDB02FA0EFC22FA05F2801841F10001A1
:1003900003FA0EF2801843FA05F359410EE0A5F175
:1003A00020050EF1200E012A03FA0EFC28BF4CF0A6
:1003B000020C43FA05F3C01851EBE37101F000455C
:1003C00007D54FF0000EDCF1000C7EEB00006EEB69
:1003D0000101B1F5801F1BD3B1F5001F0CD34908F3
:1003E0005FEA30004FEA3C0C04F101044FEA44524A
:1003F00012F5800F80F09A80BCF1004F08BF5FEAD1
:10040000500C50F1000041EB045141EA050130BDB0
:100410005FEA4C0C404141EB0101013C28BFB1F5C2
:10042000801FE9D291F0000F04BF01460020B1FA0D
:1004300081F308BF2033A3F10B03B3F120020CDAE0
:100440000C3208DD02F1140CC2F10C0201FA0CF0BE
:1004500021FA02F10CE002F11402D8BFC2F1200C23
:1004600001FA02F120FA0CFCDCBF41EA0C019040D9
:10047000E41AA2BF01EB0451294330BD6FEA040422
:100480001F3C1CDA0C340EDC04F11404C4F120020D
:1004900020FA04F001FA02F340EA030021FA04F31F
:1004A00045EA030130BDC4F10C04C4F1200220FA76
:1004B00002F001FA04F340EA0300294630BD21FAB4
:1004C00004F0294630BD94F0000F83F4801306BF7A
:1004D00081F480110134013D4EE77FEA645C18BF6E
:1004E0007FEA655C29D094EA050F08BF90EA020F05
:1004F00005D054EA000C04BF1946104630BD91EAFD
:10050000030F1EBF0021002030BD5FEA545C05D1FF
:100510004000494128BF41F0004130BD14F580043E
:100520003CBF01F5801130BD01F0004545F0FE41B2
:1005300041F470014FF0000030BD7FEA645C1ABFE7
:10054000194610467FEA655C1CBF0B46024650EA1E
:10055000013406BF52EA033591EA030F41F400214A
:1005600030BD00BF90F0000F04BF0021704730B5D0
:100570004FF4806404F132044FF000054FF00001A5
:1005800050E700BF90F0000F04BF0021704730B566
:100590004FF4806404F1320410F0004548BF40423B
:1005A0004FF000013EE700BF42004FEAE2014FEA90
:1005B00031014FEA02701FBF12F07F4393F07F4F6B
:1005C00081F06051704732F07F4208BF704793F06E
:1005D0007F4F04BF41F40021704730B54FF4607481
:1005E00001F0004521F000411CE700BF50EA010284
:1005F00008BF704730B54FF000050AE050EA01022D
:1006000008BF704730B511F0004502D5404261EB9C
:1006100041014FF4806404F132045FEA915C3FF4DD
:10062000D8AE4FF003025FEADC0C18BF03325FEA7A
:10063000DC0C18BF033202EBDC02C2F1200300FA2B
:1006400003FC20FA02F001FA03FE40EA0E0021FA50
:1006500002F11444BDE600BF70B54FF0FF0C4CF43E
:10066000E06C1CEA11541DBF1CEA135594EA0C0FF0
:1006700095EA0C0F00F0DEF82C4481EA030621EA2B
:100680004C5123EA4C5350EA013518BF52EA033566
:1006900041F4801143F4801338D0A0FB02CE4FF018
:1006A0000005E1FB02E506F00042E0FB03E54FF048
:1006B0000006E1FB03569CF0000F18BF4EF0010E40
:1006C000A4F1FF04B6F5007F64F5407404D25FEA3C
:1006D0004E0E6D4146EB060642EAC62141EA5551EF
:1006E0004FEAC52040EA5E504FEACE2EB4F1FD0C31
:1006F00088BFBCF5E06F1ED8BEF1004F08BF5FEAAF
:10070000500E50F1000041EB045170BD06F0004660
:1007100046EA010140EA020081EA0301B4EB5C040D
:10072000C2BFD4EB0C0541EA045170BD41F4801105
:100730004FF0000E013C00F3AB8014F1360FDEBF2A
:10074000002001F0004170BDC4F10004203C35DA06
:100750000C341BDC04F11404C4F1200500FA05F389
:1007600020FA04F001FA05F240EA020001F000422A
:1007700021F0004110EBD37021FA04F642EB0601A0
:100780005EEA430E08BF20EAD37070BDC4F10C04CA
:10079000C4F1200500FA04F320FA05F001FA04F28E
:1007A00040EA020001F0004110EBD37041F100017A
:1007B0005EEA430E08BF20EAD37070BDC4F1200585
:1007C00000FA05F24EEA020E20FA04F301FA05F2ED
:1007D00043EA020321FA04F001F0004121FA04F295
:1007E00020EA020000EBD3705EEA430E08BF20EA65
:1007F000D37070BD94F0000F0FD101F0004640009F
:1008000041EB010111F4801F08BF013CF7D041EA20
:10081000060195F0000F18BF704703F00046520024
:1008200043EB030313F4801F08BF013DF7D043EAF5
:100830000603704794EA0C0F0CEA135518BF95EAAB
:100840000C0F0CD050EA410618BF52EA4306D1D132
:1008500081EA030101F000414FF0000070BD50EA51
:10086000410606BF1046194652EA430619D094EADB
:100870000C0F02D150EA013613D195EA0C0F05D1C5
:1008800052EA03361CBF104619460AD181EA030119
:1008900001F0004141F0FE4141F470014FF00000D1
:1008A00070BD41F0FE4141F4780170BD70B54FF06C
:1008B000FF0C4CF4E06C1CEA11541DBF1CEA1355EC
:1008C00094EA0C0F95EA0C0F00F0A7F8A4EB0504CE
:1008D00081EA030E52EA03354FEA013100F08880C5
:1008E0004FEA03334FF0805545EA131343EA12638E
:1008F0004FEA022245EA111545EA10654FEA002643
:100900000EF000419D4208BF964244F1FD0404F5FB
:10091000407402D25B084FEA3202B61A65EB030557
:100920005B084FEA32024FF480104FF4002CB6EB14
:10093000020E75EB030E22BFB61A754640EA0C0094
:100940005B084FEA3202B6EB020E75EB030E22BFD4
:10095000B61A754640EA5C005B084FEA3202B6EB15
:10096000020E75EB030E22BFB61A754640EA9C00D4
:100970005B084FEA3202B6EB020E75EB030E22BFA4
:10098000B61A754640EADC0055EA060E18D04FEA62
:10099000051545EA16754FEA06164FEAC30343EA02
:1009A00052734FEAC2025FEA1C1CC0D111F4801FCF
:1009B0000BD141EA00014FF000004FF0004CB6E7C8
:1009C00011F4801F04BF01430020B4F1FD0C88BF67
:1009D000BCF5E06F3FF6AFAEB5EB030C04BFB6EB72
:1009E000020C5FEA500C50F1000041EB045170BD65
:1009F0000EF0004E4EEA113114EB5C04C2BFD4EB92
:100A00000C0541EA045170BD41F480114FF0000E15
:100A1000013C90E645EA060E8DE60CEA135594EA91
:100A20000C0F08BF95EA0C0F3FF43BAF94EA0C0F94
:100A30000AD150EA01347FF434AF95EA0C0F7FF409
:100A400025AF104619462CE795EA0C0F06D152EA5D
:100A500003353FF4FDAE1046194622E750EA410641
:100A600018BF52EA43067FF4C5AE50EA41047FF452
:100A70000DAF52EA43057FF4EBAE12E74FF0FF3CB7
:100A800006E000BF4FF0010C02E000BF4FF0010C88
:100A90004DF804CD4FEA410C7FEA6C5C4FEA430C01
:100AA00018BF7FEA6C5C1BD001B050EA410C0CBF50
:100AB00052EA430C91EA030F02BF90EA020F0020B2
:100AC000704710F1000F91EA030F58BF994208BF19
:100AD00090422CBFD8176FEAE37040F001007047D6
:100AE0004FEA410C7FEA6C5C02D150EA013C07D12D
:100AF0004FEA430C7FEA6C5CD6D152EA033CD3D078
:100B00005DF8040B704700BF8446104662468C4671
:100B10001946634600E000BF01B5FFF7B7FF0028A4
:100B200048BF10F1000F01BD4DF808EDFFF7F4FFCD
:100B30000CBF012000205DF808FB00BF4DF808ED58
:100B4000FFF7EAFF34BF012000205DF808FB00BF7B
:100B50004DF808EDFFF7E0FF94BF012000205DF89D
:100B600008FB00BF4DF808EDFFF7CEFF94BF012052
:100B700000205DF808FB00BF4DF808EDFFF7C4FF4B
:100B800034BF012000205DF808FB00BF4FEA410C94
:100B90007FEA6C5C02D150EA013C0AD14FEA430C77
:100BA0007FEA6C5C02D152EA033C02D14FF00000B4
:100BB00070474FF0010070474FEA410212F50012F2
:100BC00015D211D56FF47873B3EB625212D94FEA94
:100BD000C12343F0004343EA505311F0004F23FA7E
:100BE00002F018BF404270474FF00000704750EAD3
:100BF000013005D111F0004008BF6FF00040704790
:100C00004FF00000704700BF53B94AB9002908BF30
:100C100000281CBF4FF0FF314FF0FF3000F06AB9E1
:100C2000ADF1080C6DE904CE00F006F8DDF804E043
:100C3000DDE9022304B070472DE9F047089D0C461A
:100C4000002B4ED194468C458646B2FA82F262D988
:100C50004AB1C2F12003914020FA03F30CFA02FCDE
:100C6000194300FA02FE4FEA1C471FFA8CF6B1FB4B
:100C7000F7F44FEA1E4307FB141143EA014304FB58
:100C800006F199420AD91CEB030304F1FF3080F00E
:100C90001281994240F20F81023C6344591A1FFAB3
:100CA0008EF3B1FBF7F007FB101143EA014300FBA1
:100CB00006F69E420AD91CEB030300F1FF3180F0D7
:100CC000FC809E4240F2F980634402389B1B40EA5C
:100CD000044000211DB1D3400022C5E90032BDE827
:100CE000F0878B4205D90DB1C5E900010021084606
:100CF000F5E7B3FA83F1002946D1A34202D390422B
:100D0000C0F0F080861A64EB03030120002DE6D0CA
:100D1000C5E90063E3E7002A40F09080A1EB0C04F2
:100D20004FEA1C481FFA8CF70121B4FBF8F64FEA92
:100D30001E4308FB164443EA044307FB06F09842AF
:100D400008D91CEB030306F1FF3402D2984200F2EB
:100D5000CD8026461C1A1FFA8EF3B4FBF8F008FB70
:100D6000104443EA044300FB07F79F4208D91CEBF9
:100D7000030300F1FF3402D29F4200F2B08020460C
:100D8000DB1B40EA0640A5E7C1F120068B4022FAB2
:100D900006F71F4320FA06FC04FA01F343EA0C03AA
:100DA000F44000FA01F8380C4FEA1349B4FBF0FEA6
:100DB0001FFA87FC00FB1E4449EA04440EFB0CF9B1
:100DC000A14502FA01F20AD93C190EF1FF3A80F06E
:100DD0008480A14540F28180AEF1020E3C44A4EB38
:100DE00009041FFA83F9B4FBF0F300FB134449EA4A
:100DF000044403FB0CFCA44507D93C1903F1FF3064
:100E000067D2A44565D9023B3C4443EA0E40A0FBAF
:100E10000293A4EB0C049C42CE469C4651D34ED088
:100E200055B1B8EB0E0364EB0C0404FA06F6CB40A4
:100E30001E43CC40C5E90064002150E7C2F1200305
:100E400020FA03F10CFA02FC24FA03F394400C4359
:100E50004FEA1C4800FA02FE1FFA8CF7B3FBF8F0C9
:100E600008FB1031230C43EA014300FB07F19942D0
:100E700008D91CEB030300F1FF362CD299422AD982
:100E8000023863445B1AA4B2B3FBF8F108FB1133D8
:100E900044EA034401FB07F3A34208D91CEB040412
:100EA00001F1FF3613D2A34211D902396444E41A86
:100EB00041EA004139E70446F0E6084606E7C8453E
:100EC000AED2B9EB020E63EB070C0138A8E731464E
:100ED000EDE7034699E73046D4E7D6467FE763441B
:100EE00002384DE70646234608460FE7023E6344B4
:100EF00030E700BF704700BF80B500AF05F017FFB7
:100F000000BF80BD80B500AF40214FF4807005F078
:100F1000DDFF00BF80BD000080B500AFFFF7F2FF2E
:100F20000021074805F0E6FF00220021044806F0F2
:100F3000EBF90021024805F0DDFF00BF80BD00BFD6
:100F40000039002080B582B002AF144806F0ACF83A
:100F50002B230193202300930023002210491148E2
:100F600006F07EF90F230093142320220E490D482A
:100F700006F042F90F2300932D2320220B49094844
:100F800006F03AF900220021064806F0BDF941F2C8
:100F9000883001F079F800BFBD4680BDBCBA0008BA
:100FA0000000002000390020E8AF0008F8AF00087A
:100FB00080B582B002AF0F4806F076F80F23009399
:100FC00014230A220C490D4806F016F90F2300934A
:100FD0002D230A220A49094806F00EF900220021B1
:100FE000064806F091F94FF4FA6001F04DF800BFA1
:100FF000BD4680BDBCBA00080CB000080039002016
:1010000014B0000880B582B002AF1B4806F04CF85F
:101010000F23009314230A221849194806F0ECF80C
:101020002A230193282300930A23C8221549144830
:1010300006F016F9144806F037F80F23009314232E
:10104000962212490E4806F0D7F80B4806F02CF805
:101050000F2300932D230A220D49094806F0CCF8EE
:1010600000220021064806F04FF941F2883001F0D5
:101070000BF800BFBD4680BD98C5000824B000082D
:1010800000390020B032002044BF000830B0000812
:1010900038B00008B0B582B002AFBB4806F004F823
:1010A0000F2300930A230A22B849B94806F0A4F88E
:1010B000B84805F0F9FFB84B1B681846FFF774FAFB
:1010C00004460D46B44B5B681846FFF76DFA0246BE
:1010D0000B46CDE9002322462B46B049B04807F025
:1010E0004BFE0F23009337230522AD49A84806F095
:1010F00083F8AC4805F0D8FF0F23009337239422E0
:10110000A949A34806F078F89F4805F0CDFF0F23C2
:1011100000930823AA22A5499D4806F06DF84023B4
:1011200001934023009308239122A149984806F097
:1011300097F8102301931023009300238E229D49DA
:10114000934806F08DF800F0EBF90022002190485A
:1011500006F0DAF800230193402300934FF48073E4
:10116000002200218A4805F071FF874805F09CFFA6
:101170000F2300930A230A228449854806F03CF88D
:10118000844805F091FF0F230093372305228449FB
:101190007F4806F031F87C4805F086FF0F23009366
:1011A0003723942280497A4806F026F80F230093CB
:1011B0000823AA227D49764806F01EF840230193B1
:1011C00040230093082391227B49714806F048F898
:1011D000102301931023009300238E2275496C483D
:1011E00006F03EF800F09CF900220021684806F065
:1011F0008BF800230193402300934FF48073002267
:101200000021634805F022FF5F4805F04DFF0F23E2
:1012100000930A230A225D495D4805F0EDFF5D4811
:1012200005F042FF0F230093372305225C495848FD
:1012300005F0E2FF544805F037FF0F2300933723F2
:1012400094225949524805F0D7FF0F2300930823F1
:10125000AA2256494E4805F0CFFF40230193402370
:101260000093082391225549494805F0F9FF1023BE
:1012700001931023009300238E224E49444805F029
:10128000EFFF00F04DF900220021414806F03CF844
:1012900000230193402300934FF480730022002128
:1012A0003B4805F0D3FE384805F0FEFE0F230093BF
:1012B0000A230A223549364805F09EFF354805F0D5
:1012C000F3FE0F230093372305223549304805F0FC
:1012D00093FF344805F0E8FE0F2300933723942250
:1012E00031492B4805F088FF274805F0DDFE0F2324
:1012F00000930823AA222D49254805F07DFF4023AD
:10130000019340230093082391222D49204805F0A2
:10131000A7FF102301931023009300238E22254959
:101320001B4805F09DFF00F0FBF800220021184843
:1013300005F0EAFF00230193402300934FF48073EC
:1013400000220021124805F081FE0F4805F0ACFE96
:101350000F2300930A230A220C490D4805F04CFF85
:101360000C4805F0A1FE0F230093372305220C49FA
:10137000074805F041FF044805F096FE0F2300934F
:101380003723942208491DE044BF00084CB00008F0
:1013900000390020C0FC0008505A002054B000085A
:1013A000CC380020B8CD00085CB0000860B0000860
:1013B000B0020020F8350020B00A0020B012002052
:1013C000B01A0020424805F017FF0F2300930823AE
:1013D000AA2240493E4805F00FFF402301934023D5
:1013E0000093082391223C49394805F039FF102326
:1013F00001931023009300238E223849344805F0CE
:101400002FFF00F08DF800220021314805F07CFF0D
:1014100000230193402300934FF4807300220021A6
:101420002B4805F013FE2E4805F03EFE0F230093D7
:101430000A230A222B49264805F0DEFE2A4805F039
:1014400033FE0F230093372305222849204805F057
:10145000D3FE274805F028FE0F230093372394225C
:1014600024491B4805F0C8FE1D4805F01DFE0F234A
:1014700000930823AA221749154805F0BDFE402312
:10148000019340230093082391221B49104805F043
:10149000E7FE102301931023009300238E220F49AF
:1014A0000B4805F0DDFE00F03BF800220021084863
:1014B00005F02AFF00230193402300934FF480732B
:1014C00000220021024805F0C1FD00BFBD46B0BDAD
:1014D0000039002060B00008B0220020F83500205C
:1014E00044BF00084CB00008C0FC0008CC38002005
:1014F000B8CD00085CB00008B02A002080B500AF6D
:10150000FFF7C8FD00BF80BD80B500AF06F0A0F8B2
:1015100000BF80BD80B500AF05F012FB00BF80BDED
:1015200090B585B004AF05F0E3FA264805F0BCFDA0
:101530000F2300932B23D2222349244805F05CFE7D
:10154000234805F0B1FD234B1B781846214B5B78EF
:101550001C46204B9B781A461E4BDB7819461D4BC8
:101560001B79029301910092234602461A491B48B7
:1015700007F002FC0F2300933F23C82217491348AA
:1015800005F03AFE134B9B791A46124BDB7914494E
:10159000144807F0F1FB0B4805F086FD0F2300937C
:1015A0000A23F3221049094805F026FE0F23009371
:1015B0000A23E6220B49054805F01EFE00BF04374A
:1015C000BD4690BD44BF000874B00008003900203B
:1015D000B8CD0008B83800207CB00008D83800200A
:1015E00088B00008EC38002090B0000880B500AF4B
:1015F000114B124A1A60104B4FF4E1325A600E4BF5
:1016000000229A600C4B0022DA600B4B00221A6118
:10161000094B0C225A61084B00229A61064B0022AA
:10162000DA61054804F03EFB0346002B01D000F0D0
:1016300003FA00BF80BD00BF7038002000100140D9
:1016400080B500AF06F00CFA024804F083FB00BF3F
:1016500080BD00BF7038002080B58AB000AF07F1B0
:10166000140300221A605A609A60DA601A6100233B
:101670003B614A4B1B6B494A43F004031363474BDE
:101680001B6B03F004033B613B690023FB60434B8E
:101690001B6B424A43F080031363404B1B6B03F008
:1016A0008003FB60FB680023BB603C4B1B6B3B4A29
:1016B00043F001031363394B1B6B03F00103BB6061
:1016C000BB6800237B60354B1B6B344A43F002033D
:1016D0001363324B1B6B03F002037B607B680022B9
:1016E00030212F4801F00CF8002210212D4801F084
:1016F00007F801237B610123BB610023FB61002309
:101700003B6207F114031946254800F085FE30239B
:101710007B610123BB610023FB6100233B6207F176
:10172000140319461E4800F077FE4FF202037B6156
:101730000023BB610123FB6107F1140319461A481A
:1017400000F06AFE4FF400637B610023BB6101235C
:10175000FB6107F114031946124800F05DFE4FF4D7
:1017600080637B610023BB610123FB6107F11403EC
:1017700019460B4800F050FE10237B610123BB612A
:101780000123FB6100233B6207F11403194605485E
:1017900000F042FE00BF2837BD4680BD0038024041
:1017A00000080240000002400004024080B500AF83
:1017B000124B134A1A60114B124A5A600F4B002207
:1017C0009A600E4B0022DA600C4B4FF480421A6193
:1017D0000A4B00225A61094B00229A61074B0022F2
:1017E000DA61064B00221A62044800F0A3FF0346A8
:1017F000002B01D000F020F900BF80BD9C590020D3
:1018000000540040A086010080B58AB000AF786027
:1018100007F1140300221A605A609A60DA601A61B4
:101820007B681B68194A93422BD100233B61184BFC
:101830001B6B174A43F002031363154B1B6B03F03A
:1018400002033B613B69C0237B611223BB61002320
:10185000FB6103233B6204237B6207F114031946F7
:101860000C4800F0D9FD0023FB60094B1B6C084AB3
:1018700043F400131364064B1B6C03F40013FB606A
:10188000FB6800BF2837BD4680BD00BF0054004044
:10189000003802400004024080B500AF00F082FB37
:1018A00000F05EF8FFF7D8FE00F0CCF8FFF724FB5D
:1018B000FFF79CFEFFF77AFFFFF726FEFFF72CFBF2
:1018C000FFF740FBFFF728FBFFF79CFBFFF724FB2C
:1018D000FFF76EFBFFF720FB06F0F4FBFFF71AFEA5
:1018E00005F0EEFE012201211C4800F009FF06F080
:1018F000A7FCFFF703FE05F083FF47F2305000F02E
:10190000C3FB05F091FF47F2305000F0BDFB05F03E
:101910009FFF47F2305000F0B7FB05F0ADFF47F2F4
:10192000305000F0B1FB05F0BBFF47F2305000F043
:10193000ABFB05F0C9FF47F2305000F0A5FB05F006
:10194000D7FF47F2305000F09FFB05F0E5FF47F26C
:10195000305000F099FB00BFC9E700BF000802400B
:1019600080B594B000AF07F11C0334220021184663
:1019700007F065FA07F1080300221A605A609A60BE
:10198000DA601A6100237B60294B1B6C284A43F004
:1019900080531364264B1B6C03F080537B607B6881
:1019A00000233B60234B1B68224A43F440431360EF
:1019B000204B1B6803F440433B603B680923FB61F9
:1019C0004FF480333B6201233B6302237B634FF47C
:1019D0008003BB630423FB6332233B6402237B64E9
:1019E0000423BB640223FB6407F11C03184602F0C6
:1019F000EFFA0346002B01D000F01EF80F23BB6066
:101A00000223FB6000233B6100237B610023BB6159
:101A100007F108030121184601F0DEFF0346002B01
:101A200001D000F009F800BF5037BD4680BD00BFAF
:101A3000003802400070004080B400AF72B600BFB2
:101A400000BFFDE780B500AF174B184A1A60164B70
:101A50004FF482725A60144B00229A60124B00229B
:101A6000DA60114B02221A610F4B01225A610E4BB0
:101A70004FF400729A610C4B1022DA610A4B00227B
:101A80001A62094B00225A62074B00229A62064BE7
:101A90000F22DA62044803F02BF80346002B01D032
:101AA000FFF7CAFF00BF80BD005900200030014091
:101AB00080B58AB000AF786007F1140300221A6085
:101AC0005A609A60DA601A617B681B68194A93420F
:101AD0002BD100233B61184B5B6C174A43F48053B6
:101AE0005364154B5B6C03F480533B613B690023EB
:101AF000FB60114B1B6B104A43F0010313630E4B49
:101B00001B6B03F00103FB60FB68A0237B610223D6
:101B1000BB610023FB6103233B6205237B6207F16A
:101B200014031946054800F077FC00BF2837BD466E
:101B300080BD00BF0030014000380240000002407C
:101B400080B485B000AF78607B681B680B4A934215
:101B50000DD10023FB600A4B5B6C094A43F0010383
:101B60005364074B5B6C03F00103FB60FB6800BF31
:101B70001437BD465DF8047B704700BF000001408C
:101B80000038024080B588B000AF786007F10C03E0
:101B900000221A605A609A60DA601A617B681B68DA
:101BA000124A93421ED10023BB60114B1B6B104A9B
:101BB00043F0010313630E4B1B6B03F00103BB6087
:101BC000BB684FF48073FB6002233B6100237B61A1
:101BD0000023BB610123FB6107F10C031946054893
:101BE00000F01AFC00BF2037BD4680BD0000014058
:101BF000003802400000024080B582B000AF0023F0
:101C00007B60104B5B6C0F4A43F4804353640D4B75
:101C10005B6C03F480437B607B6800233B60094B73
:101C20001B6C084A43F080531364064B1B6C03F093
:101C300080533B603B68072000F01AFB00BF083769
:101C4000BD4680BD0038024080B588B000AF7860E6
:101C500007F1080300221A605A609A60DA601A617C
:101C60005A617B681B680C4A934211D10423BB6004
:101C70004FF400733B6107F10803184602F0CCF8FB
:101C80000346002B01D0FFF7D7FE044B01221A6058
:101C900000BF2037BD4680BD002800403C0E4742B3
:101CA00080B58AB000AF786007F1140300221A6093
:101CB0005A609A60DA601A617B681B681D4A934219
:101CC00034D100233B611C4B5B6C1B4A43F0100377
:101CD0005364194B5B6C03F010033B613B690023B9
:101CE000FB60154B1B6B144A43F001031363124B4B
:101CF0001B6B03F00103FB60FB684FF400737B6117
:101D00001223BB610023FB6103233B6207237B6239
:101D100007F114031946094800F07EFB0022002158
:101D2000252000F0B0FA252000F0C9FA00BF2837BE
:101D3000BD4680BD00100140003802400000024056
:101D400080B400AF00BFFDE780B400AF00BFFDE787
:101D500080B400AF00BFFDE780B400AF00BFFDE777
:101D600080B400AF00BFFDE780B400AF00BFBD4648
:101D70005DF8047B704780B400AF00BFBD465DF8DE
:101D8000047B704780B400AF00BFBD465DF8047BA4
:101D9000704780B500AF00F057F900BF80BD80B438
:101DA00000AF01231846BD465DF8047B704780B53F
:101DB00082B000AF7860396007F094F803461622CD
:101DC0001A604FF0FF3318460837BD4680BD80B516
:101DD00082B000AF78604FF0FF317868FFF7E7FF1F
:101DE00000BFFDE780B586B000AFF860B9607A60EB
:101DF00000237B610AE0AFF300800146BB685A1CF8
:101E0000BA60CAB21A707B6901337B617A697B68F8
:101E10009A42F0DB7B6818461837BD4680BD80B516
:101E200086B000AFF860B9607A6000237B6109E09A
:101E3000BB685A1CBA601B781846AFF300807B69F8
:101E400001337B617A697B689A42F1DB7B681846D3
:101E50001837BD4680BD80B483B000AF78604FF0C6
:101E6000FF3318460C37BD465DF8047B704780B4DD
:101E700083B000AF786039603B684FF400525A601D
:101E8000002318460C37BD465DF8047B704780B4CC
:101E900083B000AF7860012318460C37BD465DF86B
:101EA000047B704780B485B000AFF860B9607A6099
:101EB000002318461437BD465DF8047B70470000C8
:101EC00080B586B000AF7860144A154BD31A7B6199
:101ED0007B693B61134B1B68002B02D1114B124AEB
:101EE0001A60104B1A687B6813443A699A4207D209
:101EF00006F0F8FF03460C221A604FF0FF3309E0AA
:101F0000084B1B68FB60074B1A687B681344054A43
:101F10001360FB6818461837BD4680BD008000205E
:101F20000004000058590020E85B002080B400AF96
:101F3000064BD3F88830054A43F47003C2F8883062
:101F400000BFBD465DF8047B704700BF00ED00E0B8
:101F5000DFF834D0FFF7EAFF0C480D490D4A0023A3
:101F600002E0D458C4500433C4188C42F9D30A4A4E
:101F70000A4C002301E013600432A242FBD306F0B6
:101F8000B7FFFFF789FC70470080002000000020A9
:101F9000543800206800010854380020E85B002015
:101FA000FEE7000080B500AF0E4B1B680D4A43F4FE
:101FB000007313600B4B1B680A4A43F48063136081
:101FC000084B1B68074A43F480731360032000F03A
:101FD0004FF9002000F008F8FFF70EFE0023184626
:101FE00080BD00BF003C024080B582B000AF786089
:101FF000124B1A68124B1B7819464FF47A73B3FBD5
:10200000F1F3B2FBF3F3184600F067F90346002B37
:1020100001D001230EE07B680F2B0AD800227968DB
:102020004FF0FF3000F02FF9064A7B681360002361
:1020300000E0012318460837BD4680BD78360020F1
:10204000803600207C36002080B400AF064B1B7821
:102050001A46064B1B681344044A136000BFBD4672
:102060005DF8047B704700BF803600205C5900207B
:1020700080B400AF034B1B681846BD465DF8047B77
:10208000704700BF5C59002080B584B000AF786015
:10209000FFF7EEFFB8607B68FB60FB68B3F1FF3FC2
:1020A00005D00A4B1B781A46FB681344FB6000BF3F
:1020B000FFF7DEFF0246BB68D31AFA689A42F7D8E8
:1020C00000BF00BF1037BD4680BD00BF8036002076
:1020D00080B485B000AF78607B6803F00703FB60D5
:1020E0000C4BDB68BB60BA684FF6FF031340BB6064
:1020F000FB681A02BB68134343F0BF6343F4003329
:10210000BB60044ABB68D36000BF1437BD465DF8AE
:10211000047B704700ED00E080B400AF044BDB6847
:102120001B0A03F007031846BD465DF8047B7047A1
:1021300000ED00E080B483B000AF0346FB7197F977
:102140000730002B0BDBFB7903F01F02074997F9DF
:1021500007305B09012000FA02F241F8232000BF9A
:102160000C37BD465DF8047B704700BF00E100E01E
:1021700080B483B000AF03463960FB7197F9073034
:10218000002B0ADB3B68DAB20C4997F907301201E1
:10219000D2B20B4483F800230AE03B68DAB2084964
:1021A000FB7903F00F03043B1201D2B20B441A7601
:1021B00000BF0C37BD465DF8047B704700E100E0CE
:1021C00000ED00E080B489B000AFF860B9607A60DB
:1021D000FB6803F00703FB61FB69C3F10703042BF2
:1021E00028BF0423BB61FB690433062B02D9FB69BA
:1021F000033B00E000237B614FF0FF32BB6902FA32
:1022000003F3DA43BB681A407B699A404FF0FF3111
:102210007B6901FA03F3D9437B680B4013431846EB
:102220002437BD465DF8047B7047000080B582B05E
:1022300000AF78607B68013BB3F1807F01D301235D
:102240000FE00A4A7B68013B53600F214FF0FF30DB
:10225000FFF78EFF054B00229A60044B07221A609D
:10226000002318460837BD4680BD00BF10E000E0DF
:1022700080B582B000AF78607868FFF729FF00BFB3
:102280000837BD4680BD80B586B000AF0346B96053
:102290007A60FB7300237B61FFF73EFF78617A6809
:1022A000B9687869FFF78EFF024697F90F3011463B
:1022B0001846FFF75DFF00BF1837BD4680BD80B5EB
:1022C00082B000AF0346FB7197F907301846FFF75D
:1022D00031FF00BF0837BD4680BD80B582B000AF7A
:1022E00078607868FFF7A2FF034618460837BD46B6
:1022F00080BD80B584B000AF78607B689B6DFB606B
:10230000FFF7B6FEB8607B6893F83530DBB2022B7E
:1023100008D07B6880225A657B68002283F83420CD
:10232000012352E07B681B681A687B681B6822F0F7
:1023300016021A607B681B685A697B681B6822F06A
:1023400080025A617B681B6C002B03D17B689B6CFD
:10235000002B07D07B681B681A687B681B6822F01B
:1023600008021A607B681B681A687B681B6822F089
:1023700001021A6013E0FFF77BFE0246BB68D31A26
:10238000052B0CD97B6820225A657B68032283F8D1
:1023900035207B68002283F83420032315E07B6816
:1023A0001B681B6803F00103002BE4D17B68DB6D25
:1023B0003F229A40FB689A607B68012283F83520AF
:1023C0007B68002283F83420002318461037BD466E
:1023D00080BD80B483B000AF78607B6893F83530FF
:1023E000DBB2022B04D07B6880225A6501230CE00B
:1023F0007B68052283F835207B681B681A687B6838
:102400001B6822F001021A60002318460C37BD46F3
:102410005DF8047B7047000080B489B000AF78603D
:10242000396000237B6100233B610023BB610023F3
:10243000FB614DE10122FB6902FA03F37B613B681A
:102440001B687A6913403B613A697B699A4240F0A4
:102450003C813B685B6803F00303012B05D03B68BC
:102460005B6803F00303022B30D17B689B68BB6180
:10247000FB695B00032202FA03F3DB43BA691340F2
:10248000BB613B68DA68FB695B0002FA03F3BA6977
:102490001343BB617B68BA699A607B685B68BB6108
:1024A0000122FB6902FA03F3DB43BA691340BB6103
:1024B0003B685B681B0903F00102FB6902FA03F346
:1024C000BA691343BB617B68BA695A603B685B6851
:1024D00003F00303032B17D07B68DB68BB61FB6948
:1024E0005B00032202FA03F3DB43BA691340BB61CA
:1024F0003B689A68FB695B0002FA03F3BA6913430D
:10250000BB617B68BA69DA603B685B6803F0030310
:10251000022B23D1FB69DA087B68083253F822309A
:10252000BB61FB6903F007039B000F2202FA03F370
:10253000DB43BA691340BB613B681A69FB6903F06E
:1025400007039B0002FA03F3BA691343BB61FB69FB
:10255000DA087B680832B96943F822107B681B6887
:10256000BB61FB695B00032202FA03F3DB43BA6938
:102570001340BB613B685B6803F00302FB695B00CF
:1025800002FA03F3BA691343BB617B68BA691A6044
:102590003B685B6803F44033002B00F09680002317
:1025A000FB60514B5B6C504A43F4804353644E4B89
:1025B0005B6C03F48043FB60FB684C4AFB699B083F
:1025C000023352F82330BB61FB6903F003039B0025
:1025D0000F2202FA03F3DB43BA691340BB617B6845
:1025E000434A93420DD07B68424A934207D07B68AE
:1025F000414A934201D1022304E0072302E0012370
:1026000000E00023FA6902F0030292009340BA69E5
:102610001343BB613549FB699B080233BA6941F832
:102620002320364B9B68BB613B69DB43BA6913408F
:10263000BB613B685B6803F48013002B03D0BA696D
:102640003B691343BB612D4ABB6993602B4BDB682D
:10265000BB613B69DB43BA691340BB613B685B68A4
:1026600003F40013002B03D0BA693B691343BB6129
:10267000224ABB69D360214B5B68BB613B69DB438A
:10268000BA691340BB613B685B6803F40033002BFD
:1026900003D0BA693B691343BB61184ABB695360F5
:1026A000164B1B68BB613B69DB43BA691340BB61D6
:1026B0003B685B6803F48033002B03D0BA693B6945
:1026C0001343BB610D4ABB691360FB690133FB61B6
:1026D000FB690F2B7FF6AEAE00BF00BF2437BD46AF
:1026E0005DF8047B704700BF0038024000380140AD
:1026F000000002400004024000080240003C01408B
:1027000080B483B000AF78600B467B8013467B704B
:102710007B78002B03D07A887B689A6103E07B8802
:102720001A047B689A6100BF0C37BD465DF8047BD4
:102730007047000080B584B000AF78607B68002BE4
:1027400001D101232BE17B6893F83D30DBB2002BF4
:1027500006D17B68002283F83C207868FFF754F8A4
:102760007B68242283F83D207B681B681A687B689D
:102770001B6822F001021A607B681B681A687B687C
:102780001B6842F400421A607B681B681A687B6809
:102790001B6822F400421A6001F016FBF8607B68A7
:1027A0005B68814A934207D8FB68804A934294BF92
:1027B00001230023DBB206E0FB687D4A934294BF0D
:1027C00001230023DBB2002B01D00123E7E0FB68EB
:1027D000784AA2FB03239B0CBB607B681B685B6889
:1027E00023F03F017B681B68BA680A435A607B6824
:1027F0001B681B6A23F03F017B685B686A4A93424F
:1028000002D8BB68013309E0BB684FF4967202FB43
:1028100003F3694AA2FB03239B0901337A68126818
:102820000B4313627B681B68DB6923F44F4222F081
:10283000FF027B685B685C498B4219D8FB68591EB4
:102840007B685B685B00B1FBF3F3591C40F6FC73DB
:102850000B40002B0AD0FB68591E7B685B685B004D
:10286000B1FBF3F30133C3F30B0351E004234FE057
:102870007B689B68002B11D1FB68581E7B685968E8
:102880000B465B000B44B0FBF3F30133C3F30B03C4
:10289000002B0CBF01230023DBB212E0FB68581EA3
:1028A0007B6859680B469B000B4499000B44B0FBB6
:1028B000F3F30133C3F30B03002B0CBF01230023FD
:1028C000DBB2002B01D0012322E07B689B68002B48
:1028D0000ED1FB68581E7B6859680B465B000B44A1
:1028E000B0FBF3F30133C3F30B0343F400430FE0F6
:1028F000FB68581E7B6859680B469B000B44990087
:102900000B44B0FBF3F30133C3F30B0343F4404335
:10291000796809681343CB617B681B681B6823F0E7
:10292000C0017B68DA697B681B6A1A437B681B6895
:102930000A431A607B681B689B6823F4034323F0F7
:10294000FF037A6811697A68D26811437A6812685D
:102950000B4393607B681B68DB6823F0FF017B6897
:102960005A697B689B691A437B681B680A43DA6073
:102970007B681B681A687B681B6842F001021A605A
:102980007B6800221A647B68202283F83D207B68E4
:1029900000221A637B68002283F83E200023184639
:1029A0001037BD4680BD00BFA08601007F841E0099
:1029B000FF083D0083DE1B43D34D621080B588B015
:1029C00002AFF860084611461A4603467B810B4663
:1029D0003B811346FB80FFF74BFB7861FB6893F864
:1029E0003D30DBB2202B40F0D9807B690093192366
:1029F00001226D49F86800F0B9FD0346002B01D0B3
:102A00000223CCE0FB6893F83C30012B01D1022378
:102A1000C5E0FB68012283F83C20FB681B681B684B
:102A200003F00103012B07D0FB681B681A68FB68E1
:102A30001B6842F001021A60FB681B681A68FB6899
:102A40001B6822F400621A60FB68212283F83D2093
:102A5000FB68402283F83E20FB6800221A64FB6872
:102A60003A6A5A62FB68BA8C5A85FB685B8D9AB2E7
:102A7000FB681A85FB684D4ADA62F8883A897989D9
:102A80007B690193BB6A00930346F86800F0F0FB92
:102A90000346002B52D0012381E07A69B96AF868B5
:102AA00000F07EFE0346002B0DD0FB681B6C042B50
:102AB00007D1FB681B681A68FB681B6842F4007248
:102AC0001A6001236BE0FB685B6A1A78FB681B687D
:102AD0001A61FB685B6A5A1CFB685A62FB681B8DB3
:102AE000013B9AB2FB681A85FB685B8D9BB2013B88
:102AF0009AB2FB685A85FB681B685B6903F00403A4
:102B0000042B1BD1FB681B8D002B17D0FB685B6A65
:102B10001A78FB681B681A61FB685B6A5A1CFB68C1
:102B20005A62FB681B8D013B9AB2FB681A85FB68F1
:102B30005B8D9BB2013B9AB2FB685A85FB681B8D8B
:102B4000002BAAD17A69B96AF86800F071FE0346D1
:102B5000002B0DD0FB681B6C042B07D1FB681B6896
:102B60001A68FB681B6842F400721A60012316E0C1
:102B7000FB681B681A68FB681B6842F400721A60E5
:102B8000FB68202283F83D20FB68002283F83E206A
:102B9000FB68002283F83C20002300E00223184653
:102BA0001837BD4680BD00BF020010000000FFFFC7
:102BB00080B58CB002AFF860084611461A4603464D
:102BC0007B810B463B811346FB80FFF751FA78620D
:102BD000FB6893F83D30DBB2202B40F014827B6A17
:102BE0000093192301227B49F86800F0BFFC0346DB
:102BF000002B01D0022307E2FB6893F83C30012B45
:102C000001D1022300E2FB68012283F83C20FB682B
:102C10001B681B6803F00103012B07D0FB681B68CE
:102C20001A68FB681B6842F001021A60FB681B68A7
:102C30001A68FB681B6822F400621A60FB68222293
:102C400083F83D20FB68402283F83E20FB68002289
:102C50001A64FB683A6B5A62FB68BA8E5A85FB6845
:102C60005B8D9AB2FB681A85FB685B4ADA62F8886A
:102C70003A8979897B6A0193BB6B00930346F868B4
:102C800000F08CFB0346002B01D00123BCE1FB6864
:102C90001B8D002B13D100233B62FB681B685B6913
:102CA0003B62FB681B689B693B623B6AFB681B6875
:102CB0001A68FB681B6842F400721A6090E1FB68B6
:102CC0001B8D012B1BD1FB681B681A68FB681B68F6
:102CD00022F480621A600023FB61FB681B685B6959
:102CE000FB61FB681B689B69FB61FB69FB681B68F8
:102CF0001A68FB681B6842F400721A6070E1FB6896
:102D00001B8D022B1BD1FB681B681A68FB681B68B4
:102D100022F480621A60FB681B681A68FB681B68F3
:102D200042F400621A600023BB61FB681B685B69A8
:102D3000BB61FB681B689B69BB61BB6950E10023F9
:102D40007B61FB681B685B697B61FB681B689B6937
:102D50007B617B6944E1FB681B8D032B00F2F180F2
:102D6000FB681B8D012B23D17A6AB96BF86800F0E0
:102D7000A7FD0346002B01D0012345E1FB681B683A
:102D80001A69FB685B6AD2B21A70FB685B6A5A1CEC
:102D9000FB685A62FB681B8D013B9AB2FB681A857F
:102DA000FB685B8D9BB2013B9AB2FB685A8517E1C9
:102DB000FB681B8D022B4ED17B6A0093BB6B0022FC
:102DC0000649F86800F0D2FB0346002B08D0012327
:102DD0001AE100BF020010000000FFFF0400010024
:102DE000FB681B681A68FB681B6842F400721A6073
:102DF000FB681B681A69FB685B6AD2B21A70FB68D1
:102E00005B6A5A1CFB685A62FB681B8D013B9AB2D5
:102E1000FB681A85FB685B8D9BB2013B9AB2FB682D
:102E20005A85FB681B681A69FB685B6AD2B21A7024
:102E3000FB685B6A5A1CFB685A62FB681B8D013B8E
:102E40009AB2FB681A85FB685B8D9BB2013B9AB214
:102E5000FB685A85C4E07B6A0093BB6B00226C4917
:102E6000F86800F083FB0346002B01D00123CBE080
:102E7000FB681B681A68FB681B6822F480621A6092
:102E8000FB681B681A69FB685B6AD2B21A70FB6840
:102E90005B6A5A1CFB685A62FB681B8D013B9AB245
:102EA000FB681A85FB685B8D9BB2013B9AB2FB689D
:102EB0005A857B6A0093BB6B00225549F86800F085
:102EC00055FB0346002B01D001239DE0FB681B68E6
:102ED0001A68FB681B6842F400721A60FB681B6882
:102EE0001A69FB685B6AD2B21A70FB685B6A5A1C8B
:102EF000FB685A62FB681B8D013B9AB2FB681A851E
:102F0000FB685B8D9BB2013B9AB2FB685A85FB68FC
:102F10001B681A69FB685B6AD2B21A70FB685B6A4D
:102F20005A1CFB685A62FB681B8D013B9AB2FB6816
:102F30001A85FB685B8D9BB2013B9AB2FB685A8590
:102F40004EE07A6AB96BF86800F0BAFC0346002BD1
:102F500001D0012358E0FB681B681A69FB685B6AB3
:102F6000D2B21A70FB685B6A5A1CFB685A62FB6833
:102F70001B8D013B9AB2FB681A85FB685B8D9BB287
:102F8000013B9AB2FB685A85FB681B685B6903F0DA
:102F90000403042B24D1FB681B8D032B07D1FB6892
:102FA0001B681A68FB681B6822F480621A60FB6861
:102FB0001B681A69FB685B6AD2B21A70FB685B6AAD
:102FC0005A1CFB685A62FB681B8D013B9AB2FB6876
:102FD0001A85FB685B8D9BB2013B9AB2FB685A85F0
:102FE000FB681B8D002B7FF4B6AEFB68202283F8B4
:102FF0003D20FB68002283F83E20FB68002283F816
:103000003C20002300E0022318462837BD4680BD3F
:103010000400010080B58AB002AFF8607A603B60BE
:103020000B467B81FFF724F8F8610023BB61FB6846
:1030300093F83D30DBB2202B40F01181FB69009307
:10304000192301228849F86800F090FA0346002B02
:1030500001D0022304E1FB6893F83C30012B01D13D
:103060000223FDE0FB68012283F83C20FB681B681B
:103070001B6803F00103012B07D0FB681B681A686B
:10308000FB681B6842F001021A60FB681B681A6843
:10309000FB681B6822F400621A60FB68242283F834
:1030A0003D20FB6800221A64FB68704ADA62FB6804
:1030B0001B681A68FB681B6842F480721A60FB691F
:1030C00000933B6800224FF00111F86800F04EFABF
:1030D0000346002B0DD0FB681B681B6803F480734C
:1030E000B3F5807F03D1FB684FF400721A640323A9
:1030F000B6E07B89DBB21A46FB681B6802F0FE0271
:103100001A61FEF7B5FFF861FB681B685B6903F0A5
:103110000203022B0CBF01230023DBB2FB75FB680B
:103120001B685B6903F48063B3F5806F0CBF0123F8
:103130000023DBB2BB7525E0FEF79AFF0246FB6970
:10314000D31A3A689A4202D33B68002B03D1FB683A
:10315000A02283F83D20FB681B685B6903F0020333
:10316000022B0CBF01230023DBB2FB75FB681B683D
:103170005B6903F48063B3F5806F0CBF0123002308
:10318000DBB2BB75FB6893F83D30DBB2A02B05D0FA
:10319000FB7D002B02D1BB7D002BCDD0FB68202214
:1031A00083F83D20FB681B685B6903F00203022B78
:1031B00029D1FB681B681A68FB681B6842F400721F
:1031C0001A6000233B61FB681B685B693B61FB681D
:1031D0001B689B693B613B69FB69009319230122D2
:1031E0002149F86800F0C2F90346002B01D0012301
:1031F00036E0FB68202283F83D20FB68002283F83C
:103200003C2000232CE0FB681B681A68FB681B68E5
:1032100042F400721A60FB681B686FF480625A61A6
:10322000FB690093192301220F49F86800F09EF909
:103230000346002B01D0012312E0BB690133BB61BF
:10324000BA697B689A42FFF432AFFB68202283F8A8
:103250003D20FB68002283F83C20012300E002238C
:1032600018462037BD4680BD020010000000FFFF59
:1032700080B588B002AFF860084611461A4603468A
:103280007B810B463B811346FB80FB681B681A68F9
:10329000FB681B6842F480721A607B6A00933B6A89
:1032A00000224FF00111F86800F060F90346002B8E
:1032B0000DD0FB681B681B6803F48073B3F5807F37
:1032C00003D1FB684FF400721A6403235FE07B892B
:1032D000DBB21A46FB681B6802F0FE021A617B6AC9
:1032E0003A6A2D49F86800F0BBF90346002B01D07B
:1032F00001234CE000237B61FB681B685B697B61F9
:10330000FB681B689B697B617B697A6A396AF8682C
:1033100000F046FA0346002B0DD0FB681B6C042B13
:1033200007D1FB681B681A68FB681B6842F40072CF
:103330001A6001232BE0FB88012B05D13B89DAB20F
:10334000FB681B681A6121E03B891B0A9BB2DAB259
:10335000FB681B681A617A6A396AF86800F020FA1B
:103360000346002B0DD0FB681B6C042B07D1FB68B8
:103370001B681A68FB681B6842F400721A6001231C
:1033800005E03B89DAB2FB681B681A610023184626
:103390001837BD4680BD00BF0200010080B588B06F
:1033A00002AFF860084611461A4603467B810B4679
:1033B0003B811346FB80FB681B681A68FB681B682F
:1033C00042F480621A60FB681B681A68FB681B681D
:1033D00042F480721A607B6A00933B6A00224FF0CD
:1033E0000111F86800F0C2F80346002B0DD0FB680D
:1033F0001B681B6803F48073B3F5807F03D1FB68FF
:103400004FF400721A640323AAE07B89DBB21A46E8
:10341000FB681B6802F0FE021A617B6A3A6A524935
:10342000F86800F01DF90346002B01D0012397E056
:1034300000237B61FB681B685B697B61FB681B6821
:103440009B697B617B697A6A396AF86800F0A8F940
:103450000346002B0DD0FB681B6C042B07D1FB68C7
:103460001B681A68FB681B6842F400721A6001232B
:1034700076E0FB88012B05D13B89DAB2FB681B683B
:103480001A6121E03B891B0A9BB2DAB2FB681B6818
:103490001A617A6A396AF86800F082F90346002BEB
:1034A0000DD0FB681B6C042B07D1FB681B681A68E6
:1034B000FB681B6842F400721A60012350E03B89EC
:1034C000DAB2FB681B681A617A6A396AF86800F038
:1034D00067F90346002B0DD0FB681B6C042B07D14A
:1034E000FB681B681A68FB681B6842F400721A606C
:1034F000012335E0FB681B681A68FB681B6842F40F
:1035000080721A607B6A00933B6A00224FF00111BF
:10351000F86800F02BF80346002B0DD0FB681B6801
:103520001B6803F48073B3F5807F03D1FB684FF40D
:1035300000721A64032313E07B89DBB243F00103BA
:10354000DAB2FB681B681A617B6A3A6A0649F86856
:1035500000F086F80346002B01D0012300E0002391
:1035600018461837BD4680BD0200010080B584B002
:1035700000AFF860B9603B601346FB7148E03B6800
:10358000B3F1FF3F44D0FEF773FD0246BB69D31A87
:103590003A689A4202D33B68002B39D1BB681B0CB6
:1035A000DBB2012B0DD1FB681B685B69DA43BB689A
:1035B00013409BB2002B0CBF01230023DBB21A4641
:1035C0000CE0FB681B689B69DA43BB6813409BB245
:1035D000002B0CBF01230023DBB21A46FB799A4271
:1035E00016D1FB6800221A63FB68202283F83D2075
:1035F000FB68002283F83E20FB681B6C43F020022E
:10360000FB681A64FB68002283F83C20012323E056
:10361000BB681B0CDBB2012B0DD1FB681B685B691F
:10362000DA43BB6813409BB2002B0CBF012300237D
:10363000DBB21A460CE0FB681B689B69DA43BB6887
:1036400013409BB2002B0CBF01230023DBB21A46B0
:10365000FB799A4293D0002318461037BD4680BDAF
:1036600080B584B000AFF860B9607A603B6071E00B
:10367000FB681B685B6903F48063B3F5806F23D13B
:10368000FB681B681A68FB681B6842F400721A60CA
:10369000FB681B686FF480625A61FB6800221A6342
:1036A000FB68202283F83D20FB68002283F83E203F
:1036B000FB681B6C43F00402FB681A64FB68002281
:1036C00083F83C20012367E07B68B3F1FF3F41D0E2
:1036D000FEF7CEFC02463B68D31A7A689A4202D3C0
:1036E0007B68002B36D1BB681B0CDBB2012B0CD1E5
:1036F000FB681B685B69DA43BB6813409BB2002B15
:1037000014BF01230023DBB20BE0FB681B689B693D
:10371000DA43BB6813409BB2002B14BF0123002384
:10372000DBB2002B16D0FB6800221A63FB68202254
:1037300083F83D20FB68002283F83E20FB681B6C69
:1037400043F02002FB681A64FB68002283F83C20E7
:10375000012321E0BB681B0CDBB2012B0CD1FB6801
:103760001B685B69DA43BB6813409BB2002B14BF34
:1037700001230023DBB20BE0FB681B689B69DA4383
:10378000BB6813409BB2002B14BF01230023DBB2A4
:10379000002B7FF46DAF002318461037BD4680BD67
:1037A00080B584B000AFF860B9607A6034E0F86842
:1037B00000F0E3F80346002B01D0012334E0BB689E
:1037C000B3F1FF3F28D0FEF753FC02467B68D31AC3
:1037D000BA689A4202D3BB68002B1DD1FB681B68F4
:1037E0005B6903F08003802B16D0FB6800221A630C
:1037F000FB68202283F83D20FB68002283F83E20EE
:10380000FB681B6C43F02002FB681A64FB68002213
:1038100083F83C20012307E0FB681B685B6903F029
:103820008003802BC3D1002318461037BD4680BDCE
:1038300080B584B000AFF860B9607A6034E0F868B1
:1038400000F09BF80346002B01D0012334E0BB6855
:10385000B3F1FF3F28D0FEF70BFC02467B68D31A7A
:10386000BA689A4202D3BB68002B1DD1FB681B6863
:103870005B6903F00403042B16D0FB6800221A6373
:10388000FB68202283F83D20FB68002283F83E205D
:10389000FB681B6C43F02002FB681A64FB68002283
:1038A00083F83C20012307E0FB681B685B6903F099
:1038B0000403042BC3D1002318461037BD4680BD36
:1038C00080B584B000AFF860B9607A6049E0FB6809
:1038D0001B685B6903F01003102B19D1FB681B6890
:1038E0006FF010025A61FB6800221A63FB68202205
:1038F00083F83D20FB68002283F83E20FB681A6CA9
:10390000FB681A64FB68002283F83C20012330E046
:10391000FEF7AEFB02467B68D31ABA689A4202D31E
:10392000BB68002B1DD1FB681B685B6903F040037B
:10393000402B16D0FB6800221A63FB68202283F814
:103940003D20FB68002283F83E20FB681B6C43F09F
:103950002002FB681A64FB68002283F83C200123E4
:1039600007E0FB681B685B6903F04003402BAED1A6
:10397000002318461037BD4680BD80B483B000AF29
:1039800078607B681B685B6903F48063B3F5806FC4
:103990001BD17B681B686FF480625A617B680022D0
:1039A0001A637B68202283F83D207B68002283F81D
:1039B0003E207B681B6C43F004027B681A647B68C2
:1039C000002283F83C20012300E0002318460C3736
:1039D000BD465DF8047B704780B584B000AF786069
:1039E00039607B68002B01D10123CCE0684B1B6858
:1039F00003F007033A689A420CD9654B3A68D2B291
:103A00001A70634B1B6803F007033A689A4201D0AF
:103A10000123B8E07B681B6803F00203002B20D071
:103A20007B681B6803F00403002B05D0594B9B688F
:103A3000584A43F4E05393607B681B6803F0080323
:103A4000002B05D0534B9B68524A43F4604393606C
:103A5000504B9B6823F0F0027B689B684D491343F1
:103A60008B607B681B6803F00103002B44D07B68EC
:103A70005B68012B07D1474B1B6803F40033002B15
:103A800019D101237FE07B685B68022B03D07B6840
:103A90005B68032B07D13F4B1B6803F00073002BBF
:103AA00009D101236FE03B4B1B6803F00203002B9D
:103AB00001D1012367E0374B9B6823F003027B6849
:103AC0005B68344913438B60FEF7D2FAF8600AE072
:103AD000FEF7CEFA0246FB68D31A41F288329342CF
:103AE00001D903234FE02B4B9B6803F00C027B684A
:103AF0005B689B009A42EBD1254B1B6803F00703E0
:103B00003A689A420CD2224B3A68D2B21A70204BD1
:103B10001B6803F007033A689A4201D0012332E0A0
:103B20007B681B6803F00403002B08D0194B9B68CB
:103B300023F4E0527B68DB68164913438B607B6893
:103B40001B6803F00803002B09D0124B9B6823F479
:103B500060427B681B69DB000E4913438B6000F0F9
:103B600021F802460B4B9B681B0903F00F030A491F
:103B7000CB5C22FA03F3094A1360094B1B68184611
:103B8000FEF732FA002318461037BD4680BD00BF4D
:103B9000003C024000380240D0FC0008783600208B
:103BA0007C3600202DE9B04F94B000AF00237B6439
:103BB0000023FB6400233B640023BB64794B9B68B8
:103BC00003F00C03082B0DD0082B00F2E180002B32
:103BD00002D0042B03D0DBE0734BBB64DBE0734B00
:103BE000BB64D8E06F4B5B6803F03F037B646D4BB5
:103BF0005B6803F48003002B63D06A4B5B689B090E
:103C00000022BB63FA63BB6BC3F308033B6300236F
:103C10007B63D7E90C4522462B464FF000004FF05E
:103C20000001590141EAD261500102460B4621468A
:103C3000511A3961294663EB01037B614FF00002A1
:103C40004FF00003D7E904AB59468B01514643EAD4
:103C5000916351468A015146B2EB0108594663EB24
:103C600001094FF000024FF000034FEAC90343EA95
:103C700058734FEAC80290469946234618EB03034F
:103C8000BB602B4649EB0303FB604FF000024FF093
:103C90000003D7E9024529464B02214643EAD153A6
:103CA00021464A02104619467B6C0022BB62FA622A
:103CB000D7E90A23FCF7A8FF02460B461346FB642C
:103CC00058E0384B5B689B09002218461146C0F348
:103CD00008033B6200237B62D7E9088942464B46D2
:103CE0004FF000004FF00001590141EAD26150014C
:103CF00002460B464146B2EB010A494663EB010B13
:103D00004FF000024FF000034FEA8B1343EA9A632F
:103D10004FEA8A12B2EB0A0463EB0B054FF0000284
:103D20004FF00003EB0043EA5473E20014461D46D3
:103D30004346E3183B604B4645EB03037B604FF083
:103D400000024FF00003D7E9004529468B022146C7
:103D500043EA915321468A02104619467B6C0022A1
:103D6000BB61FA61D7E90623FCF74EFF02460B461A
:103D70001346FB640B4B5B681B0C03F0030301331E
:103D80005B003B64FA6C3B6CB2FBF3F3BB6402E098
:103D9000054BBB6400BFBB6C18465037BD46BDE841
:103DA000B08F00BF003802400024F40000127A00F7
:103DB00080B400AF034B1B681846BD465DF8047B1A
:103DC000704700BF7836002080B500AFFFF7F0FFE6
:103DD0000246054B9B689B0A03F007030349CB5C33
:103DE00022FA03F3184680BD00380240E0FC0008C8
:103DF00080B500AFFFF7DCFF0246054B9B685B0B0D
:103E000003F007030349CB5C22FA03F3184680BD95
:103E100000380240E0FC000880B586B000AF786052
:103E200000237B6100233B617B681B6803F0040374
:103E3000002B00F083800023FB60614B1B6C604A09
:103E400043F0805313645E4B1B6C03F08053FB60A4
:103E5000FB685C4B1B685B4A43F480731360FEF79E
:103E600007F9786108E0FEF703F902467B69D31A87
:103E7000022B01D903239FE0524B1B6803F480738C
:103E8000002BF0D04E4B1B6F03F440733B613B693A
:103E9000002B2FD07B689B6803F440733A699A42E9
:103EA00028D0474B1B6F23F440733B61464B0122E4
:103EB0001A60454B00221A60414A3B691367404B28
:103EC0001B6F03F00103012B14D1FEF7D1F87861C9
:103ED0000AE0FEF7CDF802467B69D31A41F2883238
:103EE000934201D9032367E0354B1B6F03F00203B4
:103EF000002BEED07B689B6803F44073B3F5407FE2
:103F00000DD12F4B9B6823F4F8127B689B6823F03C
:103F1000704323F440732A4913438B6005E0284B18
:103F20009B68274A23F4F8139360254B1A6F7B682C
:103F30009B68C3F30B03224913430B677B681B6821
:103F400003F00203002B03D07B681A7D1F4B1A601D
:103F50007B681B6803F00803002B0AD0184BD3F8CA
:103F6000943023F440027B681B6915491343C1F860
:103F700094307B681B6803F01003002B0AD0104BB1
:103F8000D3F8943023F040427B68DB680C4913433C
:103F9000C1F894307B681B6803F00103002B0AD042
:103FA000074BD3F88C3023F0C0627B685B68044910
:103FB0001343C1F88C30002318461837BD4680BD26
:103FC0000038024000700040400E4742E011474276
:103FD00080B586B000AF78607B68002B01D10123EB
:103FE00073E27B681B6803F00103002B75D0884BDC
:103FF0009B6803F00C03042B0CD0854B9B6803F0EB
:104000000C03082B12D1824B5B6803F48003B3F5D9
:10401000800F0BD17E4B1B6803F40033002B5BD069
:104020007B685B68002B57D101234EE27B685B689D
:10403000B3F5803F06D1764B1B68754A43F4803355
:1040400013601DE07B685B68B3F5A02F0CD1704B4B
:104050001B686F4A43F4802313606D4B1B686C4AE6
:1040600043F4803313600BE0694B1B68684A23F408
:1040700080331360664B1B68654A23F4802313600A
:104080007B685B68002B13D0FDF7F2FF386108E016
:10409000FDF7EEFF02463B69D31A642B01D90323D7
:1040A00013E25B4B1B6803F40033002BF0D014E0E9
:1040B000FDF7DEFF386108E0FDF7DAFF02463B69F5
:1040C000D31A642B01D90323FFE1514B1B6803F47E
:1040D0000033002BF0D100E000BF7B681B6803F0C9
:1040E0000203002B63D04A4B9B6803F00C03002BA8
:1040F0000BD0474B9B6803F00C03082B1CD1444B9F
:104100005B6803F48003002B16D1414B1B6803F05E
:104110000203002B05D07B68DB68012B01D0012353
:10412000D3E13B4B1B6823F0F8027B681B69DB0083
:10413000374913430B603AE07B68DB68002B20D0E3
:10414000344B01221A60FDF793FF386108E0FDF758
:104150008FFF02463B69D31A022B01D90323B4E136
:104160002B4B1B6803F00203002BF0D0284B1B687D
:1041700023F0F8027B681B69DB00254913430B60C1
:1041800015E0244B00221A60FDF772FF386108E049
:10419000FDF76EFF02463B69D31A022B01D90323B8
:1041A00093E11B4B1B6803F00203002BF0D17B68EB
:1041B0001B6803F00803002B36D07B685B69002B7B
:1041C00016D0154B01221A60FDF752FF386108E046
:1041D000FDF74EFF02463B69D31A022B01D9032398
:1041E00073E10B4B5B6F03F00203002BF0D01BE07D
:1041F000094B00221A60FDF73BFF38610EE0FDF726
:1042000037FF02463B69D31A022B07D903235CE12F
:104210000038024000004742800E47428A4B5B6FE5
:1042200003F00203002BEAD17B681B6803F0040350
:10423000002B00F097800023FB75834B1B6C03F071
:104240008053002B0FD10023BB607F4B1B6C7E4A39
:1042500043F0805313647C4B1B6C03F08053BB60B2
:10426000BB680123FB75794B1B6803F48073002B3B
:1042700018D1764B1B68754A43F480731360FDF7C1
:10428000F7FE386108E0FDF7F3FE02463B69D31AFA
:10429000022B01D9032318E16C4B1B6803F48073D4
:1042A000002BF0D07B689B68012B06D1664B1B6FFF
:1042B000654A43F0010313671CE07B689B68052B8C
:1042C0000CD1614B1B6F604A43F0040313675E4BD4
:1042D0001B6F5D4A43F0010313670BE05A4B1B6FE2
:1042E000594A23F001031367574B1B6F564A23F0BB
:1042F000040313677B689B68002B15D0FDF7B8FE9D
:1043000038610AE0FDF7B4FE02463B69D31A41F278
:104310008832934201D90323D7E04B4B1B6F03F044
:104320000203002BEED014E0FDF7A2FE38610AE094
:10433000FDF79EFE02463B69D31A41F28832934252
:1043400001D90323C1E0404B1B6F03F00203002B94
:10435000EED1FB7D012B05D13B4B1B6C3A4A23F080
:10436000805313647B689B69002B00F0AD80364B53
:104370009B6803F00C03082B60D07B689B69022BC1
:1043800045D1334B00221A60FDF772FE386108E018
:10439000FDF76EFE02463B69D31A022B01D90323B7
:1043A00093E0294B1B6803F00073002BF0D17B686E
:1043B000DA697B681B6A1A437B685B6A9B011A4354
:1043C0007B689B6A5B08013B1B041A437B68DB6AC2
:1043D0001B061A437B681B6B1B071B4913434B606F
:1043E0001B4B01221A60FDF743FE386108E0FDF720
:1043F0003FFE02463B69D31A022B01D9032364E036
:10440000114B1B6803F00073002BF0D05CE0104BE5
:1044100000221A60FDF72CFE386108E0FDF728FE47
:1044200002463B69D31A022B01D903234DE0064B08
:104430001B6803F00073002BF0D145E07B689B699B
:10444000012B07D1012340E00038024000700040FA
:10445000600047421F4B5B68FB607B689B69012BD8
:1044600030D0FB6803F480027B68DB699A4229D173
:10447000FB6803F03F027B681B6A9A4222D1FA680C
:1044800047F6C07313407A68526A9201934219D179
:10449000FB6803F440327B689B6A5B08013B1B04AA
:1044A0009A420FD1FB6803F070627B68DB6A1B06DF
:1044B0009A4207D1FB6803F0E0427B681B6B1B0745
:1044C0009A4201D0012300E0002318461837BD4668
:1044D00080BD00BF0038024080B584B000AF786076
:1044E0000123FB737B68002B01D1012373E07B6800
:1044F0005B7FDBB2002B05D17B6800221A777868DE
:10450000FDF7A2FB7B6802225A777B681B68DB6899
:1045100003F01003102B55D07B681B68CA225A6227
:104520007B681B6853225A62786800F049FA034698
:10453000FB73FB7B002B2CD17B681B689B687A6824
:10454000126823F4E00323F0400393607B681B6848
:1045500099687B685A687B681B691A437B685B694A
:104560001A437B681B680A439A607B681B687A68F9
:10457000D2681A617B681B6819697B689B681A049A
:104580007B681B680A431A61786800F050FA03469A
:10459000FB73FB7B002B10D17B681B681A6C7B685C
:1045A0001B6822F480221A647B681B68196C7B6884
:1045B0009A697B681B680A431A647B681B68FF2240
:1045C0005A6201E00023FB73FB7B002B02D17B6866
:1045D00001225A77FB7B18461037BD4680BD90B547
:1045E00087B000AFF860B9607A6000237B61FB6838
:1045F0001B7F012B01D1022387E0FB6801221A7780
:10460000FB6802225A777B68002B26D1FB681B6867
:104610009B6803F04003002B02D1BB680022DA70D4
:10462000BB681B78184600F027FA03461C04BB68D9
:104630005B78184600F020FA03461B021C43BB6857
:104640009B78184600F018FA034644EA0302BB6858
:10465000DB789B0513437B6118E0FB681B689B6854
:1046600003F04003002B02D1BB680022DA70BB6864
:104670001B781A04BB685B781B021343BA689278F4
:104680001A43BB68DB789B0513437B61FB681B689F
:10469000CA225A62FB681B6853225A62F86800F00B
:1046A0008FF90346FB74FB7C002B20D1FB681A6852
:1046B0007B6903F07F3323F0FE431360FB681B68C4
:1046C0009A68FB681B6822F480229A60FB681B686A
:1046D0009968BB68DA68BB681B691A43FB681B688A
:1046E0000A439A60F86800F0A2F90346FB74FB7C69
:1046F000002B02D1FB6801225A77FB681B68FF225E
:104700005A62FB6800221A77FB7C18461C37BD46AC
:1047100090BD80B586B000AFF860B9607A600023C4
:104720007B61FB681B689A6ABB685A60FB681B6800
:104730001B69C3F30E02BB689A60FB681B681B68A9
:1047400003F07F3323F0FE437B617B691B0CDBB2FC
:1047500003F03F03DAB2BB681A707B691B0ADBB255
:1047600003F07F03DAB2BB685A707B69DBB203F0F7
:104770007F03DAB2BB689A707B699B0DDBB203F0F2
:104780000103DAB2BB68DA707B68002B1AD1BB6810
:104790001B78184600F08EF903461A46BB681A705B
:1047A000BB685B78184600F085F903461A46BB687B
:1047B0005A70BB689B78184600F07CF903461A468D
:1047C000BB689A70002318461837BD4680BD90B567
:1047D00087B000AFF860B9607A6000237B61FB6846
:1047E0001B7F012B01D1022371E0FB6801221A77A4
:1047F000FB6802225A777B68002B0ED1BB685B787E
:1048000003F01003002B08D0BB685B7823F0100383
:10481000DBB20A33DAB2BB685A707B68002B1CD15A
:10482000BB68DB78184600F027F903461C04BB6818
:104830005B78184600F020F903461B021C43BB6856
:104840009B78184600F018F9034644EA0302BB6857
:104850001B785B0313437B610EE0BB68DB781A04B3
:10486000BB685B781B021343BA6892781A43BB6833
:104870001B785B0313437B61FB681B68CA225A6287
:10488000FB681B6853225A62F86800F099F80346E7
:10489000FB74FB7C002B0CD1FB681A687B6923F04E
:1048A0007F4323F0C0035360F86800F0C0F803466C
:1048B000FB74FB7C002B02D1FB6801225A77FB685A
:1048C0001B68FF225A62FB6800221A77FB7C18469D
:1048D0001C37BD4690BD80B586B000AFF860B960AA
:1048E0007A6000237B61FB681B685B6823F07F4371
:1048F00023F0C0037B617B691B0CDAB2BB68DA7002
:104900007B691B0ADBB203F01F03DAB2BB685A7083
:104910007B69DBB203F03F03DAB2BB689A707B6954
:104920005B0BDBB203F00703DAB2BB681A707B687B
:10493000002B1AD1BB68DB78184600F0BBF80346A1
:104940001A46BB68DA70BB685B78184600F0B2F8AC
:1049500003461A46BB685A70BB689B78184600F03D
:10496000A9F803461A46BB689A7000231846183700
:10497000BD4680BD80B584B000AF78600023FB6089
:104980007B681B680D4ADA60FDF772FBF86009E08E
:10499000FDF76EFB0246FB68D31AB3F57A7F01D9A7
:1049A000032307E07B681B68DB6803F02003002B10
:1049B000EED0002318461037BD4680BD5F7F010052
:1049C00080B584B000AF78600023BB600023FB7328
:1049D0007B681B68DB6803F04003002B22D17B68F7
:1049E0001B68DA687B681B6842F08002DA60FDF7BA
:1049F0003FFBB8600CE0FDF73BFB0246BB68D31AF7
:104A0000B3F57A7F04D97B6804225A770123FB73BC
:104A10007B681B68DB6803F04003002B02D1FB7B43
:104A2000012BE8D1FB7B18461037BD4680BD80B511
:104A300084B000AF78600023FB737B681B68DA6882
:104A40007B681B6822F08002DA607B681B689B68C9
:104A500003F02003002B0AD17868FFF78BFF034691
:104A6000002B04D07B6804225A770123FB73FB7B65
:104A700018461037BD4680BD80B485B000AF0346F0
:104A8000FB710023FB6005E0FB680133FB60FB79F1
:104A90000A3BFB71FB79092BF6D8FB68DBB21B01E3
:104AA000DAB2FB791343DBB218461437BD465DF822
:104AB000047B704780B485B000AF0346FB710023D0
:104AC000FB60FB791B09DBB21A4613469B001344BB
:104AD0005B00FB60FB68DAB2FB7903F00F03DBB22B
:104AE0001344DBB218461437BD465DF8047B7047AB
:104AF00080B582B000AF78607B68002B01D10123C4
:104B00007BE07B685B6A002B08D17B685B68B3F550
:104B1000827F09D07B680022DA6105E07B68002291
:104B20001A617B6800225A617B6800229A627B6866
:104B300093F85130DBB2002B06D17B68002283F85A
:104B400050207868FCF7B4FF7B68022283F851207C
:104B50007B681B681A687B681B6822F040021A6039
:104B60007B685B6803F482727B689B6803F4044390
:104B70001A437B68DB6803F400631A437B681B6994
:104B800003F002031A437B685B6903F001031A43D5
:104B90007B689B6903F400731A437B68DB6903F04D
:104BA00038031A437B681B6A03F0800342EA03015F
:104BB0007B689B6A03F400527B681B680A431A6097
:104BC0007B689B691B0C03F004017B685B6A03F044
:104BD00010027B681B680A435A607B681B68DA69AD
:104BE0007B681B6822F40062DA617B6800225A65E8
:104BF0007B68012283F85120002318460837BD4600
:104C000080BD80B588B000AFF860B9603B601346E6
:104C1000FB800023FB77FB6893F85030012B01D118
:104C200002232DE1FB68012283F85020FDF720FAD2
:104C3000B861FB88FB82FB6893F85130DBB2012B33
:104C400002D00223FB7716E1BB68002B02D0FB8861
:104C5000002B02D10123FB770DE1FB68032283F8CF
:104C60005120FB6800225A65FB68BA681A63FB682A
:104C7000FA889A86FB68FA88DA86FB6800229A63CB
:104C8000FB6800229A87FB680022DA87FB68002213
:104C90005A64FB6800221A64FB689B68B3F5004FF6
:104CA0000FD1FB681B681A68FB681B6822F0400282
:104CB0001A60FB681B681A68FB681B6842F4804234
:104CC0001A60FB681B681B6803F04003402B07D089
:104CD000FB681B681A68FB681B6842F040021A6098
:104CE000FB68DB68B3F5006F4FD1FB685B68002B96
:104CF00002D0FB8A012B42D1FB681B6B1A88FB6830
:104D00001B68DA60FB681B6B9A1CFB681A63FB6804
:104D1000DB8E9BB2013B9AB2FB68DA862FE0FB6820
:104D20001B689B6803F00203022B12D1FB681B6B0C
:104D30001A88FB681B68DA60FB681B6B9A1CFB68AF
:104D40001A63FB68DB8E9BB2013B9AB2FB68DA8682
:104D500015E0FDF78DF90246BB69D31A3A689A420D
:104D600003D83B68B3F1FF3F02D13B68002B06D16B
:104D70000323FB77FB68012283F851207BE0FB686B
:104D8000DB8E9BB2002BCAD150E0FB685B68002B26
:104D900002D0FB8A012B44D1FB681A6BFB681B68AD
:104DA0000C3312781A70FB681B6B5A1CFB681A6371
:104DB000FB68DB8E9BB2013B9AB2FB68DA8630E07F
:104DC000FB681B689B6803F00203022B13D1FB688E
:104DD0001A6BFB681B680C3312781A70FB681B6B2C
:104DE0005A1CFB681A63FB68DB8E9BB2013B9AB2CC
:104DF000FB68DA8615E0FDF73BF90246BB69D31A7A
:104E00003A689A4203D83B68B3F1FF3F02D13B684E
:104E1000002B06D10323FB77FB68012283F8512086
:104E200029E0FB68DB8E9BB2002BC9D1BA693968D7
:104E3000F86800F0B1F80346002B02D0FB6820228E
:104E40005A65FB689B68002B0AD100233B61FB6815
:104E50001B68DB683B61FB681B689B683B613B69C7
:104E6000FB685B6D002B02D00123FB7703E0FB683E
:104E7000012283F85120FB68002283F85020FB7F39
:104E800018462037BD4680BD80B588B000AFF860B9
:104E9000B9603B601346FB71FDF7EAF80246BB6A56
:104EA0009B1A3A681344FB61FDF7E2F8B861394B8D
:104EB0001B685B011B0DFA6902FB03F37B6154E085
:104EC0003B68B3F1FF3F50D0FDF7D2F80246BB6913
:104ED000D31AFA699A4202D9FB69002B3DD1FB68CB
:104EE0001B685A68FB681B6822F0E0025A60FB6886
:104EF0005B68B3F5827F11D1FB689B68B3F5004F07
:104F000004D0FB689B68B3F5806F07D1FB681B6812
:104F10001A68FB681B6822F040021A60FB689B6AF3
:104F2000B3F5005F0FD1FB681B681A68FB681B684C
:104F300022F400521A60FB681B681A68FB681B6841
:104F400042F400521A60FB68012283F85120FB688A
:104F5000002283F85020032317E07B69002B01D146
:104F60000023FB617B69013B7B61FB681B689A68DE
:104F7000BB681340BA689A420CBF01230023DBB21E
:104F80001A46FB799A429BD1002318462037BD462A
:104F900080BD00BF7836002080B588B002AFF860D1
:104FA000B9607A607B680093BB6801220221F868CF
:104FB000FFF76AFF0346002B07D0FB685B6D43F0E9
:104FC0002002FB685A65032332E01B4B1B681B4A17
:104FD000A2FB03235B0D4FF47A7202FB03F37B61A8
:104FE000FB685B68B3F5827F12D17B680093BB6876
:104FF00000228021F868FFF747FF0346002B16D0F8
:10500000FB685B6D43F02002FB685A6503230FE0E9
:105010007B69002B0AD07B69013B7B61FB681B68C5
:105020009B6803F08003802BF2D000E000BF0023D8
:1050300018461837BD4680BD78360020819F5E1621
:1050400080B582B000AF78607B68002B01D101236E
:1050500041E07B6893F83D30DBB2002B06D17B68E2
:10506000002283F83C207868FCF76AFD7B68022206
:1050700083F83D207B681A687B6804331946104624
:1050800000F0AEFA7B68012283F846207B6801229B
:1050900083F83E207B68012283F83F207B68012251
:1050A00083F840207B68012283F841207B6801223D
:1050B00083F842207B68012283F843207B68012229
:1050C00083F844207B68012283F845207B68012215
:1050D00083F83D20002318460837BD4680BD80B5C3
:1050E00082B000AF78607B68002B01D1012341E0E2
:1050F0007B6893F83D30DBB2002B06D17B68002241
:1051000083F83C20786800F039F87B68022283F845
:105110003D207B681A687B6804331946104600F00E
:105120005FFA7B68012283F846207B68012283F8BE
:105130003E207B68012283F83F207B68012283F8B0
:1051400040207B68012283F841207B68012283F89C
:1051500042207B68012283F843207B68012283F888
:1051600044207B68012283F845207B68012283F874
:105170003D20002318460837BD4680BD80B483B06B
:1051800000AF786000BF0C37BD465DF8047B704708
:1051900080B584B000AF786039603B68002B09D1DE
:1051A0007B6893F83E30DBB2012B14BF0123002350
:1051B000DBB222E03B68042B09D17B6893F83F30D7
:1051C000DBB2012B14BF01230023DBB215E03B68E7
:1051D000082B09D17B6893F84030DBB2012B14BF58
:1051E00001230023DBB208E07B6893F84130DBB297
:1051F000012B14BF01230023DBB2002B01D00123BC
:1052000059E03B68002B04D17B68022283F83E20E2
:1052100013E03B68042B04D17B68022283F83F2013
:105220000BE03B68082B04D17B68022283F8402006
:1052300003E07B68022283F841207B681B6801221F
:105240003968184600F05CFC7B681B681C4A934276
:1052500007D17B681B685A6C7B681B6842F400426C
:105260005A647B681B68164A934209D07B681B68A6
:10527000144A934204D07B681B68134A934211D1AD
:105280007B681B689B6803F00703FB60FB68062BC9
:1052900010D07B681B681A687B681B6842F00102AB
:1052A0001A6007E07B681B681A687B681B6842F01D
:1052B00001021A60002318461037BD4680BD00BFAA
:1052C00000000140000C00400040014080B586B065
:1052D00000AFF860B9607A600023FB75FB6893F853
:1052E0003C30012B01D10223AEE0FB68012283F8A0
:1052F0003C207B680C2B00F29F8001A252F823F027
:10530000355300083954000839540008395400084E
:1053100075530008395400083954000839540008FE
:10532000B7530008395400083954000839540008AC
:10533000F7530008FB681B68B968184600F0BAF913
:10534000FB681B689A69FB681B6842F008029A6157
:10535000FB681B689A69FB681B6822F004029A616B
:10536000FB681B689969BB681A69FB681B680A437C
:105370009A6164E0FB681B68B968184600F000FA9F
:10538000FB681B689A69FB681B6842F400629A61BB
:10539000FB681B689A69FB681B6822F480629A614B
:1053A000FB681B689969BB681B691A02FB681B686C
:1053B0000A439A6143E0FB681B68B968184600F02D
:1053C0004BFAFB681B68DA69FB681B6842F008024D
:1053D000DA61FB681B68DA69FB681B6822F004026B
:1053E000DA61FB681B68D969BB681A69FB681B68CE
:1053F0000A43DA6123E0FB681B68B968184600F0CD
:1054000095FAFB681B68DA69FB681B6842F4006266
:10541000DA61FB681B68DA69FB681B6822F480624A
:10542000DA61FB681B68D969BB681B691A02FB68F3
:105430001B680A43DA6102E00123FB7500BFFB68C9
:10544000002283F83C20FB7D18461837BD4680BDFE
:1054500080B584B000AF786039600023FB737B684F
:1054600093F83C30012B01D10223B4E07B68012288
:1054700083F83C207B68022283F83D207B681B6810
:105480009B68BB60BB6823F07703BB60BB6823F4F9
:105490007F43BB607B681B68BA689A603B681B6887
:1054A000B3F5005F3ED0B3F5005F00F28780B3F53F
:1054B000805F00F08680B3F5805F7FD8702B1AD0B4
:1054C000702B7BD8602B50D0602B77D8502B3CD0E2
:1054D000502B73D8402B58D0402B6FD8302B64D032
:1054E000302B6BD8202B60D0202B67D8002B5CD0C2
:1054F000102B5AD062E07B6818683B6899683B685B
:105500005A683B68DB6800F0DBFA7B681B689B68C5
:10551000BB60BB6843F07703BB607B681B68BA68FD
:105520009A604FE07B6818683B6899683B685A68E6
:105530003B68DB6800F0C4FA7B681B689A687B688C
:105540001B6842F480429A603CE07B6818683B68C4
:1055500059683B68DB681A4600F038FA7B681B68BC
:105560005021184600F091FA2CE07B6818683B68DF
:1055700059683B68DB681A4600F057FA7B681B687D
:105580006021184600F081FA1CE07B6818683B68CF
:1055900059683B68DB681A4600F018FA7B681B689C
:1055A0004021184600F071FA0CE07B681A683B68ED
:1055B0001B681946104600F068FA03E00123FB73EC
:1055C00000E000BF7B68012283F83D207B68002259
:1055D00083F83C20FB7B18461037BD4680BD000099
:1055E00080B485B000AF786039607B681B68FB6071
:1055F0007B682C4A934203D07B682B4A934208D1A4
:10560000FB6823F07003FB603B685B68FA68134338
:10561000FB607B68234A93420BD07B68224A93420B
:1056200007D07B68214A934203D07B68204A93428B
:1056300008D1FB6823F44073FB603B68DB68FA68C1
:105640001343FB60FB6823F080023B685B691343F4
:10565000FB607B68FA681A603B689A687B68DA626C
:105660003B681A687B689A627B680E4A934203D152
:105670003B681A697B681A637B6801225A617B6800
:105680001B6903F00103012B05D17B681B6923F023
:1056900001027B681A6100BF1437BD465DF8047BC8
:1056A000704700BF00000140000C00400040014076
:1056B0000048014080B487B000AF786039607B68F3
:1056C0001B6A7B617B681B6A23F001027B681A629C
:1056D0007B685B683B617B689B69FB60FB6823F0D0
:1056E0007003FB60FB6823F00303FB603B681B68EF
:1056F000FA681343FB607B6923F002037B613B681C
:105700009B687A6913437B617B681C4A93420CD186
:105710007B6923F008037B613B68DB687A6913438C
:105720007B617B6923F004037B617B68134A9342AE
:1057300011D13B6923F480733B613B6923F400730F
:105740003B613B685B693A6913433B613B689B691A
:105750003A6913433B617B683A695A607B68FA682F
:105760009A613B685A687B685A637B687A691A62F7
:1057700000BF1C37BD465DF8047B70470000014048
:1057800080B487B000AF786039607B681B6A7B614A
:105790007B681B6A23F010027B681A627B685B6877
:1057A0003B617B689B69FB60FB6823F4E043FB6023
:1057B000FB6823F44073FB603B681B681B02FA68BC
:1057C0001343FB607B6923F020037B613B689B688C
:1057D0001B017A6913437B617B681E4A93420DD19A
:1057E0007B6923F080037B613B68DB681B017A697E
:1057F00013437B617B6923F040037B617B68154A1F
:10580000934213D13B6923F480633B613B6923F4EA
:1058100000633B613B685B699B003A6913433B61F2
:105820003B689B699B003A6913433B617B683A691B
:105830005A607B68FA689A613B685A687B689A6329
:105840007B687A691A6200BF1C37BD465DF8047B2D
:10585000704700BF0000014080B487B000AF78609F
:1058600039607B681B6A7B617B681B6A23F48072EA
:105870007B681A627B685B683B617B68DB69FB6005
:10588000FB6823F07003FB60FB6823F00303FB60FD
:105890003B681B68FA681343FB607B6923F4007361
:1058A0007B613B689B681B027A6913437B617B6861
:1058B0001D4A93420DD17B6923F400637B613B68F1
:1058C000DB681B027A6913437B617B6923F4806385
:1058D0007B617B68144A934213D13B6923F4805364
:1058E0003B613B6923F400533B613B685B691B01EF
:1058F0003A6913433B613B689B691B013A69134357
:105900003B617B683A695A607B68FA68DA613B6898
:105910005A687B68DA637B687A691A6200BF1C3751
:10592000BD465DF8047B70470000014080B487B03D
:1059300000AF786039607B681B6A3B617B681B6ADB
:1059400023F480527B681A627B685B687B617B68AA
:10595000DB69FB60FB6823F4E043FB60FB6823F436
:105960004073FB603B681B681B02FA681343FB60D3
:105970003B6923F400533B613B689B681B033A6916
:1059800013433B617B68104A934209D17B6923F43E
:1059900080437B613B685B699B017A6913437B6150
:1059A0007B687A695A607B68FA68DA613B685A6892
:1059B0007B681A647B683A691A6200BF1C37BD466F
:1059C0005DF8047B704700BF0000014080B487B0E1
:1059D00000AFF860B9607A60FB681B6A7B61FB68A6
:1059E0001B6A23F00102FB681A62FB689B693B613A
:1059F0003B6923F0F0033B617B681B013A69134369
:105A00003B617B6923F00A037B617A69BB681343BE
:105A10007B61FB683A699A61FB687A691A6200BF28
:105A20001C37BD465DF8047B704780B487B000AF7B
:105A3000F860B9607A60FB681B6A7B61FB681B6A6F
:105A400023F01002FB681A62FB689B693B613B69AB
:105A500023F470433B617B681B033A6913433B614A
:105A60007B6923F0A0037B61BB681B017A69134348
:105A70007B61FB683A699A61FB687A691A6200BFC8
:105A80001C37BD465DF8047B704780B485B000AF1D
:105A9000786039607B689B68FB60FB6823F070036B
:105AA000FB603A68FB68134343F00703FB607B68C5
:105AB000FA689A6000BF1437BD465DF8047B7047F2
:105AC00080B487B000AFF860B9607A603B60FB6873
:105AD0009B687B617B6923F47F437B613B681A028F
